{
	"contracts/Test.sol": {
		"Ownable": {
			"abi": [
				{
					"inputs": [],
					"stateMutability": "nonpayable",
					"type": "constructor"
				},
				{
					"anonymous": false,
					"inputs": [
						{
							"indexed": true,
							"internalType": "address",
							"name": "previousOwner",
							"type": "address"
						},
						{
							"indexed": true,
							"internalType": "address",
							"name": "newOwner",
							"type": "address"
						}
					],
					"name": "OwnershipTransferred",
					"type": "event"
				},
				{
					"inputs": [],
					"name": "owner",
					"outputs": [
						{
							"internalType": "address",
							"name": "",
							"type": "address"
						}
					],
					"stateMutability": "view",
					"type": "function"
				},
				{
					"inputs": [],
					"name": "renounceOwnership",
					"outputs": [],
					"stateMutability": "nonpayable",
					"type": "function"
				}
			],
			"devdoc": {
				"kind": "dev",
				"methods": {},
				"version": 1
			},
			"evm": {
				"assembly": "    /* \"contracts/Test.sol\":2134:2815  contract Ownable is Context {... */\n  mstore(0x40, 0x80)\n    /* \"contracts/Test.sol\":2308:2457  constructor() {... */\n  callvalue\n  dup1\n  iszero\n  tag_1\n  jumpi\n  0x00\n  dup1\n  revert\ntag_1:\n  pop\n    /* \"contracts/Test.sol\":2332:2349  address msgSender */\n  0x00\n    /* \"contracts/Test.sol\":2374:2392  _owner = msgSender */\n  dup1\n  sload\n  not(sub(shl(0xa0, 0x01), 0x01))\n  and\n    /* \"contracts/Test.sol\":177:187  msg.sender */\n  caller\n    /* \"contracts/Test.sol\":2374:2392  _owner = msgSender */\n  swap1\n  dup2\n  or\n  dup3\n  sstore\n    /* \"contracts/Test.sol\":2407:2450  OwnershipTransferred(address(0), msgSender) */\n  mload(0x40)\n    /* \"contracts/Test.sol\":177:187  msg.sender */\n  swap1\n  swap2\n  dup3\n  swap2\n    /* \"contracts/Test.sol\":2407:2450  OwnershipTransferred(address(0), msgSender) */\n  0x8be0079c531659141344cd1fd0a4f28419497f9722a3daafe3b4186f6b6457e0\n  swap1\n    /* \"contracts/Test.sol\":2332:2349  address msgSender */\n  dup3\n  swap1\n    /* \"contracts/Test.sol\":2407:2450  OwnershipTransferred(address(0), msgSender) */\n  log3\n    /* \"contracts/Test.sol\":2322:2457  {... */\n  pop\n    /* \"contracts/Test.sol\":2134:2815  contract Ownable is Context {... */\n  dataSize(sub_0)\n  dup1\n  dataOffset(sub_0)\n  0x00\n  codecopy\n  0x00\n  return\nstop\n\nsub_0: assembly {\n        /* \"contracts/Test.sol\":2134:2815  contract Ownable is Context {... */\n      mstore(0x40, 0x80)\n      callvalue\n      dup1\n      iszero\n      tag_1\n      jumpi\n      0x00\n      dup1\n      revert\n    tag_1:\n      pop\n      jumpi(tag_2, lt(calldatasize, 0x04))\n      shr(0xe0, calldataload(0x00))\n      dup1\n      0x715018a6\n      eq\n      tag_3\n      jumpi\n      dup1\n      0x8da5cb5b\n      eq\n      tag_4\n      jumpi\n    tag_2:\n      0x00\n      dup1\n      revert\n        /* \"contracts/Test.sol\":2668:2813  function renounceOwnership() public virtual onlyOwner {... */\n    tag_3:\n      tag_5\n      tag_6\n      jump\t// in\n    tag_5:\n      stop\n        /* \"contracts/Test.sol\":2463:2540  function owner() public view returns (address) {... */\n    tag_4:\n        /* \"contracts/Test.sol\":2501:2508  address */\n      0x00\n        /* \"contracts/Test.sol\":2527:2533  _owner */\n      sload\n        /* \"contracts/Test.sol\":2463:2540  function owner() public view returns (address) {... */\n      0x40\n      dup1\n      mload\n      sub(shl(0xa0, 0x01), 0x01)\n        /* \"contracts/Test.sol\":2527:2533  _owner */\n      swap1\n      swap3\n      and\n        /* \"#utility.yul\":160:211   */\n      dup3\n      mstore\n        /* \"contracts/Test.sol\":2463:2540  function owner() public view returns (address) {... */\n      mload\n      swap1\n      dup2\n      swap1\n      sub\n        /* \"#utility.yul\":148:150   */\n      0x20\n        /* \"contracts/Test.sol\":2463:2540  function owner() public view returns (address) {... */\n      add\n      swap1\n      return\n        /* \"contracts/Test.sol\":2668:2813  function renounceOwnership() public virtual onlyOwner {... */\n    tag_6:\n        /* \"contracts/Test.sol\":2585:2591  _owner */\n      and(sub(shl(0xa0, 0x01), 0x01), sload(0x00))\n        /* \"contracts/Test.sol\":177:187  msg.sender */\n      caller\n        /* \"contracts/Test.sol\":2585:2607  _owner == _msgSender() */\n      eq\n        /* \"contracts/Test.sol\":2577:2644  require(_owner == _msgSender(), \"Ownable: caller is not the owner\") */\n      tag_14\n      jumpi\n      mload(0x40)\n      shl(0xe5, 0x461bcd)\n      dup2\n      mstore\n        /* \"#utility.yul\":424:426   */\n      0x20\n        /* \"contracts/Test.sol\":2577:2644  require(_owner == _msgSender(), \"Ownable: caller is not the owner\") */\n      0x04\n      dup3\n      add\n        /* \"#utility.yul\":406:427   */\n      dup2\n      swap1\n      mstore\n        /* \"#utility.yul\":443:461   */\n      0x24\n      dup3\n      add\n        /* \"#utility.yul\":436:466   */\n      mstore\n        /* \"#utility.yul\":502:536   */\n      0x4f776e61626c653a2063616c6c6572206973206e6f7420746865206f776e6572\n        /* \"#utility.yul\":482:500   */\n      0x44\n      dup3\n      add\n        /* \"#utility.yul\":475:537   */\n      mstore\n        /* \"#utility.yul\":554:572   */\n      0x64\n      add\n        /* \"contracts/Test.sol\":2577:2644  require(_owner == _msgSender(), \"Ownable: caller is not the owner\") */\n      mload(0x40)\n      dup1\n      swap2\n      sub\n      swap1\n      revert\n    tag_14:\n        /* \"contracts/Test.sol\":2774:2775  0 */\n      0x00\n        /* \"contracts/Test.sol\":2758:2764  _owner */\n      dup1\n      sload\n        /* \"contracts/Test.sol\":2737:2777  OwnershipTransferred(_owner, address(0)) */\n      mload(0x40)\n      sub(shl(0xa0, 0x01), 0x01)\n        /* \"contracts/Test.sol\":2758:2764  _owner */\n      swap1\n      swap2\n      and\n      swap1\n        /* \"contracts/Test.sol\":2737:2777  OwnershipTransferred(_owner, address(0)) */\n      0x8be0079c531659141344cd1fd0a4f28419497f9722a3daafe3b4186f6b6457e0\n      swap1\n        /* \"contracts/Test.sol\":2774:2775  0 */\n      dup4\n      swap1\n        /* \"contracts/Test.sol\":2737:2777  OwnershipTransferred(_owner, address(0)) */\n      log3\n        /* \"contracts/Test.sol\":2804:2805  0 */\n      0x00\n        /* \"contracts/Test.sol\":2787:2806  _owner = address(0) */\n      dup1\n      sload\n      not(sub(shl(0xa0, 0x01), 0x01))\n      and\n      swap1\n      sstore\n        /* \"contracts/Test.sol\":2668:2813  function renounceOwnership() public virtual onlyOwner {... */\n      jump\t// out\n\n    auxdata: 0xa2646970667358221220dee7c291193f22a2911cd78cc4f6c79dabbb629396f264237afe5d5a96f31e6a64736f6c63430008180033\n}\n",
				"bytecode": {
					"linkReferences": {},
					"object": "608060405234801561001057600080fd5b50600080546001600160a01b031916339081178255604051909182917f8be0079c531659141344cd1fd0a4f28419497f9722a3daafe3b4186f6b6457e0908290a350610142806100616000396000f3fe608060405234801561001057600080fd5b50600436106100365760003560e01c8063715018a61461003b5780638da5cb5b14610045575b600080fd5b610043610064565b005b600054604080516001600160a01b039092168252519081900360200190f35b6000546001600160a01b031633146100c25760405162461bcd60e51b815260206004820181905260248201527f4f776e61626c653a2063616c6c6572206973206e6f7420746865206f776e6572604482015260640160405180910390fd5b600080546040516001600160a01b03909116907f8be0079c531659141344cd1fd0a4f28419497f9722a3daafe3b4186f6b6457e0908390a3600080546001600160a01b031916905556fea2646970667358221220dee7c291193f22a2911cd78cc4f6c79dabbb629396f264237afe5d5a96f31e6a64736f6c63430008180033",
					"opcodes": "PUSH1 0x80 PUSH1 0x40 MSTORE CALLVALUE DUP1 ISZERO PUSH2 0x10 JUMPI PUSH1 0x0 DUP1 REVERT JUMPDEST POP PUSH1 0x0 DUP1 SLOAD PUSH1 0x1 PUSH1 0x1 PUSH1 0xA0 SHL SUB NOT AND CALLER SWAP1 DUP2 OR DUP3 SSTORE PUSH1 0x40 MLOAD SWAP1 SWAP2 DUP3 SWAP2 PUSH32 0x8BE0079C531659141344CD1FD0A4F28419497F9722A3DAAFE3B4186F6B6457E0 SWAP1 DUP3 SWAP1 LOG3 POP PUSH2 0x142 DUP1 PUSH2 0x61 PUSH1 0x0 CODECOPY PUSH1 0x0 RETURN INVALID PUSH1 0x80 PUSH1 0x40 MSTORE CALLVALUE DUP1 ISZERO PUSH2 0x10 JUMPI PUSH1 0x0 DUP1 REVERT JUMPDEST POP PUSH1 0x4 CALLDATASIZE LT PUSH2 0x36 JUMPI PUSH1 0x0 CALLDATALOAD PUSH1 0xE0 SHR DUP1 PUSH4 0x715018A6 EQ PUSH2 0x3B JUMPI DUP1 PUSH4 0x8DA5CB5B EQ PUSH2 0x45 JUMPI JUMPDEST PUSH1 0x0 DUP1 REVERT JUMPDEST PUSH2 0x43 PUSH2 0x64 JUMP JUMPDEST STOP JUMPDEST PUSH1 0x0 SLOAD PUSH1 0x40 DUP1 MLOAD PUSH1 0x1 PUSH1 0x1 PUSH1 0xA0 SHL SUB SWAP1 SWAP3 AND DUP3 MSTORE MLOAD SWAP1 DUP2 SWAP1 SUB PUSH1 0x20 ADD SWAP1 RETURN JUMPDEST PUSH1 0x0 SLOAD PUSH1 0x1 PUSH1 0x1 PUSH1 0xA0 SHL SUB AND CALLER EQ PUSH2 0xC2 JUMPI PUSH1 0x40 MLOAD PUSH3 0x461BCD PUSH1 0xE5 SHL DUP2 MSTORE PUSH1 0x20 PUSH1 0x4 DUP3 ADD DUP2 SWAP1 MSTORE PUSH1 0x24 DUP3 ADD MSTORE PUSH32 0x4F776E61626C653A2063616C6C6572206973206E6F7420746865206F776E6572 PUSH1 0x44 DUP3 ADD MSTORE PUSH1 0x64 ADD PUSH1 0x40 MLOAD DUP1 SWAP2 SUB SWAP1 REVERT JUMPDEST PUSH1 0x0 DUP1 SLOAD PUSH1 0x40 MLOAD PUSH1 0x1 PUSH1 0x1 PUSH1 0xA0 SHL SUB SWAP1 SWAP2 AND SWAP1 PUSH32 0x8BE0079C531659141344CD1FD0A4F28419497F9722A3DAAFE3B4186F6B6457E0 SWAP1 DUP4 SWAP1 LOG3 PUSH1 0x0 DUP1 SLOAD PUSH1 0x1 PUSH1 0x1 PUSH1 0xA0 SHL SUB NOT AND SWAP1 SSTORE JUMP INVALID LOG2 PUSH5 0x6970667358 0x22 SLT KECCAK256 0xDE 0xE7 0xC2 SWAP2 NOT EXTCODEHASH 0x22 LOG2 SWAP2 SHR 0xD7 DUP13 0xC4 0xF6 0xC7 SWAP14 0xAB 0xBB PUSH3 0x9396F2 PUSH5 0x237AFE5D5A SWAP7 RETURN 0x1E PUSH11 0x64736F6C63430008180033 "
				},
				"gasEstimates": {
					"creation": {
						"codeDepositCost": "64400",
						"executionCost": "25890",
						"totalCost": "90290"
					},
					"external": {
						"owner()": "2292",
						"renounceOwnership()": "30143"
					}
				},
				"methodIdentifiers": {
					"owner()": "8da5cb5b",
					"renounceOwnership()": "715018a6"
				}
			},
			"storageLayout": {
				"storage": [
					{
						"astId": 228,
						"contract": "contracts/Test.sol:Ownable",
						"label": "_owner",
						"offset": 0,
						"slot": "0",
						"type": "t_address"
					}
				],
				"types": {
					"t_address": {
						"encoding": "inplace",
						"label": "address",
						"numberOfBytes": "20"
					}
				}
			},
			"userdoc": {
				"kind": "user",
				"methods": {},
				"version": 1
			}
		}
	}
}